{"abi":[{"type":"constructor","inputs":[{"name":"entryPoint","type":"address","internalType":"address"}],"stateMutability":"nonpayable"},{"type":"receive","stateMutability":"payable"},{"type":"function","name":"execute","inputs":[{"name":"dest","type":"address","internalType":"address"},{"name":"value","type":"uint256","internalType":"uint256"},{"name":"functionData","type":"bytes","internalType":"bytes"}],"outputs":[],"stateMutability":"nonpayable"},{"type":"function","name":"getEntryPoint","inputs":[],"outputs":[{"name":"","type":"address","internalType":"address"}],"stateMutability":"view"},{"type":"function","name":"owner","inputs":[],"outputs":[{"name":"","type":"address","internalType":"address"}],"stateMutability":"view"},{"type":"function","name":"renounceOwnership","inputs":[],"outputs":[],"stateMutability":"nonpayable"},{"type":"function","name":"transferOwnership","inputs":[{"name":"newOwner","type":"address","internalType":"address"}],"outputs":[],"stateMutability":"nonpayable"},{"type":"function","name":"validateUserOp","inputs":[{"name":"userOp","type":"tuple","internalType":"struct PackedUserOperation","components":[{"name":"sender","type":"address","internalType":"address"},{"name":"nonce","type":"uint256","internalType":"uint256"},{"name":"initCode","type":"bytes","internalType":"bytes"},{"name":"callData","type":"bytes","internalType":"bytes"},{"name":"accountGasLimits","type":"bytes32","internalType":"bytes32"},{"name":"preVerificationGas","type":"uint256","internalType":"uint256"},{"name":"gasFees","type":"bytes32","internalType":"bytes32"},{"name":"paymasterAndData","type":"bytes","internalType":"bytes"},{"name":"signature","type":"bytes","internalType":"bytes"}]},{"name":"userOpHash","type":"bytes32","internalType":"bytes32"},{"name":"missingAccountFunds","type":"uint256","internalType":"uint256"}],"outputs":[{"name":"validationData","type":"uint256","internalType":"uint256"}],"stateMutability":"nonpayable"},{"type":"event","name":"OwnershipTransferred","inputs":[{"name":"previousOwner","type":"address","indexed":true,"internalType":"address"},{"name":"newOwner","type":"address","indexed":true,"internalType":"address"}],"anonymous":false},{"type":"error","name":"ECDSAInvalidSignature","inputs":[]},{"type":"error","name":"ECDSAInvalidSignatureLength","inputs":[{"name":"length","type":"uint256","internalType":"uint256"}]},{"type":"error","name":"ECDSAInvalidSignatureS","inputs":[{"name":"s","type":"bytes32","internalType":"bytes32"}]},{"type":"error","name":"OwnableInvalidOwner","inputs":[{"name":"owner","type":"address","internalType":"address"}]},{"type":"error","name":"OwnableUnauthorizedAccount","inputs":[{"name":"account","type":"address","internalType":"address"}]},{"type":"error","name":"minimalaccount_CallFailed","inputs":[{"name":"","type":"bytes","internalType":"bytes"}]},{"type":"error","name":"minimalaccount_NotFromEntryPoint","inputs":[]},{"type":"error","name":"minimalaccount_NotFromEntryPointOrOwner","inputs":[]}],"bytecode":{"object":"0x60a060405234801561000f575f80fd5b5060405161097538038061097583398101604081905261002e916100bd565b338061005357604051631e4fbdf760e01b81525f600482015260240160405180910390fd5b61005c8161006e565b506001600160a01b03166080526100ea565b5f80546001600160a01b038381166001600160a01b0319831681178455604051919092169283917f8be0079c531659141344cd1fd0a4f28419497f9722a3daafe3b4186f6b6457e09190a35050565b5f602082840312156100cd575f80fd5b81516001600160a01b03811681146100e3575f80fd5b9392505050565b60805161086661010f5f395f818160a20152818161015601526101ce01526108665ff3fe608060405260043610610057575f3560e01c806319822f7c1461006257806344ab613f14610094578063715018a6146100da5780638da5cb5b146100f0578063b61d27f61461010c578063f2fde38b1461012b575f80fd5b3661005e57005b5f80fd5b34801561006d575f80fd5b5061008161007c366004610674565b61014a565b6040519081526020015b60405180910390f35b34801561009f575f80fd5b507f00000000000000000000000000000000000000000000000000000000000000005b6040516001600160a01b03909116815260200161008b565b3480156100e5575f80fd5b506100ee6101b0565b005b3480156100fb575f80fd5b505f546001600160a01b03166100c2565b348015610117575f80fd5b506100ee6101263660046106de565b6101c3565b348015610136575f80fd5b506100ee61014536600461075e565b6102b6565b5f336001600160a01b037f000000000000000000000000000000000000000000000000000000000000000016146101945760405163369a448560e21b815260040160405180910390fd5b61019e84846102f3565b90506101a9826103af565b9392505050565b6101b8610404565b6101c15f610430565b565b336001600160a01b037f0000000000000000000000000000000000000000000000000000000000000000161480159061020657505f546001600160a01b03163314155b1561022457604051630519a75560e21b815260040160405180910390fd5b5f80856001600160a01b0316858585604051610241929190610777565b5f6040518083038185875af1925050503d805f811461027b576040519150601f19603f3d011682016040523d82523d5f602084013e610280565b606091505b5091509150816102ae57806040516361b0299560e01b81526004016102a59190610786565b60405180910390fd5b505050505050565b6102be610404565b6001600160a01b0381166102e757604051631e4fbdf760e01b81525f60048201526024016102a5565b6102f081610430565b50565b7f19457468657265756d205369676e6564204d6573736167653a0a3332000000005f908152601c829052603c81205f61036d826103346101008801886107d2565b8080601f0160208091040260200160405190810160405280939291908181526020018383808284375f9201919091525061047f92505050565b90506103805f546001600160a01b031690565b6001600160a01b0316816001600160a01b0316146103a3576001925050506103a9565b5f925050505b92915050565b80156102f0576040515f9033905f1990849084818181858888f193505050503d805f81146103f8576040519150601f19603f3d011682016040523d82523d5f602084013e6103fd565b606091505b5050505050565b5f546001600160a01b031633146101c15760405163118cdaa760e01b81523360048201526024016102a5565b5f80546001600160a01b038381166001600160a01b0319831681178455604051919092169283917f8be0079c531659141344cd1fd0a4f28419497f9722a3daafe3b4186f6b6457e09190a35050565b5f805f8061048d86866104a7565b92509250925061049d82826104f0565b5090949350505050565b5f805f83516041036104de576020840151604085015160608601515f1a6104d0888285856105ac565b9550955095505050506104e9565b505081515f91506002905b9250925092565b5f8260038111156105035761050361081c565b0361050c575050565b60018260038111156105205761052061081c565b0361053e5760405163f645eedf60e01b815260040160405180910390fd5b60028260038111156105525761055261081c565b036105735760405163fce698f760e01b8152600481018290526024016102a5565b60038260038111156105875761058761081c565b036105a8576040516335e2f38360e21b8152600481018290526024016102a5565b5050565b5f80807f7fffffffffffffffffffffffffffffff5d576e7357a4501ddfe92f46681b20a08411156105e557505f9150600390508261066a565b604080515f808252602082018084528a905260ff891692820192909252606081018790526080810186905260019060a0016020604051602081039080840390855afa158015610636573d5f803e3d5ffd5b5050604051601f1901519150506001600160a01b03811661066157505f92506001915082905061066a565b92505f91508190505b9450945094915050565b5f805f60608486031215610686575f80fd5b833567ffffffffffffffff81111561069c575f80fd5b840161012081870312156106ae575f80fd5b95602085013595506040909401359392505050565b80356001600160a01b03811681146106d9575f80fd5b919050565b5f805f80606085870312156106f1575f80fd5b6106fa856106c3565b935060208501359250604085013567ffffffffffffffff8082111561071d575f80fd5b818701915087601f830112610730575f80fd5b81358181111561073e575f80fd5b88602082850101111561074f575f80fd5b95989497505060200194505050565b5f6020828403121561076e575f80fd5b6101a9826106c3565b818382375f9101908152919050565b5f602080835283518060208501525f5b818110156107b257858101830151858201604001528201610796565b505f604082860101526040601f19601f8301168501019250505092915050565b5f808335601e198436030181126107e7575f80fd5b83018035915067ffffffffffffffff821115610801575f80fd5b602001915036819003821315610815575f80fd5b9250929050565b634e487b7160e01b5f52602160045260245ffdfea26469706673582212208d2ab4bba05848f95beb099b96f31f4ca101f1bb134dc5c207d81674764ffb7c64736f6c63430008180033","linkReferences":{}},"methodIdentifiers":{"execute(address,uint256,bytes)":"b61d27f6","getEntryPoint()":"44ab613f","owner()":"8da5cb5b","renounceOwnership()":"715018a6","transferOwnership(address)":"f2fde38b","validateUserOp((address,uint256,bytes,bytes,bytes32,uint256,bytes32,bytes,bytes),bytes32,uint256)":"19822f7c"},"id":57}