{"abi":[{"type":"constructor","inputs":[{"name":"initialOwner","type":"address","internalType":"address"},{"name":"entryPoint","type":"address","internalType":"contract IEntryPoint"}],"stateMutability":"nonpayable"},{"type":"receive","stateMutability":"payable"},{"type":"function","name":"addGuardian","inputs":[{"name":"guardian","type":"address","internalType":"address"}],"outputs":[],"stateMutability":"nonpayable"},{"type":"function","name":"addToBlacklist","inputs":[{"name":"addr","type":"address","internalType":"address"}],"outputs":[],"stateMutability":"nonpayable"},{"type":"function","name":"addToWhitelist","inputs":[{"name":"addr","type":"address","internalType":"address"}],"outputs":[],"stateMutability":"nonpayable"},{"type":"function","name":"approveERC20","inputs":[{"name":"token","type":"address","internalType":"address"},{"name":"spender","type":"address","internalType":"address"},{"name":"amount","type":"uint256","internalType":"uint256"}],"outputs":[],"stateMutability":"nonpayable"},{"type":"function","name":"blacklist","inputs":[{"name":"","type":"address","internalType":"address"}],"outputs":[{"name":"","type":"bool","internalType":"bool"}],"stateMutability":"view"},{"type":"function","name":"dailyLimit","inputs":[],"outputs":[{"name":"","type":"uint256","internalType":"uint256"}],"stateMutability":"view"},{"type":"function","name":"dailySpent","inputs":[],"outputs":[{"name":"","type":"uint256","internalType":"uint256"}],"stateMutability":"view"},{"type":"function","name":"executeBatch","inputs":[{"name":"dests","type":"address[]","internalType":"address[]"},{"name":"values","type":"uint256[]","internalType":"uint256[]"},{"name":"data","type":"bytes[]","internalType":"bytes[]"}],"outputs":[],"stateMutability":"nonpayable"},{"type":"function","name":"executeBatchWithMFAAndTransient","inputs":[{"name":"dests","type":"address[]","internalType":"address[]"},{"name":"values","type":"uint256[]","internalType":"uint256[]"},{"name":"data","type":"bytes[]","internalType":"bytes[]"},{"name":"otp","type":"bytes32","internalType":"bytes32"},{"name":"secondarySignature","type":"bytes","internalType":"bytes"}],"outputs":[],"stateMutability":"nonpayable"},{"type":"function","name":"executeBatchWithTransient","inputs":[{"name":"dests","type":"address[]","internalType":"address[]"},{"name":"values","type":"uint256[]","internalType":"uint256[]"},{"name":"data","type":"bytes[]","internalType":"bytes[]"}],"outputs":[],"stateMutability":"nonpayable"},{"type":"function","name":"executeWithLimitTransient","inputs":[{"name":"dest","type":"address","internalType":"address"},{"name":"value","type":"uint256","internalType":"uint256"},{"name":"data","type":"bytes","internalType":"bytes"}],"outputs":[],"stateMutability":"nonpayable"},{"type":"function","name":"executeWithMFA","inputs":[{"name":"dest","type":"address","internalType":"address"},{"name":"value","type":"uint256","internalType":"uint256"},{"name":"data","type":"bytes","internalType":"bytes"},{"name":"otp","type":"bytes32","internalType":"bytes32"},{"name":"secondarySignature","type":"bytes","internalType":"bytes"}],"outputs":[],"stateMutability":"nonpayable"},{"type":"function","name":"executeWithPermission","inputs":[{"name":"dest","type":"address","internalType":"address"},{"name":"value","type":"uint256","internalType":"uint256"},{"name":"data","type":"bytes","internalType":"bytes"}],"outputs":[],"stateMutability":"nonpayable"},{"type":"function","name":"getEntryPoint","inputs":[],"outputs":[{"name":"","type":"address","internalType":"address"}],"stateMutability":"view"},{"type":"function","name":"grantPermission","inputs":[{"name":"account","type":"address","internalType":"address"},{"name":"permission","type":"uint8","internalType":"enum EnhancedAccount.PermissionType"},{"name":"duration","type":"uint256","internalType":"uint256"}],"outputs":[],"stateMutability":"nonpayable"},{"type":"function","name":"guardians","inputs":[{"name":"","type":"uint256","internalType":"uint256"}],"outputs":[{"name":"","type":"address","internalType":"address"}],"stateMutability":"view"},{"type":"function","name":"isGuardian","inputs":[{"name":"","type":"address","internalType":"address"}],"outputs":[{"name":"","type":"bool","internalType":"bool"}],"stateMutability":"view"},{"type":"function","name":"lastSpendReset","inputs":[],"outputs":[{"name":"","type":"uint256","internalType":"uint256"}],"stateMutability":"view"},{"type":"function","name":"owner","inputs":[],"outputs":[{"name":"","type":"address","internalType":"address"}],"stateMutability":"view"},{"type":"function","name":"permissions","inputs":[{"name":"","type":"address","internalType":"address"},{"name":"","type":"uint8","internalType":"enum EnhancedAccount.PermissionType"}],"outputs":[{"name":"granted","type":"bool","internalType":"bool"},{"name":"expiresAt","type":"uint256","internalType":"uint256"}],"stateMutability":"view"},{"type":"function","name":"recoveryThreshold","inputs":[],"outputs":[{"name":"","type":"uint256","internalType":"uint256"}],"stateMutability":"view"},{"type":"function","name":"removeGuardian","inputs":[{"name":"guardian","type":"address","internalType":"address"}],"outputs":[],"stateMutability":"nonpayable"},{"type":"function","name":"renounceOwnership","inputs":[],"outputs":[],"stateMutability":"nonpayable"},{"type":"function","name":"revokePermission","inputs":[{"name":"account","type":"address","internalType":"address"},{"name":"permission","type":"uint8","internalType":"enum EnhancedAccount.PermissionType"}],"outputs":[],"stateMutability":"nonpayable"},{"type":"function","name":"secondaryKey","inputs":[],"outputs":[{"name":"","type":"address","internalType":"address"}],"stateMutability":"view"},{"type":"function","name":"sendFundsWithPermission","inputs":[{"name":"to","type":"address","internalType":"address payable"},{"name":"amount","type":"uint256","internalType":"uint256"}],"outputs":[],"stateMutability":"nonpayable"},{"type":"function","name":"setDailyLimit","inputs":[{"name":"limit","type":"uint256","internalType":"uint256"}],"outputs":[],"stateMutability":"nonpayable"},{"type":"function","name":"setSecondaryKey","inputs":[{"name":"newKey","type":"address","internalType":"address"}],"outputs":[],"stateMutability":"nonpayable"},{"type":"function","name":"signMessageWithPermission","inputs":[{"name":"hash","type":"bytes32","internalType":"bytes32"},{"name":"signature","type":"bytes","internalType":"bytes"}],"outputs":[{"name":"","type":"bool","internalType":"bool"}],"stateMutability":"view"},{"type":"function","name":"transferOwnership","inputs":[{"name":"newOwner","type":"address","internalType":"address"}],"outputs":[],"stateMutability":"nonpayable"},{"type":"function","name":"triggerRecovery","inputs":[{"name":"newOwner","type":"address","internalType":"address"},{"name":"guardianSignatures","type":"bytes[]","internalType":"bytes[]"}],"outputs":[],"stateMutability":"nonpayable"},{"type":"function","name":"usedOtps","inputs":[{"name":"","type":"bytes32","internalType":"bytes32"}],"outputs":[{"name":"","type":"bool","internalType":"bool"}],"stateMutability":"view"},{"type":"function","name":"validateUserOp","inputs":[{"name":"userOp","type":"tuple","internalType":"struct PackedUserOperation","components":[{"name":"sender","type":"address","internalType":"address"},{"name":"nonce","type":"uint256","internalType":"uint256"},{"name":"initCode","type":"bytes","internalType":"bytes"},{"name":"callData","type":"bytes","internalType":"bytes"},{"name":"accountGasLimits","type":"bytes32","internalType":"bytes32"},{"name":"preVerificationGas","type":"uint256","internalType":"uint256"},{"name":"gasFees","type":"bytes32","internalType":"bytes32"},{"name":"paymasterAndData","type":"bytes","internalType":"bytes"},{"name":"signature","type":"bytes","internalType":"bytes"}]},{"name":"userOpHash","type":"bytes32","internalType":"bytes32"},{"name":"missingAccountFunds","type":"uint256","internalType":"uint256"}],"outputs":[{"name":"validationData","type":"uint256","internalType":"uint256"}],"stateMutability":"nonpayable"},{"type":"function","name":"whitelist","inputs":[{"name":"","type":"address","internalType":"address"}],"outputs":[{"name":"","type":"bool","internalType":"bool"}],"stateMutability":"view"},{"type":"event","name":"AddressBlacklisted","inputs":[{"name":"addr","type":"address","indexed":true,"internalType":"address"}],"anonymous":false},{"type":"event","name":"AddressWhitelisted","inputs":[{"name":"addr","type":"address","indexed":true,"internalType":"address"}],"anonymous":false},{"type":"event","name":"BatchApproved","inputs":[{"name":"operator","type":"address","indexed":true,"internalType":"address"},{"name":"data","type":"bytes","indexed":false,"internalType":"bytes"}],"anonymous":false},{"type":"event","name":"BatchOperationResult","inputs":[{"name":"index","type":"uint256","indexed":false,"internalType":"uint256"},{"name":"dest","type":"address","indexed":false,"internalType":"address"},{"name":"success","type":"bool","indexed":false,"internalType":"bool"}],"anonymous":false},{"type":"event","name":"DailyLimitSet","inputs":[{"name":"newLimit","type":"uint256","indexed":false,"internalType":"uint256"}],"anonymous":false},{"type":"event","name":"GuardianAdded","inputs":[{"name":"guardian","type":"address","indexed":true,"internalType":"address"}],"anonymous":false},{"type":"event","name":"GuardianRemoved","inputs":[{"name":"guardian","type":"address","indexed":true,"internalType":"address"}],"anonymous":false},{"type":"event","name":"OTPUsed","inputs":[{"name":"otp","type":"bytes32","indexed":true,"internalType":"bytes32"}],"anonymous":false},{"type":"event","name":"OwnershipTransferred","inputs":[{"name":"previousOwner","type":"address","indexed":true,"internalType":"address"},{"name":"newOwner","type":"address","indexed":true,"internalType":"address"}],"anonymous":false},{"type":"event","name":"PermissionGranted","inputs":[{"name":"account","type":"address","indexed":true,"internalType":"address"},{"name":"permission","type":"uint8","indexed":false,"internalType":"enum EnhancedAccount.PermissionType"},{"name":"expiresAt","type":"uint256","indexed":false,"internalType":"uint256"}],"anonymous":false},{"type":"event","name":"PermissionRevoked","inputs":[{"name":"account","type":"address","indexed":true,"internalType":"address"},{"name":"permission","type":"uint8","indexed":false,"internalType":"enum EnhancedAccount.PermissionType"}],"anonymous":false},{"type":"event","name":"RecoveryTriggered","inputs":[{"name":"newOwner","type":"address","indexed":true,"internalType":"address"}],"anonymous":false},{"type":"event","name":"SecondaryKeySet","inputs":[{"name":"newKey","type":"address","indexed":true,"internalType":"address"}],"anonymous":false},{"type":"event","name":"TransactionExecuted","inputs":[{"name":"dest","type":"address","indexed":true,"internalType":"address"},{"name":"value","type":"uint256","indexed":false,"internalType":"uint256"},{"name":"success","type":"bool","indexed":false,"internalType":"bool"}],"anonymous":false},{"type":"error","name":"ECDSAInvalidSignature","inputs":[]},{"type":"error","name":"ECDSAInvalidSignatureLength","inputs":[{"name":"length","type":"uint256","internalType":"uint256"}]},{"type":"error","name":"ECDSAInvalidSignatureS","inputs":[{"name":"s","type":"bytes32","internalType":"bytes32"}]},{"type":"error","name":"OwnableInvalidOwner","inputs":[{"name":"owner","type":"address","internalType":"address"}]},{"type":"error","name":"OwnableUnauthorizedAccount","inputs":[{"name":"account","type":"address","internalType":"address"}]}],"bytecode":{"object":"0x60a060405234801562000010575f80fd5b5060405162002cfd38038062002cfd83398101604081905262000033916200015b565b816001600160a01b0381166200006357604051631e4fbdf760e01b81525f60048201526024015b60405180910390fd5b6200006e81620000e9565b506001600160a01b038216620000d65760405162461bcd60e51b815260206004820152602660248201527f456e68616e6365644163636f756e743a20496e76616c6964206f776e6572206160448201526564647265737360d01b60648201526084016200005a565b6001600160a01b03166080525062000198565b620000f481620000f7565b50565b5f80546001600160a01b038381166001600160a01b0319831681178455604051919092169283917f8be0079c531659141344cd1fd0a4f28419497f9722a3daafe3b4186f6b6457e09190a35050565b6001600160a01b0381168114620000f4575f80fd5b5f80604083850312156200016d575f80fd5b82516200017a8162000146565b60208401519092506200018d8162000146565b809150509250929050565b608051612b4c620001b15f395f6103f40152612b4c5ff3fe6080604052600436106101f4575f3560e01c80637140415611610108578063c3c59e6d1161009d578063e3c7bd1d1161006d578063e3c7bd1d14610604578063e43252d714610623578063f2fde38b14610642578063f560c73414610661578063f9f92be414610680575f80fd5b8063c3c59e6d14610592578063cd73389d146105b1578063cff82d07146105c6578063dd8a8a05146105e5575f80fd5b80639b19251a116100d85780639b19251a14610507578063a526d83b14610535578063a8e5e4aa14610554578063b20d30a914610573575f80fd5b80637140415614610499578063715018a6146104b857806386ddbfdc146104cc5780638da5cb5b146104eb575f80fd5b80631c8123d61161018957806344ab613f1161015957806344ab613f146103e657806347e1da2a1461041857806361f603611461043757806367eeba0c146104565780636c118c741461046b575f80fd5b80631c8123d6146103745780632c72048414610389578063377a6098146103a857806344337ea1146103c7575f80fd5b80630c82c416116101c45780630c82c416146102f6578063142a243114610317578063170e8ea91461033657806319822f7c14610355575f80fd5b80630a108d5e146101ff5780630b0bdaac1461025e5780630bc6b89c146102955780630c68ba21146102b8575f80fd5b366101fb57005b5f80fd5b34801561020a575f80fd5b50610242610219366004612156565b600b60209081525f92835260408084209091529082529020805460019091015460ff9091169082565b6040805192151583526020830191909152015b60405180910390f35b348015610269575f80fd5b5060015461027d906001600160a01b031681565b6040516001600160a01b039091168152602001610255565b3480156102a0575f80fd5b506102aa60045481565b604051908152602001610255565b3480156102c3575f80fd5b506102e66102d2366004612189565b600a6020525f908152604090205460ff1681565b6040519015158152602001610255565b348015610301575f80fd5b506103156103103660046121a4565b6106ae565b005b348015610322575f80fd5b50610315610331366004612226565b610799565b348015610341575f80fd5b50610315610350366004612312565b6109c3565b348015610360575f80fd5b506102aa61036f3660046123cf565b610d35565b34801561037f575f80fd5b506102aa60095481565b348015610394575f80fd5b506103156103a336600461245a565b610d7c565b3480156103b3575f80fd5b506102e66103c23660046124e1565b610f10565b3480156103d2575f80fd5b506103156103e1366004612189565b610fbe565b3480156103f1575f80fd5b507f000000000000000000000000000000000000000000000000000000000000000061027d565b348015610423575f80fd5b50610315610432366004612524565b611011565b348015610442575f80fd5b506103156104513660046125b6565b611021565b348015610461575f80fd5b506102aa60035481565b348015610476575f80fd5b506102e661048536600461260d565b60026020525f908152604090205460ff1681565b3480156104a4575f80fd5b506103156104b3366004612189565b611278565b3480156104c3575f80fd5b50610315611432565b3480156104d7575f80fd5b506103156104e6366004612524565b611445565b3480156104f6575f80fd5b505f546001600160a01b031661027d565b348015610512575f80fd5b506102e6610521366004612189565b60066020525f908152604090205460ff1681565b348015610540575f80fd5b5061031561054f366004612189565b6116da565b34801561055f575f80fd5b5061031561056e366004612624565b6117e1565b34801561057e575f80fd5b5061031561058d36600461260d565b61185f565b34801561059d575f80fd5b506103156105ac366004612662565b6118a2565b3480156105bc575f80fd5b506102aa60055481565b3480156105d1575f80fd5b506103156105e03660046125b6565b6119a2565b3480156105f0575f80fd5b506103156105ff366004612156565b611ac9565b34801561060f575f80fd5b5061031561061e366004612189565b611b70565b34801561062e575f80fd5b5061031561063d366004612189565b611bc1565b34801561064d575f80fd5b5061031561065c366004612189565b611c14565b34801561066c575f80fd5b5061027d61067b36600461260d565b611c51565b34801561068b575f80fd5b506102e661069a366004612189565b60076020525f908152604090205460ff1681565b6106b6611c79565b5f8082116106c5575f196106cf565b6106cf82426126a0565b6040805180820182526001815260208082018490526001600160a01b0388165f908152600b9091529182209293509190856002811115610711576107116126b3565b6002811115610722576107226126b3565b815260208082019290925260409081015f208351815460ff19169015151781559290910151600190920191909155516001600160a01b038516907f746b11363f3105ab2a834e8255af72ce86e5a5a1bbb2923341ee04851263bd2d9061078b90869085906126e7565b60405180910390a250505050565b6009548110156107fe5760405162461bcd60e51b815260206004820152602560248201527f456e68616e6365644163636f756e743a204e6f7420656e6f75676820617070726044820152646f76616c7360d81b60648201526084015b60405180910390fd5b6040516bffffffffffffffffffffffff19606085811b8216602084015230901b1660348201525f906048016040516020818303038152906040528051906020012090505f610878827f19457468657265756d205369676e6564204d6573736167653a0a3332000000005f908152601c91909152603c902090565b90505f805b84811015610921575f6108e78488888581811061089c5761089c612702565b90506020028101906108ae9190612716565b8080601f0160208091040260200160405190810160405280939291908181526020018383808284375f92019190915250611ca592505050565b6001600160a01b0381165f908152600a602052604090205490915060ff1615610918578261091481612758565b9350505b5060010161087d565b5060095481101561097f5760405162461bcd60e51b815260206004820152602260248201527f456e68616e6365644163636f756e743a20496e76616c696420617070726f76616044820152616c7360f01b60648201526084016107f5565b61098886611ccf565b6040516001600160a01b038716907f4e45ce20b541734cacacd85093c8944b3d3560e9c9d5cf333a51d70375c1f6ba905f90a2505050505050565b6109cb611c79565b5f8281526002602052604090205460ff16156109f95760405162461bcd60e51b81526004016107f590612770565b5f828152600260209081526040808320805460ff1916600117905551610a3d91610a299186910190815260200190565b604051602081830303815290604052611cd8565b90505f610a4a8284611ca5565b6001549091506001600160a01b03808316911614610a7a5760405162461bcd60e51b81526004016107f5906127b1565b8887148015610a8857508885145b610ad45760405162461bcd60e51b815260206004820181905260248201527f456e68616e6365644163636f756e743a204c656e677468206d69736d6174636860448201526064016107f5565b5f805b88811015610b0d57898982818110610af157610af1612702565b9050602002013582610b0391906126a0565b9150600101610ad7565b50805f5d5f5c47811115610b335760405162461bcd60e51b81526004016107f5906127fd565b5f5b8b811015610c94575f8d8d83818110610b5057610b50612702565b9050602002016020810190610b659190612189565b6001600160a01b03168c8c84818110610b8057610b80612702565b905060200201358b8b85818110610b9957610b99612702565b9050602002810190610bab9190612716565b604051610bb9929190612842565b5f6040518083038185875af1925050503d805f8114610bf3576040519150601f19603f3d011682016040523d82523d5f602084013e610bf8565b606091505b505090507f2a8fb2944ab820a1e4aa0019d2b2ec2a0ea06bd3a0f4b6038834865ba8b00e23828f8f85818110610c3057610c30612702565b9050602002016020810190610c459190612189565b604080519283526001600160a01b0390911660208301528315159082015260600160405180910390a180610c8b5760405162461bcd60e51b81526004016107f590612851565b50600101610b35565b50336001600160a01b03167fbd6d81b0cf4294fef8585ccd17470c3b73d95138b513dffac9526511a92b71188d8d8d8d8d8d604051602001610cdb96959493929190612951565b60408051601f1981840301815290829052610cf591612a09565b60405180910390a260405186907fb6adfc3ed84cdb84695dac48371389711c3d82bcafc30b3381d239b69819c1d9905f90a2505050505050505050505050565b5f80546001600160a01b0316610d53846108ae610100880188612716565b6001600160a01b031614610d6957506001610d75565b610d7282611d12565b505f5b9392505050565b610d84611c79565b5f8281526002602052604090205460ff1615610db25760405162461bcd60e51b81526004016107f590612770565b5f828152600260209081526040808320805460ff1916600117905551610de291610a299186910190815260200190565b90505f610def8284611ca5565b6001549091506001600160a01b03808316911614610e1f5760405162461bcd60e51b81526004016107f5906127b1565b5f886001600160a01b0316888888604051610e3b929190612842565b5f6040518083038185875af1925050503d805f8114610e75576040519150601f19603f3d011682016040523d82523d5f602084013e610e7a565b606091505b5050905080610edb5760405162461bcd60e51b815260206004820152602760248201527f456e68616e6365644163636f756e743a204d4641207472616e73616374696f6e6044820152660819985a5b195960ca1b60648201526084016107f5565b60405185907fb6adfc3ed84cdb84695dac48371389711c3d82bcafc30b3381d239b69819c1d9905f90a2505050505050505050565b335f908152600b602090815260408083206001808552925282205460ff168015610f7b5750335f908152600b602052604081204291836002811115610f5757610f576126b3565b6002811115610f6857610f686126b3565b81526020019081526020015f2060010154115b610f975760405162461bcd60e51b81526004016107f590612a3b565b5f546001600160a01b0316610fac8585611ca5565b6001600160a01b031614949350505050565b610fc6611c79565b6001600160a01b0381165f81815260076020526040808220805460ff19166001179055517fdaf49ab9345b6cb75bcb5a7f726bff9183c34dcf5c098c385730f9fd893765f69190a250565b611019611c79565b505050505050565b611029611c79565b60015c60025c61103c81620151806126a0565b42111561104957505f9050425b6001600160a01b0386165f9081526007602052604090205460ff16156110c15760405162461bcd60e51b815260206004820152602760248201527f456e68616e6365644163636f756e743a204164647265737320697320626c61636044820152661adb1a5cdd195960ca1b60648201526084016107f5565b6001600160a01b0386165f9081526006602052604090205460ff16611147576003546110ed86846126a0565b11156111475760405162461bcd60e51b8152602060048201526024808201527f456e68616e6365644163636f756e743a2045786365656473206461696c79206c6044820152631a5b5a5d60e21b60648201526084016107f5565b61115185836126a0565b91505f866001600160a01b031686868660405161116f929190612842565b5f6040518083038185875af1925050503d805f81146111a9576040519150601f19603f3d011682016040523d82523d5f602084013e6111ae565b606091505b50506040805188815282151560208201529192506001600160a01b038916917ffb04f5456ba4dadf3b50c2335860f8832b49b85d0f6c23a86c79d640d6ea3c5e910160405180910390a2806112605760405162461bcd60e51b815260206004820152603260248201527f456e68616e6365644163636f756e743a205370656e64696e67206c696d6974206044820152711d1c985b9cd858dd1a5bdb8819985a5b195960721b60648201526084016107f5565b8260015d8160025d5060049190915560055550505050565b611280611c79565b6001600160a01b0381165f908152600a602052604090205460ff166112e75760405162461bcd60e51b815260206004820152601f60248201527f456e68616e6365644163636f756e743a204e6f74206120677561726469616e0060448201526064016107f5565b6001600160a01b0381165f908152600a60205260408120805460ff191690555b6008548110156113fb57816001600160a01b03166008828154811061132e5761132e612702565b5f918252602090912001546001600160a01b0316036113f3576008805461135790600190612a68565b8154811061136757611367612702565b5f91825260209091200154600880546001600160a01b03909216918390811061139257611392612702565b905f5260205f20015f6101000a8154816001600160a01b0302191690836001600160a01b0316021790555060088054806113ce576113ce612a7b565b5f8281526020902081015f1990810180546001600160a01b03191690550190556113fb565b600101611307565b506040516001600160a01b038216907fb8107d0c6b40be480ce3172ee66ba6d64b71f6b1685a851340036e6e2e3e3c52905f90a250565b61143a611c79565b6114435f611ccf565b565b61144d611c79565b848314801561145b57508481145b6114a75760405162461bcd60e51b815260206004820181905260248201527f456e68616e6365644163636f756e743a204c656e677468206d69736d6174636860448201526064016107f5565b5f805b848110156114e0578585828181106114c4576114c4612702565b90506020020135826114d691906126a0565b91506001016114aa565b50805f5d5f5c478111156115065760405162461bcd60e51b81526004016107f5906127fd565b5f5b87811015611667575f89898381811061152357611523612702565b90506020020160208101906115389190612189565b6001600160a01b031688888481811061155357611553612702565b9050602002013587878581811061156c5761156c612702565b905060200281019061157e9190612716565b60405161158c929190612842565b5f6040518083038185875af1925050503d805f81146115c6576040519150601f19603f3d011682016040523d82523d5f602084013e6115cb565b606091505b505090507f2a8fb2944ab820a1e4aa0019d2b2ec2a0ea06bd3a0f4b6038834865ba8b00e23828b8b8581811061160357611603612702565b90506020020160208101906116189190612189565b604080519283526001600160a01b0390911660208301528315159082015260600160405180910390a18061165e5760405162461bcd60e51b81526004016107f590612851565b50600101611508565b50336001600160a01b03167fbd6d81b0cf4294fef8585ccd17470c3b73d95138b513dffac9526511a92b71188989898989896040516020016116ae96959493929190612951565b60408051601f19818403018152908290526116c891612a09565b60405180910390a25050505050505050565b6116e2611c79565b6001600160a01b0381165f908152600a602052604090205460ff16156117565760405162461bcd60e51b815260206004820152602360248201527f456e68616e6365644163636f756e743a20416c7265616479206120677561726460448201526234b0b760e91b60648201526084016107f5565b6001600160a01b0381165f818152600a6020526040808220805460ff1916600190811790915560088054918201815583527ff3f7a9fe364faab93b216da50a3214154f22a0a2b415b23a84c8169e8b636ee30180546001600160a01b03191684179055517f038596bb31e2e7d3d9f184d4c98b310103f6d7f5830e5eec32bffe6f1728f9699190a250565b6117e9611c79565b60405163095ea7b360e01b81526001600160a01b0383811660048301526024820183905284169063095ea7b3906044016020604051808303815f875af1158015611835573d5f803e3d5ffd5b505050506040513d601f19601f820116820180604052508101906118599190612a8f565b50505050565b611867611c79565b60038190556040518181527fea70a31e4e5eb24c9509aa5d26266f5837aaa56d74f4f815ca7f23aaaf296d6a9060200160405180910390a150565b335f908152600b6020908152604080832083805290915281205460ff16801561190c5750335f908152600b6020526040812042918360028111156118e8576118e86126b3565b60028111156118f9576118f96126b3565b81526020019081526020015f2060010154115b6119285760405162461bcd60e51b81526004016107f590612a3b565b8147101561196f5760405162461bcd60e51b8152602060048201526014602482015273496e73756666696369656e742062616c616e636560601b60448201526064016107f5565b6040516001600160a01b0384169083156108fc029084905f818181858888f19350505050158015611859573d5f803e3d5ffd5b335f908152600b60209081526040808320600280855292529091205460ff168015611a0e5750335f908152600b6020526040812042918360028111156119ea576119ea6126b3565b60028111156119fb576119fb6126b3565b81526020019081526020015f2060010154115b611a2a5760405162461bcd60e51b81526004016107f590612a3b565b5f856001600160a01b0316858585604051611a46929190612842565b5f6040518083038185875af1925050503d805f8114611a80576040519150601f19603f3d011682016040523d82523d5f602084013e611a85565b606091505b50509050806110195760405162461bcd60e51b815260206004820152601060248201526f115e1958dd5d1a5bdb8819985a5b195960821b60448201526064016107f5565b611ad1611c79565b6001600160a01b0382165f908152600b6020526040812090826002811115611afb57611afb6126b3565b6002811115611b0c57611b0c6126b3565b8152602081019190915260409081015f908120805460ff1916815560010155516001600160a01b038316907fd3575ea02a180eaf90d5cdc241b627d0113361828dbdf71f6dab4875873201c890611b64908490612aae565b60405180910390a25050565b611b78611c79565b600180546001600160a01b0319166001600160a01b0383169081179091556040517fad80876e08e61c6cf6b575b9c4a7dc63ec6f94d16c486fd520d409f4c1564891905f90a250565b611bc9611c79565b6001600160a01b0381165f81815260066020526040808220805460ff19166001179055517f4f783c179409b4127238bc9c990bc99b9a651666a0d20b51d6c42849eb88466d9190a250565b611c1c611c79565b6001600160a01b038116611c4557604051631e4fbdf760e01b81525f60048201526024016107f5565b611c4e81611ccf565b50565b60088181548110611c60575f80fd5b5f918252602090912001546001600160a01b0316905081565b5f546001600160a01b031633146114435760405163118cdaa760e01b81523360048201526024016107f5565b5f805f80611cb38686611db1565b925092509250611cc38282611dfa565b50909150505b92915050565b611c4e81611eb2565b5f611ce38251611f01565b82604051602001611cf5929190612abc565b604051602081830303815290604052805190602001209050919050565b8015611c4e576040515f90339083908381818185875af1925050503d805f8114611d57576040519150601f19603f3d011682016040523d82523d5f602084013e611d5c565b606091505b5050905080611dad5760405162461bcd60e51b815260206004820152601f60248201527f456e68616e6365644163636f756e743a2050726566756e64206661696c65640060448201526064016107f5565b5050565b5f805f8351604103611de8576020840151604085015160608601515f1a611dda88828585611f90565b955095509550505050611df3565b505081515f91506002905b9250925092565b5f826003811115611e0d57611e0d6126b3565b03611e16575050565b6001826003811115611e2a57611e2a6126b3565b03611e485760405163f645eedf60e01b815260040160405180910390fd5b6002826003811115611e5c57611e5c6126b3565b03611e7d5760405163fce698f760e01b8152600481018290526024016107f5565b6003826003811115611e9157611e916126b3565b03611dad576040516335e2f38360e21b8152600481018290526024016107f5565b5f80546001600160a01b038381166001600160a01b0319831681178455604051919092169283917f8be0079c531659141344cd1fd0a4f28419497f9722a3daafe3b4186f6b6457e09190a35050565b60605f611f0d83612058565b60010190505f816001600160401b03811115611f2b57611f2b612276565b6040519080825280601f01601f191660200182016040528015611f55576020820181803683370190505b5090508181016020015b5f19016f181899199a1a9b1b9c1cb0b131b232b360811b600a86061a8153600a8504945084611f5f57509392505050565b5f80807f7fffffffffffffffffffffffffffffff5d576e7357a4501ddfe92f46681b20a0841115611fc957505f9150600390508261204e565b604080515f808252602082018084528a905260ff891692820192909252606081018790526080810186905260019060a0016020604051602081039080840390855afa15801561201a573d5f803e3d5ffd5b5050604051601f1901519150506001600160a01b03811661204557505f92506001915082905061204e565b92505f91508190505b9450945094915050565b5f8072184f03e93ff9f4daa797ed6e38ed64bf6a1f0160401b83106120965772184f03e93ff9f4daa797ed6e38ed64bf6a1f0160401b830492506040015b6d04ee2d6d415b85acef810000000083106120c2576d04ee2d6d415b85acef8100000000830492506020015b662386f26fc1000083106120e057662386f26fc10000830492506010015b6305f5e10083106120f8576305f5e100830492506008015b612710831061210c57612710830492506004015b6064831061211e576064830492506002015b600a8310611cc95760010192915050565b6001600160a01b0381168114611c4e575f80fd5b803560038110612151575f80fd5b919050565b5f8060408385031215612167575f80fd5b82356121728161212f565b915061218060208401612143565b90509250929050565b5f60208284031215612199575f80fd5b8135610d758161212f565b5f805f606084860312156121b6575f80fd5b83356121c18161212f565b92506121cf60208501612143565b9150604084013590509250925092565b5f8083601f8401126121ef575f80fd5b5081356001600160401b03811115612205575f80fd5b6020830191508360208260051b850101111561221f575f80fd5b9250929050565b5f805f60408486031215612238575f80fd5b83356122438161212f565b925060208401356001600160401b0381111561225d575f80fd5b612269868287016121df565b9497909650939450505050565b634e487b7160e01b5f52604160045260245ffd5b5f82601f830112612299575f80fd5b81356001600160401b03808211156122b3576122b3612276565b604051601f8301601f19908116603f011681019082821181831017156122db576122db612276565b816040528381528660208588010111156122f3575f80fd5b836020870160208301375f602085830101528094505050505092915050565b5f805f805f805f8060a0898b031215612329575f80fd5b88356001600160401b038082111561233f575f80fd5b61234b8c838d016121df565b909a50985060208b0135915080821115612363575f80fd5b61236f8c838d016121df565b909850965060408b0135915080821115612387575f80fd5b6123938c838d016121df565b909650945060608b0135935060808b01359150808211156123b2575f80fd5b506123bf8b828c0161228a565b9150509295985092959890939650565b5f805f606084860312156123e1575f80fd5b83356001600160401b038111156123f6575f80fd5b84016101208187031215612408575f80fd5b95602085013595506040909401359392505050565b5f8083601f84011261242d575f80fd5b5081356001600160401b03811115612443575f80fd5b60208301915083602082850101111561221f575f80fd5b5f805f805f8060a0878903121561246f575f80fd5b863561247a8161212f565b95506020870135945060408701356001600160401b038082111561249c575f80fd5b6124a88a838b0161241d565b90965094506060890135935060808901359150808211156124c7575f80fd5b506124d489828a0161228a565b9150509295509295509295565b5f80604083850312156124f2575f80fd5b8235915060208301356001600160401b0381111561250e575f80fd5b61251a8582860161228a565b9150509250929050565b5f805f805f8060608789031215612539575f80fd5b86356001600160401b038082111561254f575f80fd5b61255b8a838b016121df565b90985096506020890135915080821115612573575f80fd5b61257f8a838b016121df565b90965094506040890135915080821115612597575f80fd5b506125a489828a016121df565b979a9699509497509295939492505050565b5f805f80606085870312156125c9575f80fd5b84356125d48161212f565b93506020850135925060408501356001600160401b038111156125f5575f80fd5b6126018782880161241d565b95989497509550505050565b5f6020828403121561261d575f80fd5b5035919050565b5f805f60608486031215612636575f80fd5b83356126418161212f565b925060208401356126518161212f565b929592945050506040919091013590565b5f8060408385031215612673575f80fd5b823561267e8161212f565b946020939093013593505050565b634e487b7160e01b5f52601160045260245ffd5b80820180821115611cc957611cc961268c565b634e487b7160e01b5f52602160045260245ffd5b600381106126e357634e487b7160e01b5f52602160045260245ffd5b9052565b604081016126f582856126c7565b8260208301529392505050565b634e487b7160e01b5f52603260045260245ffd5b5f808335601e1984360301811261272b575f80fd5b8301803591506001600160401b03821115612744575f80fd5b60200191503681900382131561221f575f80fd5b5f600182016127695761276961268c565b5060010190565b60208082526021908201527f456e68616e6365644163636f756e743a204f545020616c7265616479207573656040820152601960fa1b606082015260800190565b6020808252602c908201527f456e68616e6365644163636f756e743a20496e76616c6964207365636f6e646160408201526b7279207369676e617475726560a01b606082015260800190565b60208082526025908201527f456e68616e6365644163636f756e743a20496e73756666696369656e742062616040820152646c616e636560d81b606082015260800190565b818382375f9101908152919050565b60208082526027908201527f456e68616e6365644163636f756e743a204261746368206f7065726174696f6e6040820152660819985a5b195960ca1b606082015260800190565b81835281816020850137505f828201602090810191909152601f909101601f19169091010190565b5f838385526020808601955060208560051b830101845f5b8781101561294457848303601f19018952813536889003601e190181126128fd575f80fd5b870184810190356001600160401b03811115612917575f80fd5b803603821315612925575f80fd5b612930858284612898565b9a86019a94505050908301906001016128d8565b5090979650505050505050565b606080825281018690525f8760808301825b898110156129935782356129768161212f565b6001600160a01b0316825260209283019290910190600101612963565b5083810360208501528681526001600160fb1b038711156129b2575f80fd5b8660051b91508188602083013701828103602090810160408501526129da90820185876128c0565b9998505050505050505050565b5f5b83811015612a015781810151838201526020016129e9565b50505f910152565b602081525f8251806020840152612a278160408501602087016129e7565b601f01601f19169190910160400192915050565b6020808252601390820152722737903b30b634b2103832b936b4b9b9b4b7b760691b604082015260600190565b81810381811115611cc957611cc961268c565b634e487b7160e01b5f52603160045260245ffd5b5f60208284031215612a9f575f80fd5b81518015158114610d75575f80fd5b60208101611cc982846126c7565b7f19457468657265756d205369676e6564204d6573736167653a0a00000000000081525f8351612af381601a8501602088016129e7565b835190830190612b0a81601a8401602088016129e7565b01601a0194935050505056fea26469706673582212206f46565a3b7dbd1009224e8643dbfe8acb174e7383747ee373b18e76cc7742b664736f6c63430008180033","linkReferences":{}},"methodIdentifiers":{"addGuardian(address)":"a526d83b","addToBlacklist(address)":"44337ea1","addToWhitelist(address)":"e43252d7","approveERC20(address,address,uint256)":"a8e5e4aa","blacklist(address)":"f9f92be4","dailyLimit()":"67eeba0c","dailySpent()":"0bc6b89c","executeBatch(address[],uint256[],bytes[])":"47e1da2a","executeBatchWithMFAAndTransient(address[],uint256[],bytes[],bytes32,bytes)":"170e8ea9","executeBatchWithTransient(address[],uint256[],bytes[])":"86ddbfdc","executeWithLimitTransient(address,uint256,bytes)":"61f60361","executeWithMFA(address,uint256,bytes,bytes32,bytes)":"2c720484","executeWithPermission(address,uint256,bytes)":"cff82d07","getEntryPoint()":"44ab613f","grantPermission(address,uint8,uint256)":"0c82c416","guardians(uint256)":"f560c734","isGuardian(address)":"0c68ba21","lastSpendReset()":"cd73389d","owner()":"8da5cb5b","permissions(address,uint8)":"0a108d5e","recoveryThreshold()":"1c8123d6","removeGuardian(address)":"71404156","renounceOwnership()":"715018a6","revokePermission(address,uint8)":"dd8a8a05","secondaryKey()":"0b0bdaac","sendFundsWithPermission(address,uint256)":"c3c59e6d","setDailyLimit(uint256)":"b20d30a9","setSecondaryKey(address)":"e3c7bd1d","signMessageWithPermission(bytes32,bytes)":"377a6098","transferOwnership(address)":"f2fde38b","triggerRecovery(address,bytes[])":"142a2431","usedOtps(bytes32)":"6c118c74","validateUserOp((address,uint256,bytes,bytes,bytes32,uint256,bytes32,bytes,bytes),bytes32,uint256)":"19822f7c","whitelist(address)":"9b19251a"},"id":48}