{"abi":[{"type":"constructor","inputs":[{"name":"initialOwner","type":"address","internalType":"address"},{"name":"entryPoint","type":"address","internalType":"contract IEntryPoint"}],"stateMutability":"nonpayable"},{"type":"receive","stateMutability":"payable"},{"type":"function","name":"addGuardian","inputs":[{"name":"guardian","type":"address","internalType":"address"}],"outputs":[],"stateMutability":"nonpayable"},{"type":"function","name":"addToBlacklist","inputs":[{"name":"addr","type":"address","internalType":"address"}],"outputs":[],"stateMutability":"nonpayable"},{"type":"function","name":"addToWhitelist","inputs":[{"name":"addr","type":"address","internalType":"address"}],"outputs":[],"stateMutability":"nonpayable"},{"type":"function","name":"approveERC20","inputs":[{"name":"token","type":"address","internalType":"address"},{"name":"spender","type":"address","internalType":"address"},{"name":"amount","type":"uint256","internalType":"uint256"}],"outputs":[],"stateMutability":"nonpayable"},{"type":"function","name":"blacklist","inputs":[{"name":"","type":"address","internalType":"address"}],"outputs":[{"name":"","type":"bool","internalType":"bool"}],"stateMutability":"view"},{"type":"function","name":"dailyLimit","inputs":[],"outputs":[{"name":"","type":"uint256","internalType":"uint256"}],"stateMutability":"view"},{"type":"function","name":"dailySpent","inputs":[],"outputs":[{"name":"","type":"uint256","internalType":"uint256"}],"stateMutability":"view"},{"type":"function","name":"executeBatch","inputs":[{"name":"dests","type":"address[]","internalType":"address[]"},{"name":"values","type":"uint256[]","internalType":"uint256[]"},{"name":"data","type":"bytes[]","internalType":"bytes[]"}],"outputs":[],"stateMutability":"nonpayable"},{"type":"function","name":"executeBatchWithTransient","inputs":[{"name":"dests","type":"address[]","internalType":"address[]"},{"name":"values","type":"uint256[]","internalType":"uint256[]"},{"name":"data","type":"bytes[]","internalType":"bytes[]"}],"outputs":[],"stateMutability":"nonpayable"},{"type":"function","name":"executeWithLimitTransient","inputs":[{"name":"dest","type":"address","internalType":"address"},{"name":"value","type":"uint256","internalType":"uint256"},{"name":"data","type":"bytes","internalType":"bytes"}],"outputs":[],"stateMutability":"nonpayable"},{"type":"function","name":"executeWithMFA","inputs":[{"name":"dest","type":"address","internalType":"address"},{"name":"value","type":"uint256","internalType":"uint256"},{"name":"data","type":"bytes","internalType":"bytes"},{"name":"otp","type":"bytes32","internalType":"bytes32"},{"name":"secondarySignature","type":"bytes","internalType":"bytes"}],"outputs":[],"stateMutability":"nonpayable"},{"type":"function","name":"executeWithPermission","inputs":[{"name":"dest","type":"address","internalType":"address"},{"name":"value","type":"uint256","internalType":"uint256"},{"name":"data","type":"bytes","internalType":"bytes"}],"outputs":[],"stateMutability":"nonpayable"},{"type":"function","name":"getEntryPoint","inputs":[],"outputs":[{"name":"","type":"address","internalType":"address"}],"stateMutability":"view"},{"type":"function","name":"grantPermission","inputs":[{"name":"account","type":"address","internalType":"address"},{"name":"permission","type":"uint8","internalType":"enum EnhancedAccount.PermissionType"},{"name":"duration","type":"uint256","internalType":"uint256"}],"outputs":[],"stateMutability":"nonpayable"},{"type":"function","name":"guardians","inputs":[{"name":"","type":"uint256","internalType":"uint256"}],"outputs":[{"name":"","type":"address","internalType":"address"}],"stateMutability":"view"},{"type":"function","name":"isGuardian","inputs":[{"name":"","type":"address","internalType":"address"}],"outputs":[{"name":"","type":"bool","internalType":"bool"}],"stateMutability":"view"},{"type":"function","name":"lastSpendReset","inputs":[],"outputs":[{"name":"","type":"uint256","internalType":"uint256"}],"stateMutability":"view"},{"type":"function","name":"owner","inputs":[],"outputs":[{"name":"","type":"address","internalType":"address"}],"stateMutability":"view"},{"type":"function","name":"permissions","inputs":[{"name":"","type":"address","internalType":"address"},{"name":"","type":"uint8","internalType":"enum EnhancedAccount.PermissionType"}],"outputs":[{"name":"granted","type":"bool","internalType":"bool"},{"name":"expiresAt","type":"uint256","internalType":"uint256"}],"stateMutability":"view"},{"type":"function","name":"recoveryThreshold","inputs":[],"outputs":[{"name":"","type":"uint256","internalType":"uint256"}],"stateMutability":"view"},{"type":"function","name":"removeGuardian","inputs":[{"name":"guardian","type":"address","internalType":"address"}],"outputs":[],"stateMutability":"nonpayable"},{"type":"function","name":"renounceOwnership","inputs":[],"outputs":[],"stateMutability":"nonpayable"},{"type":"function","name":"revokePermission","inputs":[{"name":"account","type":"address","internalType":"address"},{"name":"permission","type":"uint8","internalType":"enum EnhancedAccount.PermissionType"}],"outputs":[],"stateMutability":"nonpayable"},{"type":"function","name":"secondaryKey","inputs":[],"outputs":[{"name":"","type":"address","internalType":"address"}],"stateMutability":"view"},{"type":"function","name":"sendFundsWithPermission","inputs":[{"name":"to","type":"address","internalType":"address payable"},{"name":"amount","type":"uint256","internalType":"uint256"}],"outputs":[],"stateMutability":"nonpayable"},{"type":"function","name":"setDailyLimit","inputs":[{"name":"limit","type":"uint256","internalType":"uint256"}],"outputs":[],"stateMutability":"nonpayable"},{"type":"function","name":"setSecondaryKey","inputs":[{"name":"newKey","type":"address","internalType":"address"}],"outputs":[],"stateMutability":"nonpayable"},{"type":"function","name":"signMessageWithPermission","inputs":[{"name":"hash","type":"bytes32","internalType":"bytes32"},{"name":"signature","type":"bytes","internalType":"bytes"}],"outputs":[{"name":"","type":"bool","internalType":"bool"}],"stateMutability":"view"},{"type":"function","name":"transferOwnership","inputs":[{"name":"newOwner","type":"address","internalType":"address"}],"outputs":[],"stateMutability":"nonpayable"},{"type":"function","name":"triggerRecovery","inputs":[{"name":"newOwner","type":"address","internalType":"address"},{"name":"guardianSignatures","type":"bytes[]","internalType":"bytes[]"}],"outputs":[],"stateMutability":"nonpayable"},{"type":"function","name":"usedOtps","inputs":[{"name":"","type":"bytes32","internalType":"bytes32"}],"outputs":[{"name":"","type":"bool","internalType":"bool"}],"stateMutability":"view"},{"type":"function","name":"validateUserOp","inputs":[{"name":"userOp","type":"tuple","internalType":"struct PackedUserOperation","components":[{"name":"sender","type":"address","internalType":"address"},{"name":"nonce","type":"uint256","internalType":"uint256"},{"name":"initCode","type":"bytes","internalType":"bytes"},{"name":"callData","type":"bytes","internalType":"bytes"},{"name":"accountGasLimits","type":"bytes32","internalType":"bytes32"},{"name":"preVerificationGas","type":"uint256","internalType":"uint256"},{"name":"gasFees","type":"bytes32","internalType":"bytes32"},{"name":"paymasterAndData","type":"bytes","internalType":"bytes"},{"name":"signature","type":"bytes","internalType":"bytes"}]},{"name":"userOpHash","type":"bytes32","internalType":"bytes32"},{"name":"missingAccountFunds","type":"uint256","internalType":"uint256"}],"outputs":[{"name":"validationData","type":"uint256","internalType":"uint256"}],"stateMutability":"nonpayable"},{"type":"function","name":"whitelist","inputs":[{"name":"","type":"address","internalType":"address"}],"outputs":[{"name":"","type":"bool","internalType":"bool"}],"stateMutability":"view"},{"type":"event","name":"AddressBlacklisted","inputs":[{"name":"addr","type":"address","indexed":true,"internalType":"address"}],"anonymous":false},{"type":"event","name":"AddressWhitelisted","inputs":[{"name":"addr","type":"address","indexed":true,"internalType":"address"}],"anonymous":false},{"type":"event","name":"BatchApproved","inputs":[{"name":"operator","type":"address","indexed":true,"internalType":"address"},{"name":"data","type":"bytes","indexed":false,"internalType":"bytes"}],"anonymous":false},{"type":"event","name":"BatchOperationResult","inputs":[{"name":"index","type":"uint256","indexed":false,"internalType":"uint256"},{"name":"dest","type":"address","indexed":false,"internalType":"address"},{"name":"success","type":"bool","indexed":false,"internalType":"bool"}],"anonymous":false},{"type":"event","name":"DailyLimitSet","inputs":[{"name":"newLimit","type":"uint256","indexed":false,"internalType":"uint256"}],"anonymous":false},{"type":"event","name":"GuardianAdded","inputs":[{"name":"guardian","type":"address","indexed":true,"internalType":"address"}],"anonymous":false},{"type":"event","name":"GuardianRemoved","inputs":[{"name":"guardian","type":"address","indexed":true,"internalType":"address"}],"anonymous":false},{"type":"event","name":"OTPUsed","inputs":[{"name":"otp","type":"bytes32","indexed":true,"internalType":"bytes32"}],"anonymous":false},{"type":"event","name":"OwnershipTransferred","inputs":[{"name":"previousOwner","type":"address","indexed":true,"internalType":"address"},{"name":"newOwner","type":"address","indexed":true,"internalType":"address"}],"anonymous":false},{"type":"event","name":"PermissionGranted","inputs":[{"name":"account","type":"address","indexed":true,"internalType":"address"},{"name":"permission","type":"uint8","indexed":false,"internalType":"enum EnhancedAccount.PermissionType"},{"name":"expiresAt","type":"uint256","indexed":false,"internalType":"uint256"}],"anonymous":false},{"type":"event","name":"PermissionRevoked","inputs":[{"name":"account","type":"address","indexed":true,"internalType":"address"},{"name":"permission","type":"uint8","indexed":false,"internalType":"enum EnhancedAccount.PermissionType"}],"anonymous":false},{"type":"event","name":"RecoveryTriggered","inputs":[{"name":"newOwner","type":"address","indexed":true,"internalType":"address"}],"anonymous":false},{"type":"event","name":"SecondaryKeySet","inputs":[{"name":"newKey","type":"address","indexed":true,"internalType":"address"}],"anonymous":false},{"type":"event","name":"TransactionExecuted","inputs":[{"name":"dest","type":"address","indexed":true,"internalType":"address"},{"name":"value","type":"uint256","indexed":false,"internalType":"uint256"},{"name":"success","type":"bool","indexed":false,"internalType":"bool"}],"anonymous":false},{"type":"error","name":"ECDSAInvalidSignature","inputs":[]},{"type":"error","name":"ECDSAInvalidSignatureLength","inputs":[{"name":"length","type":"uint256","internalType":"uint256"}]},{"type":"error","name":"ECDSAInvalidSignatureS","inputs":[{"name":"s","type":"bytes32","internalType":"bytes32"}]},{"type":"error","name":"OwnableInvalidOwner","inputs":[{"name":"owner","type":"address","internalType":"address"}]},{"type":"error","name":"OwnableUnauthorizedAccount","inputs":[{"name":"account","type":"address","internalType":"address"}]}],"bytecode":{"object":"0x60a060405234801562000010575f80fd5b50604051620028a8380380620028a883398101604081905262000033916200015b565b816001600160a01b0381166200006357604051631e4fbdf760e01b81525f60048201526024015b60405180910390fd5b6200006e81620000e9565b506001600160a01b038216620000d65760405162461bcd60e51b815260206004820152602660248201527f456e68616e6365644163636f756e743a20496e76616c6964206f776e6572206160448201526564647265737360d01b60648201526084016200005a565b6001600160a01b03166080525062000198565b620000f481620000f7565b50565b5f80546001600160a01b038381166001600160a01b0319831681178455604051919092169283917f8be0079c531659141344cd1fd0a4f28419497f9722a3daafe3b4186f6b6457e09190a35050565b6001600160a01b0381168114620000f4575f80fd5b5f80604083850312156200016d575f80fd5b82516200017a8162000146565b60208401519092506200018d8162000146565b809150509250929050565b6080516126f7620001b15f395f6103ca01526126f75ff3fe6080604052600436106101e9575f3560e01c80637140415611610108578063c3c59e6d1161009d578063e3c7bd1d1161006d578063e3c7bd1d146105da578063e43252d7146105f9578063f2fde38b14610618578063f560c73414610637578063f9f92be414610656575f80fd5b8063c3c59e6d14610568578063cd73389d14610587578063cff82d071461059c578063dd8a8a05146105bb575f80fd5b80639b19251a116100d85780639b19251a146104dd578063a526d83b1461050b578063a8e5e4aa1461052a578063b20d30a914610549575f80fd5b8063714041561461046f578063715018a61461048e57806386ddbfdc146104a25780638da5cb5b146104c1575f80fd5b80632c7204841161017e57806347e1da2a1161014e57806347e1da2a146103ee57806361f603611461040d57806367eeba0c1461042c5780636c118c7414610441575f80fd5b80632c7204841461035f578063377a60981461037e57806344337ea11461039d57806344ab613f146103bc575f80fd5b80630c82c416116101b95780630c82c416146102eb578063142a24311461030c57806319822f7c1461032b5780631c8123d61461034a575f80fd5b80630a108d5e146101f45780630b0bdaac146102535780630bc6b89c1461028a5780630c68ba21146102ad575f80fd5b366101f057005b5f80fd5b3480156101ff575f80fd5b5061023761020e366004611ecc565b600b60209081525f92835260408084209091529082529020805460019091015460ff9091169082565b6040805192151583526020830191909152015b60405180910390f35b34801561025e575f80fd5b50600154610272906001600160a01b031681565b6040516001600160a01b03909116815260200161024a565b348015610295575f80fd5b5061029f60045481565b60405190815260200161024a565b3480156102b8575f80fd5b506102db6102c7366004611eff565b600a6020525f908152604090205460ff1681565b604051901515815260200161024a565b3480156102f6575f80fd5b5061030a610305366004611f1a565b610684565b005b348015610317575f80fd5b5061030a610326366004611f9d565b61076f565b348015610336575f80fd5b5061029f610345366004611fee565b610999565b348015610355575f80fd5b5061029f60095481565b34801561036a575f80fd5b5061030a610379366004612118565b6109e0565b348015610389575f80fd5b506102db6103983660046121a0565b610c07565b3480156103a8575f80fd5b5061030a6103b7366004611eff565b610cb5565b3480156103c7575f80fd5b507f0000000000000000000000000000000000000000000000000000000000000000610272565b3480156103f9575f80fd5b5061030a6104083660046121e4565b610d08565b348015610418575f80fd5b5061030a610427366004612277565b610d18565b348015610437575f80fd5b5061029f60035481565b34801561044c575f80fd5b506102db61045b3660046122cf565b60026020525f908152604090205460ff1681565b34801561047a575f80fd5b5061030a610489366004611eff565b610f6f565b348015610499575f80fd5b5061030a611129565b3480156104ad575f80fd5b5061030a6104bc3660046121e4565b61113c565b3480156104cc575f80fd5b505f546001600160a01b0316610272565b3480156104e8575f80fd5b506102db6104f7366004611eff565b60066020525f908152604090205460ff1681565b348015610516575f80fd5b5061030a610525366004611eff565b61144f565b348015610535575f80fd5b5061030a6105443660046122e6565b611556565b348015610554575f80fd5b5061030a6105633660046122cf565b6115d4565b348015610573575f80fd5b5061030a610582366004612324565b611617565b348015610592575f80fd5b5061029f60055481565b3480156105a7575f80fd5b5061030a6105b6366004612277565b611717565b3480156105c6575f80fd5b5061030a6105d5366004611ecc565b61183e565b3480156105e5575f80fd5b5061030a6105f4366004611eff565b6118e5565b348015610604575f80fd5b5061030a610613366004611eff565b611936565b348015610623575f80fd5b5061030a610632366004611eff565b611989565b348015610642575f80fd5b506102726106513660046122cf565b6119c6565b348015610661575f80fd5b506102db610670366004611eff565b60076020525f908152604090205460ff1681565b61068c6119ee565b5f80821161069b575f196106a5565b6106a58242612362565b6040805180820182526001815260208082018490526001600160a01b0388165f908152600b90915291822092935091908560028111156106e7576106e7612375565b60028111156106f8576106f8612375565b815260208082019290925260409081015f208351815460ff19169015151781559290910151600190920191909155516001600160a01b038516907f746b11363f3105ab2a834e8255af72ce86e5a5a1bbb2923341ee04851263bd2d9061076190869085906123a9565b60405180910390a250505050565b6009548110156107d45760405162461bcd60e51b815260206004820152602560248201527f456e68616e6365644163636f756e743a204e6f7420656e6f75676820617070726044820152646f76616c7360d81b60648201526084015b60405180910390fd5b6040516bffffffffffffffffffffffff19606085811b8216602084015230901b1660348201525f906048016040516020818303038152906040528051906020012090505f61084e827f19457468657265756d205369676e6564204d6573736167653a0a3332000000005f908152601c91909152603c902090565b90505f805b848110156108f7575f6108bd84888885818110610872576108726123c4565b905060200281019061088491906123d8565b8080601f0160208091040260200160405190810160405280939291908181526020018383808284375f92019190915250611a1a92505050565b6001600160a01b0381165f908152600a602052604090205490915060ff16156108ee57826108ea8161241b565b9350505b50600101610853565b506009548110156109555760405162461bcd60e51b815260206004820152602260248201527f456e68616e6365644163636f756e743a20496e76616c696420617070726f76616044820152616c7360f01b60648201526084016107cb565b61095e86611a44565b6040516001600160a01b038716907f4e45ce20b541734cacacd85093c8944b3d3560e9c9d5cf333a51d70375c1f6ba905f90a2505050505050565b5f80546001600160a01b03166109b7846108846101008801886123d8565b6001600160a01b0316146109cd575060016109d9565b6109d682611a4d565b505f5b9392505050565b6109e86119ee565b5f8281526002602052604090205460ff1615610a505760405162461bcd60e51b815260206004820152602160248201527f456e68616e6365644163636f756e743a204f545020616c7265616479207573656044820152601960fa1b60648201526084016107cb565b5f828152600260209081526040808320805460ff1916600117905551610a9491610a809186910190815260200190565b604051602081830303815290604052611aec565b90505f610aa18284611a1a565b6001549091506001600160a01b03808316911614610b165760405162461bcd60e51b815260206004820152602c60248201527f456e68616e6365644163636f756e743a20496e76616c6964207365636f6e646160448201526b7279207369676e617475726560a01b60648201526084016107cb565b5f886001600160a01b0316888888604051610b32929190612433565b5f6040518083038185875af1925050503d805f8114610b6c576040519150601f19603f3d011682016040523d82523d5f602084013e610b71565b606091505b5050905080610bd25760405162461bcd60e51b815260206004820152602760248201527f456e68616e6365644163636f756e743a204d4641207472616e73616374696f6e6044820152660819985a5b195960ca1b60648201526084016107cb565b60405185907fb6adfc3ed84cdb84695dac48371389711c3d82bcafc30b3381d239b69819c1d9905f90a2505050505050505050565b335f908152600b602090815260408083206001808552925282205460ff168015610c725750335f908152600b602052604081204291836002811115610c4e57610c4e612375565b6002811115610c5f57610c5f612375565b81526020019081526020015f2060010154115b610c8e5760405162461bcd60e51b81526004016107cb90612442565b5f546001600160a01b0316610ca38585611a1a565b6001600160a01b031614949350505050565b610cbd6119ee565b6001600160a01b0381165f81815260076020526040808220805460ff19166001179055517fdaf49ab9345b6cb75bcb5a7f726bff9183c34dcf5c098c385730f9fd893765f69190a250565b610d106119ee565b505050505050565b610d206119ee565b60015c60025c610d338162015180612362565b421115610d4057505f9050425b6001600160a01b0386165f9081526007602052604090205460ff1615610db85760405162461bcd60e51b815260206004820152602760248201527f456e68616e6365644163636f756e743a204164647265737320697320626c61636044820152661adb1a5cdd195960ca1b60648201526084016107cb565b6001600160a01b0386165f9081526006602052604090205460ff16610e3e57600354610de48684612362565b1115610e3e5760405162461bcd60e51b8152602060048201526024808201527f456e68616e6365644163636f756e743a2045786365656473206461696c79206c6044820152631a5b5a5d60e21b60648201526084016107cb565b610e488583612362565b91505f866001600160a01b0316868686604051610e66929190612433565b5f6040518083038185875af1925050503d805f8114610ea0576040519150601f19603f3d011682016040523d82523d5f602084013e610ea5565b606091505b50506040805188815282151560208201529192506001600160a01b038916917ffb04f5456ba4dadf3b50c2335860f8832b49b85d0f6c23a86c79d640d6ea3c5e910160405180910390a280610f575760405162461bcd60e51b815260206004820152603260248201527f456e68616e6365644163636f756e743a205370656e64696e67206c696d6974206044820152711d1c985b9cd858dd1a5bdb8819985a5b195960721b60648201526084016107cb565b8260015d8160025d5060049190915560055550505050565b610f776119ee565b6001600160a01b0381165f908152600a602052604090205460ff16610fde5760405162461bcd60e51b815260206004820152601f60248201527f456e68616e6365644163636f756e743a204e6f74206120677561726469616e0060448201526064016107cb565b6001600160a01b0381165f908152600a60205260408120805460ff191690555b6008548110156110f257816001600160a01b031660088281548110611025576110256123c4565b5f918252602090912001546001600160a01b0316036110ea576008805461104e9060019061246f565b8154811061105e5761105e6123c4565b5f91825260209091200154600880546001600160a01b039092169183908110611089576110896123c4565b905f5260205f20015f6101000a8154816001600160a01b0302191690836001600160a01b0316021790555060088054806110c5576110c5612482565b5f8281526020902081015f1990810180546001600160a01b03191690550190556110f2565b600101610ffe565b506040516001600160a01b038216907fb8107d0c6b40be480ce3172ee66ba6d64b71f6b1685a851340036e6e2e3e3c52905f90a250565b6111316119ee565b61113a5f611a44565b565b6111446119ee565b848314801561115257508481145b61119e5760405162461bcd60e51b815260206004820181905260248201527f456e68616e6365644163636f756e743a204c656e677468206d69736d6174636860448201526064016107cb565b5f805b848110156111d7578585828181106111bb576111bb6123c4565b90506020020135826111cd9190612362565b91506001016111a1565b50805f5d5f5c4781111561123b5760405162461bcd60e51b815260206004820152602560248201527f456e68616e6365644163636f756e743a20496e73756666696369656e742062616044820152646c616e636560d81b60648201526084016107cb565b5f5b878110156113dc575f898983818110611258576112586123c4565b905060200201602081019061126d9190611eff565b6001600160a01b0316888884818110611288576112886123c4565b905060200201358787858181106112a1576112a16123c4565b90506020028101906112b391906123d8565b6040516112c1929190612433565b5f6040518083038185875af1925050503d805f81146112fb576040519150601f19603f3d011682016040523d82523d5f602084013e611300565b606091505b505090507f2a8fb2944ab820a1e4aa0019d2b2ec2a0ea06bd3a0f4b6038834865ba8b00e23828b8b85818110611338576113386123c4565b905060200201602081019061134d9190611eff565b604080519283526001600160a01b0390911660208301528315159082015260600160405180910390a1806113d35760405162461bcd60e51b815260206004820152602760248201527f456e68616e6365644163636f756e743a204261746368206f7065726174696f6e6044820152660819985a5b195960ca1b60648201526084016107cb565b5060010161123d565b50336001600160a01b03167fbd6d81b0cf4294fef8585ccd17470c3b73d95138b513dffac9526511a92b711889898989898960405160200161142396959493929190612550565b60408051601f198184030181529082905261143d91612608565b60405180910390a25050505050505050565b6114576119ee565b6001600160a01b0381165f908152600a602052604090205460ff16156114cb5760405162461bcd60e51b815260206004820152602360248201527f456e68616e6365644163636f756e743a20416c7265616479206120677561726460448201526234b0b760e91b60648201526084016107cb565b6001600160a01b0381165f818152600a6020526040808220805460ff1916600190811790915560088054918201815583527ff3f7a9fe364faab93b216da50a3214154f22a0a2b415b23a84c8169e8b636ee30180546001600160a01b03191684179055517f038596bb31e2e7d3d9f184d4c98b310103f6d7f5830e5eec32bffe6f1728f9699190a250565b61155e6119ee565b60405163095ea7b360e01b81526001600160a01b0383811660048301526024820183905284169063095ea7b3906044016020604051808303815f875af11580156115aa573d5f803e3d5ffd5b505050506040513d601f19601f820116820180604052508101906115ce919061263a565b50505050565b6115dc6119ee565b60038190556040518181527fea70a31e4e5eb24c9509aa5d26266f5837aaa56d74f4f815ca7f23aaaf296d6a9060200160405180910390a150565b335f908152600b6020908152604080832083805290915281205460ff1680156116815750335f908152600b60205260408120429183600281111561165d5761165d612375565b600281111561166e5761166e612375565b81526020019081526020015f2060010154115b61169d5760405162461bcd60e51b81526004016107cb90612442565b814710156116e45760405162461bcd60e51b8152602060048201526014602482015273496e73756666696369656e742062616c616e636560601b60448201526064016107cb565b6040516001600160a01b0384169083156108fc029084905f818181858888f193505050501580156115ce573d5f803e3d5ffd5b335f908152600b60209081526040808320600280855292529091205460ff1680156117835750335f908152600b60205260408120429183600281111561175f5761175f612375565b600281111561177057611770612375565b81526020019081526020015f2060010154115b61179f5760405162461bcd60e51b81526004016107cb90612442565b5f856001600160a01b03168585856040516117bb929190612433565b5f6040518083038185875af1925050503d805f81146117f5576040519150601f19603f3d011682016040523d82523d5f602084013e6117fa565b606091505b5050905080610d105760405162461bcd60e51b815260206004820152601060248201526f115e1958dd5d1a5bdb8819985a5b195960821b60448201526064016107cb565b6118466119ee565b6001600160a01b0382165f908152600b602052604081209082600281111561187057611870612375565b600281111561188157611881612375565b8152602081019190915260409081015f908120805460ff1916815560010155516001600160a01b038316907fd3575ea02a180eaf90d5cdc241b627d0113361828dbdf71f6dab4875873201c8906118d9908490612659565b60405180910390a25050565b6118ed6119ee565b600180546001600160a01b0319166001600160a01b0383169081179091556040517fad80876e08e61c6cf6b575b9c4a7dc63ec6f94d16c486fd520d409f4c1564891905f90a250565b61193e6119ee565b6001600160a01b0381165f81815260066020526040808220805460ff19166001179055517f4f783c179409b4127238bc9c990bc99b9a651666a0d20b51d6c42849eb88466d9190a250565b6119916119ee565b6001600160a01b0381166119ba57604051631e4fbdf760e01b81525f60048201526024016107cb565b6119c381611a44565b50565b600881815481106119d5575f80fd5b5f918252602090912001546001600160a01b0316905081565b5f546001600160a01b0316331461113a5760405163118cdaa760e01b81523360048201526024016107cb565b5f805f80611a288686611b26565b925092509250611a388282611b6f565b50909150505b92915050565b6119c381611c27565b80156119c3576040515f90339083908381818185875af1925050503d805f8114611a92576040519150601f19603f3d011682016040523d82523d5f602084013e611a97565b606091505b5050905080611ae85760405162461bcd60e51b815260206004820152601f60248201527f456e68616e6365644163636f756e743a2050726566756e64206661696c65640060448201526064016107cb565b5050565b5f611af78251611c76565b82604051602001611b09929190612667565b604051602081830303815290604052805190602001209050919050565b5f805f8351604103611b5d576020840151604085015160608601515f1a611b4f88828585611d06565b955095509550505050611b68565b505081515f91506002905b9250925092565b5f826003811115611b8257611b82612375565b03611b8b575050565b6001826003811115611b9f57611b9f612375565b03611bbd5760405163f645eedf60e01b815260040160405180910390fd5b6002826003811115611bd157611bd1612375565b03611bf25760405163fce698f760e01b8152600481018290526024016107cb565b6003826003811115611c0657611c06612375565b03611ae8576040516335e2f38360e21b8152600481018290526024016107cb565b5f80546001600160a01b038381166001600160a01b0319831681178455604051919092169283917f8be0079c531659141344cd1fd0a4f28419497f9722a3daafe3b4186f6b6457e09190a35050565b60605f611c8283611dce565b60010190505f8167ffffffffffffffff811115611ca157611ca161207b565b6040519080825280601f01601f191660200182016040528015611ccb576020820181803683370190505b5090508181016020015b5f19016f181899199a1a9b1b9c1cb0b131b232b360811b600a86061a8153600a8504945084611cd557509392505050565b5f80807f7fffffffffffffffffffffffffffffff5d576e7357a4501ddfe92f46681b20a0841115611d3f57505f91506003905082611dc4565b604080515f808252602082018084528a905260ff891692820192909252606081018790526080810186905260019060a0016020604051602081039080840390855afa158015611d90573d5f803e3d5ffd5b5050604051601f1901519150506001600160a01b038116611dbb57505f925060019150829050611dc4565b92505f91508190505b9450945094915050565b5f8072184f03e93ff9f4daa797ed6e38ed64bf6a1f0160401b8310611e0c5772184f03e93ff9f4daa797ed6e38ed64bf6a1f0160401b830492506040015b6d04ee2d6d415b85acef81000000008310611e38576d04ee2d6d415b85acef8100000000830492506020015b662386f26fc100008310611e5657662386f26fc10000830492506010015b6305f5e1008310611e6e576305f5e100830492506008015b6127108310611e8257612710830492506004015b60648310611e94576064830492506002015b600a8310611a3e5760010192915050565b6001600160a01b03811681146119c3575f80fd5b803560038110611ec7575f80fd5b919050565b5f8060408385031215611edd575f80fd5b8235611ee881611ea5565b9150611ef660208401611eb9565b90509250929050565b5f60208284031215611f0f575f80fd5b81356109d981611ea5565b5f805f60608486031215611f2c575f80fd5b8335611f3781611ea5565b9250611f4560208501611eb9565b9150604084013590509250925092565b5f8083601f840112611f65575f80fd5b50813567ffffffffffffffff811115611f7c575f80fd5b6020830191508360208260051b8501011115611f96575f80fd5b9250929050565b5f805f60408486031215611faf575f80fd5b8335611fba81611ea5565b9250602084013567ffffffffffffffff811115611fd5575f80fd5b611fe186828701611f55565b9497909650939450505050565b5f805f60608486031215612000575f80fd5b833567ffffffffffffffff811115612016575f80fd5b84016101208187031215612028575f80fd5b95602085013595506040909401359392505050565b5f8083601f84011261204d575f80fd5b50813567ffffffffffffffff811115612064575f80fd5b602083019150836020828501011115611f96575f80fd5b634e487b7160e01b5f52604160045260245ffd5b5f82601f83011261209e575f80fd5b813567ffffffffffffffff808211156120b9576120b961207b565b604051601f8301601f19908116603f011681019082821181831017156120e1576120e161207b565b816040528381528660208588010111156120f9575f80fd5b836020870160208301375f602085830101528094505050505092915050565b5f805f805f8060a0878903121561212d575f80fd5b863561213881611ea5565b955060208701359450604087013567ffffffffffffffff8082111561215b575f80fd5b6121678a838b0161203d565b9096509450606089013593506080890135915080821115612186575f80fd5b5061219389828a0161208f565b9150509295509295509295565b5f80604083850312156121b1575f80fd5b82359150602083013567ffffffffffffffff8111156121ce575f80fd5b6121da8582860161208f565b9150509250929050565b5f805f805f80606087890312156121f9575f80fd5b863567ffffffffffffffff80821115612210575f80fd5b61221c8a838b01611f55565b90985096506020890135915080821115612234575f80fd5b6122408a838b01611f55565b90965094506040890135915080821115612258575f80fd5b5061226589828a01611f55565b979a9699509497509295939492505050565b5f805f806060858703121561228a575f80fd5b843561229581611ea5565b935060208501359250604085013567ffffffffffffffff8111156122b7575f80fd5b6122c38782880161203d565b95989497509550505050565b5f602082840312156122df575f80fd5b5035919050565b5f805f606084860312156122f8575f80fd5b833561230381611ea5565b9250602084013561231381611ea5565b929592945050506040919091013590565b5f8060408385031215612335575f80fd5b823561234081611ea5565b946020939093013593505050565b634e487b7160e01b5f52601160045260245ffd5b80820180821115611a3e57611a3e61234e565b634e487b7160e01b5f52602160045260245ffd5b600381106123a557634e487b7160e01b5f52602160045260245ffd5b9052565b604081016123b78285612389565b8260208301529392505050565b634e487b7160e01b5f52603260045260245ffd5b5f808335601e198436030181126123ed575f80fd5b83018035915067ffffffffffffffff821115612407575f80fd5b602001915036819003821315611f96575f80fd5b5f6001820161242c5761242c61234e565b5060010190565b818382375f9101908152919050565b6020808252601390820152722737903b30b634b2103832b936b4b9b9b4b7b760691b604082015260600190565b81810381811115611a3e57611a3e61234e565b634e487b7160e01b5f52603160045260245ffd5b81835281816020850137505f828201602090810191909152601f909101601f19169091010190565b5f838385526020808601955060208560051b830101845f5b8781101561254357848303601f19018952813536889003601e190181126124fb575f80fd5b8701848101903567ffffffffffffffff811115612516575f80fd5b803603821315612524575f80fd5b61252f858284612496565b9a86019a94505050908301906001016124d6565b5090979650505050505050565b606080825281018690525f8760808301825b8981101561259257823561257581611ea5565b6001600160a01b0316825260209283019290910190600101612562565b5083810360208501528681526001600160fb1b038711156125b1575f80fd5b8660051b91508188602083013701828103602090810160408501526125d990820185876124be565b9998505050505050505050565b5f5b838110156126005781810151838201526020016125e8565b50505f910152565b602081525f82518060208401526126268160408501602087016125e6565b601f01601f19169190910160400192915050565b5f6020828403121561264a575f80fd5b815180151581146109d9575f80fd5b60208101611a3e8284612389565b7f19457468657265756d205369676e6564204d6573736167653a0a00000000000081525f835161269e81601a8501602088016125e6565b8351908301906126b581601a8401602088016125e6565b01601a0194935050505056fea26469706673582212207027783f88666f1a2081127384f8706c01c62784aabc64720079b01950eb541c64736f6c63430008180033","linkReferences":{}},"methodIdentifiers":{"addGuardian(address)":"a526d83b","addToBlacklist(address)":"44337ea1","addToWhitelist(address)":"e43252d7","approveERC20(address,address,uint256)":"a8e5e4aa","blacklist(address)":"f9f92be4","dailyLimit()":"67eeba0c","dailySpent()":"0bc6b89c","executeBatch(address[],uint256[],bytes[])":"47e1da2a","executeBatchWithTransient(address[],uint256[],bytes[])":"86ddbfdc","executeWithLimitTransient(address,uint256,bytes)":"61f60361","executeWithMFA(address,uint256,bytes,bytes32,bytes)":"2c720484","executeWithPermission(address,uint256,bytes)":"cff82d07","getEntryPoint()":"44ab613f","grantPermission(address,uint8,uint256)":"0c82c416","guardians(uint256)":"f560c734","isGuardian(address)":"0c68ba21","lastSpendReset()":"cd73389d","owner()":"8da5cb5b","permissions(address,uint8)":"0a108d5e","recoveryThreshold()":"1c8123d6","removeGuardian(address)":"71404156","renounceOwnership()":"715018a6","revokePermission(address,uint8)":"dd8a8a05","secondaryKey()":"0b0bdaac","sendFundsWithPermission(address,uint256)":"c3c59e6d","setDailyLimit(uint256)":"b20d30a9","setSecondaryKey(address)":"e3c7bd1d","signMessageWithPermission(bytes32,bytes)":"377a6098","transferOwnership(address)":"f2fde38b","triggerRecovery(address,bytes[])":"142a2431","usedOtps(bytes32)":"6c118c74","validateUserOp((address,uint256,bytes,bytes,bytes32,uint256,bytes32,bytes,bytes),bytes32,uint256)":"19822f7c","whitelist(address)":"9b19251a"},"id":48}