{"abi":[{"type":"constructor","inputs":[{"name":"initialOwner","type":"address","internalType":"address"},{"name":"entryPoint","type":"address","internalType":"contract IEntryPoint"}],"stateMutability":"nonpayable"},{"type":"receive","stateMutability":"payable"},{"type":"function","name":"addGuardian","inputs":[{"name":"guardian","type":"address","internalType":"address"}],"outputs":[],"stateMutability":"nonpayable"},{"type":"function","name":"addToBlacklist","inputs":[{"name":"addr","type":"address","internalType":"address"}],"outputs":[],"stateMutability":"nonpayable"},{"type":"function","name":"addToWhitelist","inputs":[{"name":"addr","type":"address","internalType":"address"}],"outputs":[],"stateMutability":"nonpayable"},{"type":"function","name":"approveERC20","inputs":[{"name":"token","type":"address","internalType":"address"},{"name":"spender","type":"address","internalType":"address"},{"name":"amount","type":"uint256","internalType":"uint256"}],"outputs":[],"stateMutability":"nonpayable"},{"type":"function","name":"blacklist","inputs":[{"name":"","type":"address","internalType":"address"}],"outputs":[{"name":"","type":"bool","internalType":"bool"}],"stateMutability":"view"},{"type":"function","name":"dailyLimit","inputs":[],"outputs":[{"name":"","type":"uint256","internalType":"uint256"}],"stateMutability":"view"},{"type":"function","name":"dailySpent","inputs":[],"outputs":[{"name":"","type":"uint256","internalType":"uint256"}],"stateMutability":"view"},{"type":"function","name":"executeBatch","inputs":[{"name":"dests","type":"address[]","internalType":"address[]"},{"name":"values","type":"uint256[]","internalType":"uint256[]"},{"name":"data","type":"bytes[]","internalType":"bytes[]"}],"outputs":[],"stateMutability":"nonpayable"},{"type":"function","name":"executeBatchWithTransient","inputs":[{"name":"dests","type":"address[]","internalType":"address[]"},{"name":"values","type":"uint256[]","internalType":"uint256[]"},{"name":"data","type":"bytes[]","internalType":"bytes[]"}],"outputs":[],"stateMutability":"nonpayable"},{"type":"function","name":"executeWithLimitTransient","inputs":[{"name":"dest","type":"address","internalType":"address"},{"name":"value","type":"uint256","internalType":"uint256"},{"name":"data","type":"bytes","internalType":"bytes"}],"outputs":[],"stateMutability":"nonpayable"},{"type":"function","name":"executeWithMFA","inputs":[{"name":"dest","type":"address","internalType":"address"},{"name":"value","type":"uint256","internalType":"uint256"},{"name":"data","type":"bytes","internalType":"bytes"},{"name":"otp","type":"bytes32","internalType":"bytes32"},{"name":"secondarySignature","type":"bytes","internalType":"bytes"}],"outputs":[],"stateMutability":"nonpayable"},{"type":"function","name":"getEntryPoint","inputs":[],"outputs":[{"name":"","type":"address","internalType":"address"}],"stateMutability":"view"},{"type":"function","name":"guardians","inputs":[{"name":"","type":"uint256","internalType":"uint256"}],"outputs":[{"name":"","type":"address","internalType":"address"}],"stateMutability":"view"},{"type":"function","name":"isGuardian","inputs":[{"name":"","type":"address","internalType":"address"}],"outputs":[{"name":"","type":"bool","internalType":"bool"}],"stateMutability":"view"},{"type":"function","name":"lastSpendReset","inputs":[],"outputs":[{"name":"","type":"uint256","internalType":"uint256"}],"stateMutability":"view"},{"type":"function","name":"owner","inputs":[],"outputs":[{"name":"","type":"address","internalType":"address"}],"stateMutability":"view"},{"type":"function","name":"recoveryThreshold","inputs":[],"outputs":[{"name":"","type":"uint256","internalType":"uint256"}],"stateMutability":"view"},{"type":"function","name":"removeGuardian","inputs":[{"name":"guardian","type":"address","internalType":"address"}],"outputs":[],"stateMutability":"nonpayable"},{"type":"function","name":"renounceOwnership","inputs":[],"outputs":[],"stateMutability":"nonpayable"},{"type":"function","name":"secondaryKey","inputs":[],"outputs":[{"name":"","type":"address","internalType":"address"}],"stateMutability":"view"},{"type":"function","name":"setDailyLimit","inputs":[{"name":"limit","type":"uint256","internalType":"uint256"}],"outputs":[],"stateMutability":"nonpayable"},{"type":"function","name":"setSecondaryKey","inputs":[{"name":"newKey","type":"address","internalType":"address"}],"outputs":[],"stateMutability":"nonpayable"},{"type":"function","name":"transferOwnership","inputs":[{"name":"newOwner","type":"address","internalType":"address"}],"outputs":[],"stateMutability":"nonpayable"},{"type":"function","name":"triggerRecovery","inputs":[{"name":"newOwner","type":"address","internalType":"address"},{"name":"guardianSignatures","type":"bytes[]","internalType":"bytes[]"}],"outputs":[],"stateMutability":"nonpayable"},{"type":"function","name":"usedOtps","inputs":[{"name":"","type":"bytes32","internalType":"bytes32"}],"outputs":[{"name":"","type":"bool","internalType":"bool"}],"stateMutability":"view"},{"type":"function","name":"validateUserOp","inputs":[{"name":"userOp","type":"tuple","internalType":"struct PackedUserOperation","components":[{"name":"sender","type":"address","internalType":"address"},{"name":"nonce","type":"uint256","internalType":"uint256"},{"name":"initCode","type":"bytes","internalType":"bytes"},{"name":"callData","type":"bytes","internalType":"bytes"},{"name":"accountGasLimits","type":"bytes32","internalType":"bytes32"},{"name":"preVerificationGas","type":"uint256","internalType":"uint256"},{"name":"gasFees","type":"bytes32","internalType":"bytes32"},{"name":"paymasterAndData","type":"bytes","internalType":"bytes"},{"name":"signature","type":"bytes","internalType":"bytes"}]},{"name":"userOpHash","type":"bytes32","internalType":"bytes32"},{"name":"missingAccountFunds","type":"uint256","internalType":"uint256"}],"outputs":[{"name":"validationData","type":"uint256","internalType":"uint256"}],"stateMutability":"nonpayable"},{"type":"function","name":"whitelist","inputs":[{"name":"","type":"address","internalType":"address"}],"outputs":[{"name":"","type":"bool","internalType":"bool"}],"stateMutability":"view"},{"type":"event","name":"AddressBlacklisted","inputs":[{"name":"addr","type":"address","indexed":true,"internalType":"address"}],"anonymous":false},{"type":"event","name":"AddressWhitelisted","inputs":[{"name":"addr","type":"address","indexed":true,"internalType":"address"}],"anonymous":false},{"type":"event","name":"BatchApproved","inputs":[{"name":"operator","type":"address","indexed":true,"internalType":"address"},{"name":"data","type":"bytes","indexed":false,"internalType":"bytes"}],"anonymous":false},{"type":"event","name":"BatchOperationResult","inputs":[{"name":"index","type":"uint256","indexed":false,"internalType":"uint256"},{"name":"dest","type":"address","indexed":false,"internalType":"address"},{"name":"success","type":"bool","indexed":false,"internalType":"bool"}],"anonymous":false},{"type":"event","name":"DailyLimitSet","inputs":[{"name":"newLimit","type":"uint256","indexed":false,"internalType":"uint256"}],"anonymous":false},{"type":"event","name":"GuardianAdded","inputs":[{"name":"guardian","type":"address","indexed":true,"internalType":"address"}],"anonymous":false},{"type":"event","name":"GuardianRemoved","inputs":[{"name":"guardian","type":"address","indexed":true,"internalType":"address"}],"anonymous":false},{"type":"event","name":"OTPUsed","inputs":[{"name":"otp","type":"bytes32","indexed":true,"internalType":"bytes32"}],"anonymous":false},{"type":"event","name":"OwnershipTransferred","inputs":[{"name":"previousOwner","type":"address","indexed":true,"internalType":"address"},{"name":"newOwner","type":"address","indexed":true,"internalType":"address"}],"anonymous":false},{"type":"event","name":"RecoveryTriggered","inputs":[{"name":"newOwner","type":"address","indexed":true,"internalType":"address"}],"anonymous":false},{"type":"event","name":"SecondaryKeySet","inputs":[{"name":"newKey","type":"address","indexed":true,"internalType":"address"}],"anonymous":false},{"type":"event","name":"TransactionExecuted","inputs":[{"name":"dest","type":"address","indexed":true,"internalType":"address"},{"name":"value","type":"uint256","indexed":false,"internalType":"uint256"},{"name":"success","type":"bool","indexed":false,"internalType":"bool"}],"anonymous":false},{"type":"error","name":"ECDSAInvalidSignature","inputs":[]},{"type":"error","name":"ECDSAInvalidSignatureLength","inputs":[{"name":"length","type":"uint256","internalType":"uint256"}]},{"type":"error","name":"ECDSAInvalidSignatureS","inputs":[{"name":"s","type":"bytes32","internalType":"bytes32"}]},{"type":"error","name":"OwnableInvalidOwner","inputs":[{"name":"owner","type":"address","internalType":"address"}]},{"type":"error","name":"OwnableUnauthorizedAccount","inputs":[{"name":"account","type":"address","internalType":"address"}]}],"bytecode":{"object":"0x60a060405234801562000010575f80fd5b50604051620021743803806200217483398101604081905262000033916200015b565b816001600160a01b0381166200006357604051631e4fbdf760e01b81525f60048201526024015b60405180910390fd5b6200006e81620000e9565b506001600160a01b038216620000d65760405162461bcd60e51b815260206004820152602660248201527f456e68616e6365644163636f756e743a20496e76616c6964206f776e6572206160448201526564647265737360d01b60648201526084016200005a565b6001600160a01b03166080525062000198565b620000f481620000f7565b50565b5f80546001600160a01b038381166001600160a01b0319831681178455604051919092169283917f8be0079c531659141344cd1fd0a4f28419497f9722a3daafe3b4186f6b6457e09190a35050565b6001600160a01b0381168114620000f4575f80fd5b5f80604083850312156200016d575f80fd5b82516200017a8162000146565b60208401519092506200018d8162000146565b809150509250929050565b608051611fc3620001b15f395f6102e10152611fc35ff3fe608060405260043610610198575f3560e01c806371404156116100e7578063b20d30a911610087578063e43252d711610062578063e43252d7146104b3578063f2fde38b146104d2578063f560c734146104f1578063f9f92be414610510575f80fd5b8063b20d30a914610460578063cd73389d1461047f578063e3c7bd1d14610494575f80fd5b80638da5cb5b116100c25780638da5cb5b146103d85780639b19251a146103f4578063a526d83b14610422578063a8e5e4aa14610441575f80fd5b80637140415614610386578063715018a6146103a557806386ddbfdc146103b9575f80fd5b80632c7204841161015257806347e1da2a1161012d57806347e1da2a1461030557806361f603611461032457806367eeba0c146103435780636c118c7414610358575f80fd5b80632c7204841461029557806344337ea1146102b457806344ab613f146102d3575f80fd5b80630b0bdaac146101a35780630bc6b89c146101df5780630c68ba2114610202578063142a24311461024057806319822f7c146102615780631c8123d614610280575f80fd5b3661019f57005b5f80fd5b3480156101ae575f80fd5b506001546101c2906001600160a01b031681565b6040516001600160a01b0390911681526020015b60405180910390f35b3480156101ea575f80fd5b506101f460045481565b6040519081526020016101d6565b34801561020d575f80fd5b5061023061021c366004611913565b600a6020525f908152604090205460ff1681565b60405190151581526020016101d6565b34801561024b575f80fd5b5061025f61025a366004611974565b61053e565b005b34801561026c575f80fd5b506101f461027b3660046119c3565b610768565b34801561028b575f80fd5b506101f460095481565b3480156102a0575f80fd5b5061025f6102af366004611a64565b6107af565b3480156102bf575f80fd5b5061025f6102ce366004611913565b6109d6565b3480156102de575f80fd5b507f00000000000000000000000000000000000000000000000000000000000000006101c2565b348015610310575f80fd5b5061025f61031f366004611b59565b610a29565b34801561032f575f80fd5b5061025f61033e366004611bec565b610a39565b34801561034e575f80fd5b506101f460035481565b348015610363575f80fd5b50610230610372366004611c42565b60026020525f908152604090205460ff1681565b348015610391575f80fd5b5061025f6103a0366004611913565b610c90565b3480156103b0575f80fd5b5061025f610e4a565b3480156103c4575f80fd5b5061025f6103d3366004611b59565b610e5d565b3480156103e3575f80fd5b505f546001600160a01b03166101c2565b3480156103ff575f80fd5b5061023061040e366004611913565b60066020525f908152604090205460ff1681565b34801561042d575f80fd5b5061025f61043c366004611913565b611170565b34801561044c575f80fd5b5061025f61045b366004611c59565b611277565b34801561046b575f80fd5b5061025f61047a366004611c42565b6112f5565b34801561048a575f80fd5b506101f460055481565b34801561049f575f80fd5b5061025f6104ae366004611913565b611338565b3480156104be575f80fd5b5061025f6104cd366004611913565b611389565b3480156104dd575f80fd5b5061025f6104ec366004611913565b6113dc565b3480156104fc575f80fd5b506101c261050b366004611c42565b611419565b34801561051b575f80fd5b5061023061052a366004611913565b60076020525f908152604090205460ff1681565b6009548110156105a35760405162461bcd60e51b815260206004820152602560248201527f456e68616e6365644163636f756e743a204e6f7420656e6f75676820617070726044820152646f76616c7360d81b60648201526084015b60405180910390fd5b6040516bffffffffffffffffffffffff19606085811b8216602084015230901b1660348201525f906048016040516020818303038152906040528051906020012090505f61061d827f19457468657265756d205369676e6564204d6573736167653a0a3332000000005f908152601c91909152603c902090565b90505f805b848110156106c6575f61068c8488888581811061064157610641611c92565b90506020028101906106539190611ca6565b8080601f0160208091040260200160405190810160405280939291908181526020018383808284375f9201919091525061144192505050565b6001600160a01b0381165f908152600a602052604090205490915060ff16156106bd57826106b981611cfd565b9350505b50600101610622565b506009548110156107245760405162461bcd60e51b815260206004820152602260248201527f456e68616e6365644163636f756e743a20496e76616c696420617070726f76616044820152616c7360f01b606482015260840161059a565b61072d8661146b565b6040516001600160a01b038716907f4e45ce20b541734cacacd85093c8944b3d3560e9c9d5cf333a51d70375c1f6ba905f90a2505050505050565b5f80546001600160a01b031661078684610653610100880188611ca6565b6001600160a01b03161461079c575060016107a8565b6107a582611474565b505f5b9392505050565b6107b7611513565b5f8281526002602052604090205460ff161561081f5760405162461bcd60e51b815260206004820152602160248201527f456e68616e6365644163636f756e743a204f545020616c7265616479207573656044820152601960fa1b606482015260840161059a565b5f828152600260209081526040808320805460ff19166001179055516108639161084f9186910190815260200190565b60405160208183030381529060405261153f565b90505f6108708284611441565b6001549091506001600160a01b038083169116146108e55760405162461bcd60e51b815260206004820152602c60248201527f456e68616e6365644163636f756e743a20496e76616c6964207365636f6e646160448201526b7279207369676e617475726560a01b606482015260840161059a565b5f886001600160a01b0316888888604051610901929190611d15565b5f6040518083038185875af1925050503d805f811461093b576040519150601f19603f3d011682016040523d82523d5f602084013e610940565b606091505b50509050806109a15760405162461bcd60e51b815260206004820152602760248201527f456e68616e6365644163636f756e743a204d4641207472616e73616374696f6e6044820152660819985a5b195960ca1b606482015260840161059a565b60405185907fb6adfc3ed84cdb84695dac48371389711c3d82bcafc30b3381d239b69819c1d9905f90a2505050505050505050565b6109de611513565b6001600160a01b0381165f81815260076020526040808220805460ff19166001179055517fdaf49ab9345b6cb75bcb5a7f726bff9183c34dcf5c098c385730f9fd893765f69190a250565b610a31611513565b505050505050565b610a41611513565b60015c60025c610a548162015180611d24565b421115610a6157505f9050425b6001600160a01b0386165f9081526007602052604090205460ff1615610ad95760405162461bcd60e51b815260206004820152602760248201527f456e68616e6365644163636f756e743a204164647265737320697320626c61636044820152661adb1a5cdd195960ca1b606482015260840161059a565b6001600160a01b0386165f9081526006602052604090205460ff16610b5f57600354610b058684611d24565b1115610b5f5760405162461bcd60e51b8152602060048201526024808201527f456e68616e6365644163636f756e743a2045786365656473206461696c79206c6044820152631a5b5a5d60e21b606482015260840161059a565b610b698583611d24565b91505f866001600160a01b0316868686604051610b87929190611d15565b5f6040518083038185875af1925050503d805f8114610bc1576040519150601f19603f3d011682016040523d82523d5f602084013e610bc6565b606091505b50506040805188815282151560208201529192506001600160a01b038916917ffb04f5456ba4dadf3b50c2335860f8832b49b85d0f6c23a86c79d640d6ea3c5e910160405180910390a280610c785760405162461bcd60e51b815260206004820152603260248201527f456e68616e6365644163636f756e743a205370656e64696e67206c696d6974206044820152711d1c985b9cd858dd1a5bdb8819985a5b195960721b606482015260840161059a565b8260015d8160025d5060049190915560055550505050565b610c98611513565b6001600160a01b0381165f908152600a602052604090205460ff16610cff5760405162461bcd60e51b815260206004820152601f60248201527f456e68616e6365644163636f756e743a204e6f74206120677561726469616e00604482015260640161059a565b6001600160a01b0381165f908152600a60205260408120805460ff191690555b600854811015610e1357816001600160a01b031660088281548110610d4657610d46611c92565b5f918252602090912001546001600160a01b031603610e0b5760088054610d6f90600190611d37565b81548110610d7f57610d7f611c92565b5f91825260209091200154600880546001600160a01b039092169183908110610daa57610daa611c92565b905f5260205f20015f6101000a8154816001600160a01b0302191690836001600160a01b031602179055506008805480610de657610de6611d4a565b5f8281526020902081015f1990810180546001600160a01b0319169055019055610e13565b600101610d1f565b506040516001600160a01b038216907fb8107d0c6b40be480ce3172ee66ba6d64b71f6b1685a851340036e6e2e3e3c52905f90a250565b610e52611513565b610e5b5f61146b565b565b610e65611513565b8483148015610e7357508481145b610ebf5760405162461bcd60e51b815260206004820181905260248201527f456e68616e6365644163636f756e743a204c656e677468206d69736d61746368604482015260640161059a565b5f805b84811015610ef857858582818110610edc57610edc611c92565b9050602002013582610eee9190611d24565b9150600101610ec2565b50805f5d5f5c47811115610f5c5760405162461bcd60e51b815260206004820152602560248201527f456e68616e6365644163636f756e743a20496e73756666696369656e742062616044820152646c616e636560d81b606482015260840161059a565b5f5b878110156110fd575f898983818110610f7957610f79611c92565b9050602002016020810190610f8e9190611913565b6001600160a01b0316888884818110610fa957610fa9611c92565b90506020020135878785818110610fc257610fc2611c92565b9050602002810190610fd49190611ca6565b604051610fe2929190611d15565b5f6040518083038185875af1925050503d805f811461101c576040519150601f19603f3d011682016040523d82523d5f602084013e611021565b606091505b505090507f2a8fb2944ab820a1e4aa0019d2b2ec2a0ea06bd3a0f4b6038834865ba8b00e23828b8b8581811061105957611059611c92565b905060200201602081019061106e9190611913565b604080519283526001600160a01b0390911660208301528315159082015260600160405180910390a1806110f45760405162461bcd60e51b815260206004820152602760248201527f456e68616e6365644163636f756e743a204261746368206f7065726174696f6e6044820152660819985a5b195960ca1b606482015260840161059a565b50600101610f5e565b50336001600160a01b03167fbd6d81b0cf4294fef8585ccd17470c3b73d95138b513dffac9526511a92b711889898989898960405160200161114496959493929190611e18565b60408051601f198184030181529082905261115e91611ece565b60405180910390a25050505050505050565b611178611513565b6001600160a01b0381165f908152600a602052604090205460ff16156111ec5760405162461bcd60e51b815260206004820152602360248201527f456e68616e6365644163636f756e743a20416c7265616479206120677561726460448201526234b0b760e91b606482015260840161059a565b6001600160a01b0381165f818152600a6020526040808220805460ff1916600190811790915560088054918201815583527ff3f7a9fe364faab93b216da50a3214154f22a0a2b415b23a84c8169e8b636ee30180546001600160a01b03191684179055517f038596bb31e2e7d3d9f184d4c98b310103f6d7f5830e5eec32bffe6f1728f9699190a250565b61127f611513565b60405163095ea7b360e01b81526001600160a01b0383811660048301526024820183905284169063095ea7b3906044016020604051808303815f875af11580156112cb573d5f803e3d5ffd5b505050506040513d601f19601f820116820180604052508101906112ef9190611f00565b50505050565b6112fd611513565b60038190556040518181527fea70a31e4e5eb24c9509aa5d26266f5837aaa56d74f4f815ca7f23aaaf296d6a9060200160405180910390a150565b611340611513565b600180546001600160a01b0319166001600160a01b0383169081179091556040517fad80876e08e61c6cf6b575b9c4a7dc63ec6f94d16c486fd520d409f4c1564891905f90a250565b611391611513565b6001600160a01b0381165f81815260066020526040808220805460ff19166001179055517f4f783c179409b4127238bc9c990bc99b9a651666a0d20b51d6c42849eb88466d9190a250565b6113e4611513565b6001600160a01b03811661140d57604051631e4fbdf760e01b81525f600482015260240161059a565b6114168161146b565b50565b60088181548110611428575f80fd5b5f918252602090912001546001600160a01b0316905081565b5f805f8061144f8686611579565b92509250925061145f82826115c2565b50909150505b92915050565b6114168161167a565b8015611416576040515f90339083908381818185875af1925050503d805f81146114b9576040519150601f19603f3d011682016040523d82523d5f602084013e6114be565b606091505b505090508061150f5760405162461bcd60e51b815260206004820152601f60248201527f456e68616e6365644163636f756e743a2050726566756e64206661696c656400604482015260640161059a565b5050565b5f546001600160a01b03163314610e5b5760405163118cdaa760e01b815233600482015260240161059a565b5f61154a82516116c9565b8260405160200161155c929190611f1f565b604051602081830303815290604052805190602001209050919050565b5f805f83516041036115b0576020840151604085015160608601515f1a6115a288828585611759565b9550955095505050506115bb565b505081515f91506002905b9250925092565b5f8260038111156115d5576115d5611f79565b036115de575050565b60018260038111156115f2576115f2611f79565b036116105760405163f645eedf60e01b815260040160405180910390fd5b600282600381111561162457611624611f79565b036116455760405163fce698f760e01b81526004810182905260240161059a565b600382600381111561165957611659611f79565b0361150f576040516335e2f38360e21b81526004810182905260240161059a565b5f80546001600160a01b038381166001600160a01b0319831681178455604051919092169283917f8be0079c531659141344cd1fd0a4f28419497f9722a3daafe3b4186f6b6457e09190a35050565b60605f6116d583611821565b60010190505f8167ffffffffffffffff8111156116f4576116f4611a50565b6040519080825280601f01601f19166020018201604052801561171e576020820181803683370190505b5090508181016020015b5f19016f181899199a1a9b1b9c1cb0b131b232b360811b600a86061a8153600a850494508461172857509392505050565b5f80807f7fffffffffffffffffffffffffffffff5d576e7357a4501ddfe92f46681b20a084111561179257505f91506003905082611817565b604080515f808252602082018084528a905260ff891692820192909252606081018790526080810186905260019060a0016020604051602081039080840390855afa1580156117e3573d5f803e3d5ffd5b5050604051601f1901519150506001600160a01b03811661180e57505f925060019150829050611817565b92505f91508190505b9450945094915050565b5f8072184f03e93ff9f4daa797ed6e38ed64bf6a1f0160401b831061185f5772184f03e93ff9f4daa797ed6e38ed64bf6a1f0160401b830492506040015b6d04ee2d6d415b85acef8100000000831061188b576d04ee2d6d415b85acef8100000000830492506020015b662386f26fc1000083106118a957662386f26fc10000830492506010015b6305f5e10083106118c1576305f5e100830492506008015b61271083106118d557612710830492506004015b606483106118e7576064830492506002015b600a83106114655760010192915050565b80356001600160a01b038116811461190e575f80fd5b919050565b5f60208284031215611923575f80fd5b6107a8826118f8565b5f8083601f84011261193c575f80fd5b50813567ffffffffffffffff811115611953575f80fd5b6020830191508360208260051b850101111561196d575f80fd5b9250929050565b5f805f60408486031215611986575f80fd5b61198f846118f8565b9250602084013567ffffffffffffffff8111156119aa575f80fd5b6119b68682870161192c565b9497909650939450505050565b5f805f606084860312156119d5575f80fd5b833567ffffffffffffffff8111156119eb575f80fd5b840161012081870312156119fd575f80fd5b95602085013595506040909401359392505050565b5f8083601f840112611a22575f80fd5b50813567ffffffffffffffff811115611a39575f80fd5b60208301915083602082850101111561196d575f80fd5b634e487b7160e01b5f52604160045260245ffd5b5f805f805f8060a08789031215611a79575f80fd5b611a82876118f8565b955060208701359450604087013567ffffffffffffffff80821115611aa5575f80fd5b611ab18a838b01611a12565b9096509450606089013593506080890135915080821115611ad0575f80fd5b818901915089601f830112611ae3575f80fd5b813581811115611af557611af5611a50565b604051601f8201601f19908116603f01168101908382118183101715611b1d57611b1d611a50565b816040528281528c6020848701011115611b35575f80fd5b826020860160208301375f6020848301015280955050505050509295509295509295565b5f805f805f8060608789031215611b6e575f80fd5b863567ffffffffffffffff80821115611b85575f80fd5b611b918a838b0161192c565b90985096506020890135915080821115611ba9575f80fd5b611bb58a838b0161192c565b90965094506040890135915080821115611bcd575f80fd5b50611bda89828a0161192c565b979a9699509497509295939492505050565b5f805f8060608587031215611bff575f80fd5b611c08856118f8565b935060208501359250604085013567ffffffffffffffff811115611c2a575f80fd5b611c3687828801611a12565b95989497509550505050565b5f60208284031215611c52575f80fd5b5035919050565b5f805f60608486031215611c6b575f80fd5b611c74846118f8565b9250611c82602085016118f8565b9150604084013590509250925092565b634e487b7160e01b5f52603260045260245ffd5b5f808335601e19843603018112611cbb575f80fd5b83018035915067ffffffffffffffff821115611cd5575f80fd5b60200191503681900382131561196d575f80fd5b634e487b7160e01b5f52601160045260245ffd5b5f60018201611d0e57611d0e611ce9565b5060010190565b818382375f9101908152919050565b8082018082111561146557611465611ce9565b8181038181111561146557611465611ce9565b634e487b7160e01b5f52603160045260245ffd5b81835281816020850137505f828201602090810191909152601f909101601f19169091010190565b5f838385526020808601955060208560051b830101845f5b87811015611e0b57848303601f19018952813536889003601e19018112611dc3575f80fd5b8701848101903567ffffffffffffffff811115611dde575f80fd5b803603821315611dec575f80fd5b611df7858284611d5e565b9a86019a9450505090830190600101611d9e565b5090979650505050505050565b606080825281018690525f8760808301825b89811015611e58576001600160a01b03611e43846118f8565b16825260209283019290910190600101611e2a565b5083810360208501528681526001600160fb1b03871115611e77575f80fd5b8660051b9150818860208301370182810360209081016040850152611e9f9082018587611d86565b9998505050505050505050565b5f5b83811015611ec6578181015183820152602001611eae565b50505f910152565b602081525f8251806020840152611eec816040850160208701611eac565b601f01601f19169190910160400192915050565b5f60208284031215611f10575f80fd5b815180151581146107a8575f80fd5b7f19457468657265756d205369676e6564204d6573736167653a0a00000000000081525f8351611f5681601a850160208801611eac565b835190830190611f6d81601a840160208801611eac565b01601a01949350505050565b634e487b7160e01b5f52602160045260245ffdfea26469706673582212200788a7d309ed65947f13f9bdbbc4bd10812898117700b2b812a9a9090860870164736f6c63430008180033","linkReferences":{}},"methodIdentifiers":{"addGuardian(address)":"a526d83b","addToBlacklist(address)":"44337ea1","addToWhitelist(address)":"e43252d7","approveERC20(address,address,uint256)":"a8e5e4aa","blacklist(address)":"f9f92be4","dailyLimit()":"67eeba0c","dailySpent()":"0bc6b89c","executeBatch(address[],uint256[],bytes[])":"47e1da2a","executeBatchWithTransient(address[],uint256[],bytes[])":"86ddbfdc","executeWithLimitTransient(address,uint256,bytes)":"61f60361","executeWithMFA(address,uint256,bytes,bytes32,bytes)":"2c720484","getEntryPoint()":"44ab613f","guardians(uint256)":"f560c734","isGuardian(address)":"0c68ba21","lastSpendReset()":"cd73389d","owner()":"8da5cb5b","recoveryThreshold()":"1c8123d6","removeGuardian(address)":"71404156","renounceOwnership()":"715018a6","secondaryKey()":"0b0bdaac","setDailyLimit(uint256)":"b20d30a9","setSecondaryKey(address)":"e3c7bd1d","transferOwnership(address)":"f2fde38b","triggerRecovery(address,bytes[])":"142a2431","usedOtps(bytes32)":"6c118c74","validateUserOp((address,uint256,bytes,bytes,bytes32,uint256,bytes32,bytes,bytes),bytes32,uint256)":"19822f7c","whitelist(address)":"9b19251a"},"id":48}