{"abi":[{"type":"constructor","inputs":[{"name":"initialOwner","type":"address","internalType":"address"},{"name":"entryPoint","type":"address","internalType":"contract IEntryPoint"}],"stateMutability":"nonpayable"},{"type":"function","name":"addGuardian","inputs":[{"name":"guardian","type":"address","internalType":"address"}],"outputs":[],"stateMutability":"nonpayable"},{"type":"function","name":"addToBlacklist","inputs":[{"name":"addr","type":"address","internalType":"address"}],"outputs":[],"stateMutability":"nonpayable"},{"type":"function","name":"addToWhitelist","inputs":[{"name":"addr","type":"address","internalType":"address"}],"outputs":[],"stateMutability":"nonpayable"},{"type":"function","name":"approveERC20","inputs":[{"name":"token","type":"address","internalType":"address"},{"name":"spender","type":"address","internalType":"address"},{"name":"amount","type":"uint256","internalType":"uint256"}],"outputs":[],"stateMutability":"nonpayable"},{"type":"function","name":"blacklist","inputs":[{"name":"","type":"address","internalType":"address"}],"outputs":[{"name":"","type":"bool","internalType":"bool"}],"stateMutability":"view"},{"type":"function","name":"dailyLimit","inputs":[],"outputs":[{"name":"","type":"uint256","internalType":"uint256"}],"stateMutability":"view"},{"type":"function","name":"dailySpent","inputs":[],"outputs":[{"name":"","type":"uint256","internalType":"uint256"}],"stateMutability":"view"},{"type":"function","name":"executeBatch","inputs":[{"name":"dests","type":"address[]","internalType":"address[]"},{"name":"values","type":"uint256[]","internalType":"uint256[]"},{"name":"data","type":"bytes[]","internalType":"bytes[]"}],"outputs":[],"stateMutability":"nonpayable"},{"type":"function","name":"executeBatchWithTransient","inputs":[{"name":"dests","type":"address[]","internalType":"address[]"},{"name":"values","type":"uint256[]","internalType":"uint256[]"},{"name":"data","type":"bytes[]","internalType":"bytes[]"}],"outputs":[],"stateMutability":"nonpayable"},{"type":"function","name":"executeWithLimitTransient","inputs":[{"name":"dest","type":"address","internalType":"address"},{"name":"value","type":"uint256","internalType":"uint256"},{"name":"data","type":"bytes","internalType":"bytes"}],"outputs":[],"stateMutability":"nonpayable"},{"type":"function","name":"executeWithMFA","inputs":[{"name":"dest","type":"address","internalType":"address"},{"name":"value","type":"uint256","internalType":"uint256"},{"name":"data","type":"bytes","internalType":"bytes"},{"name":"otp","type":"bytes32","internalType":"bytes32"},{"name":"secondarySignature","type":"bytes","internalType":"bytes"}],"outputs":[],"stateMutability":"nonpayable"},{"type":"function","name":"getEntryPoint","inputs":[],"outputs":[{"name":"","type":"address","internalType":"address"}],"stateMutability":"view"},{"type":"function","name":"guardians","inputs":[{"name":"","type":"uint256","internalType":"uint256"}],"outputs":[{"name":"","type":"address","internalType":"address"}],"stateMutability":"view"},{"type":"function","name":"isGuardian","inputs":[{"name":"","type":"address","internalType":"address"}],"outputs":[{"name":"","type":"bool","internalType":"bool"}],"stateMutability":"view"},{"type":"function","name":"lastSpendReset","inputs":[],"outputs":[{"name":"","type":"uint256","internalType":"uint256"}],"stateMutability":"view"},{"type":"function","name":"owner","inputs":[],"outputs":[{"name":"","type":"address","internalType":"address"}],"stateMutability":"view"},{"type":"function","name":"recoveryThreshold","inputs":[],"outputs":[{"name":"","type":"uint256","internalType":"uint256"}],"stateMutability":"view"},{"type":"function","name":"removeGuardian","inputs":[{"name":"guardian","type":"address","internalType":"address"}],"outputs":[],"stateMutability":"nonpayable"},{"type":"function","name":"renounceOwnership","inputs":[],"outputs":[],"stateMutability":"nonpayable"},{"type":"function","name":"secondaryKey","inputs":[],"outputs":[{"name":"","type":"address","internalType":"address"}],"stateMutability":"view"},{"type":"function","name":"setDailyLimit","inputs":[{"name":"limit","type":"uint256","internalType":"uint256"}],"outputs":[],"stateMutability":"nonpayable"},{"type":"function","name":"setSecondaryKey","inputs":[{"name":"newKey","type":"address","internalType":"address"}],"outputs":[],"stateMutability":"nonpayable"},{"type":"function","name":"transferOwnership","inputs":[{"name":"newOwner","type":"address","internalType":"address"}],"outputs":[],"stateMutability":"nonpayable"},{"type":"function","name":"triggerRecovery","inputs":[{"name":"newOwner","type":"address","internalType":"address"},{"name":"guardianSignatures","type":"bytes[]","internalType":"bytes[]"}],"outputs":[],"stateMutability":"nonpayable"},{"type":"function","name":"usedOtps","inputs":[{"name":"","type":"bytes32","internalType":"bytes32"}],"outputs":[{"name":"","type":"bool","internalType":"bool"}],"stateMutability":"view"},{"type":"function","name":"validateUserOp","inputs":[{"name":"userOp","type":"tuple","internalType":"struct PackedUserOperation","components":[{"name":"sender","type":"address","internalType":"address"},{"name":"nonce","type":"uint256","internalType":"uint256"},{"name":"initCode","type":"bytes","internalType":"bytes"},{"name":"callData","type":"bytes","internalType":"bytes"},{"name":"accountGasLimits","type":"bytes32","internalType":"bytes32"},{"name":"preVerificationGas","type":"uint256","internalType":"uint256"},{"name":"gasFees","type":"bytes32","internalType":"bytes32"},{"name":"paymasterAndData","type":"bytes","internalType":"bytes"},{"name":"signature","type":"bytes","internalType":"bytes"}]},{"name":"userOpHash","type":"bytes32","internalType":"bytes32"},{"name":"missingAccountFunds","type":"uint256","internalType":"uint256"}],"outputs":[{"name":"validationData","type":"uint256","internalType":"uint256"}],"stateMutability":"nonpayable"},{"type":"function","name":"whitelist","inputs":[{"name":"","type":"address","internalType":"address"}],"outputs":[{"name":"","type":"bool","internalType":"bool"}],"stateMutability":"view"},{"type":"event","name":"AddressBlacklisted","inputs":[{"name":"addr","type":"address","indexed":true,"internalType":"address"}],"anonymous":false},{"type":"event","name":"AddressWhitelisted","inputs":[{"name":"addr","type":"address","indexed":true,"internalType":"address"}],"anonymous":false},{"type":"event","name":"BatchApproved","inputs":[{"name":"operator","type":"address","indexed":true,"internalType":"address"},{"name":"data","type":"bytes","indexed":false,"internalType":"bytes"}],"anonymous":false},{"type":"event","name":"BatchOperationResult","inputs":[{"name":"index","type":"uint256","indexed":false,"internalType":"uint256"},{"name":"dest","type":"address","indexed":false,"internalType":"address"},{"name":"success","type":"bool","indexed":false,"internalType":"bool"}],"anonymous":false},{"type":"event","name":"DailyLimitSet","inputs":[{"name":"newLimit","type":"uint256","indexed":false,"internalType":"uint256"}],"anonymous":false},{"type":"event","name":"GuardianAdded","inputs":[{"name":"guardian","type":"address","indexed":true,"internalType":"address"}],"anonymous":false},{"type":"event","name":"GuardianRemoved","inputs":[{"name":"guardian","type":"address","indexed":true,"internalType":"address"}],"anonymous":false},{"type":"event","name":"OTPUsed","inputs":[{"name":"otp","type":"bytes32","indexed":true,"internalType":"bytes32"}],"anonymous":false},{"type":"event","name":"OwnershipTransferred","inputs":[{"name":"previousOwner","type":"address","indexed":true,"internalType":"address"},{"name":"newOwner","type":"address","indexed":true,"internalType":"address"}],"anonymous":false},{"type":"event","name":"RecoveryTriggered","inputs":[{"name":"newOwner","type":"address","indexed":true,"internalType":"address"}],"anonymous":false},{"type":"event","name":"SecondaryKeySet","inputs":[{"name":"newKey","type":"address","indexed":true,"internalType":"address"}],"anonymous":false},{"type":"event","name":"TransactionExecuted","inputs":[{"name":"dest","type":"address","indexed":true,"internalType":"address"},{"name":"value","type":"uint256","indexed":false,"internalType":"uint256"},{"name":"success","type":"bool","indexed":false,"internalType":"bool"}],"anonymous":false},{"type":"error","name":"ECDSAInvalidSignature","inputs":[]},{"type":"error","name":"ECDSAInvalidSignatureLength","inputs":[{"name":"length","type":"uint256","internalType":"uint256"}]},{"type":"error","name":"ECDSAInvalidSignatureS","inputs":[{"name":"s","type":"bytes32","internalType":"bytes32"}]},{"type":"error","name":"OwnableInvalidOwner","inputs":[{"name":"owner","type":"address","internalType":"address"}]},{"type":"error","name":"OwnableUnauthorizedAccount","inputs":[{"name":"account","type":"address","internalType":"address"}]}],"bytecode":{"object":"0x60a060405234801562000010575f80fd5b50604051620020243803806200202483398101604081905262000033916200015b565b816001600160a01b0381166200006357604051631e4fbdf760e01b81525f60048201526024015b60405180910390fd5b6200006e81620000e9565b506001600160a01b038216620000d65760405162461bcd60e51b815260206004820152602660248201527f456e68616e6365644163636f756e743a20496e76616c6964206f776e6572206160448201526564647265737360d01b60648201526084016200005a565b6001600160a01b03166080525062000198565b620000f481620000f7565b50565b5f80546001600160a01b038381166001600160a01b0319831681178455604051919092169283917f8be0079c531659141344cd1fd0a4f28419497f9722a3daafe3b4186f6b6457e09190a35050565b6001600160a01b0381168114620000f4575f80fd5b5f80604083850312156200016d575f80fd5b82516200017a8162000146565b60208401519092506200018d8162000146565b809150509250929050565b608051611e73620001b15f395f6102770152611e735ff3fe608060405234801561000f575f80fd5b50600436106101a1575f3560e01c806371404156116100f3578063b20d30a911610093578063e43252d71161006e578063e43252d7146103a1578063f2fde38b146103b4578063f560c734146103c7578063f9f92be4146103da575f80fd5b8063b20d30a914610372578063cd73389d14610385578063e3c7bd1d1461038e575f80fd5b80638da5cb5b116100ce5780638da5cb5b1461031a5780639b19251a1461032a578063a526d83b1461034c578063a8e5e4aa1461035f575f80fd5b806371404156146102ec578063715018a6146102ff57806386ddbfdc14610307575f80fd5b80632c7204841161015e57806347e1da2a1161013957806347e1da2a1461029b57806361f60361146102ae57806367eeba0c146102c15780636c118c74146102ca575f80fd5b80632c7204841461024f57806344337ea11461026257806344ab613f14610275575f80fd5b80630b0bdaac146101a55780630bc6b89c146101d55780630c68ba21146101ec578063142a24311461021e57806319822f7c146102335780631c8123d614610246575b5f80fd5b6001546101b8906001600160a01b031681565b6040516001600160a01b0390911681526020015b60405180910390f35b6101de60045481565b6040519081526020016101cc565b61020e6101fa3660046117c3565b600a6020525f908152604090205460ff1681565b60405190151581526020016101cc565b61023161022c366004611824565b6103fc565b005b6101de610241366004611873565b610626565b6101de60095481565b61023161025d366004611914565b61066d565b6102316102703660046117c3565b610894565b7f00000000000000000000000000000000000000000000000000000000000000006101b8565b6102316102a9366004611a09565b6108e7565b6102316102bc366004611a9c565b6108f7565b6101de60035481565b61020e6102d8366004611af2565b60026020525f908152604090205460ff1681565b6102316102fa3660046117c3565b610b46565b610231610d00565b610231610315366004611a09565b610d13565b5f546001600160a01b03166101b8565b61020e6103383660046117c3565b60066020525f908152604090205460ff1681565b61023161035a3660046117c3565b611020565b61023161036d366004611b09565b611127565b610231610380366004611af2565b6111a5565b6101de60055481565b61023161039c3660046117c3565b6111e8565b6102316103af3660046117c3565b611239565b6102316103c23660046117c3565b61128c565b6101b86103d5366004611af2565b6112c9565b61020e6103e83660046117c3565b60076020525f908152604090205460ff1681565b6009548110156104615760405162461bcd60e51b815260206004820152602560248201527f456e68616e6365644163636f756e743a204e6f7420656e6f75676820617070726044820152646f76616c7360d81b60648201526084015b60405180910390fd5b6040516bffffffffffffffffffffffff19606085811b8216602084015230901b1660348201525f906048016040516020818303038152906040528051906020012090505f6104db827f19457468657265756d205369676e6564204d6573736167653a0a3332000000005f908152601c91909152603c902090565b90505f805b84811015610584575f61054a848888858181106104ff576104ff611b42565b90506020028101906105119190611b56565b8080601f0160208091040260200160405190810160405280939291908181526020018383808284375f920191909152506112f192505050565b6001600160a01b0381165f908152600a602052604090205490915060ff161561057b578261057781611bad565b9350505b506001016104e0565b506009548110156105e25760405162461bcd60e51b815260206004820152602260248201527f456e68616e6365644163636f756e743a20496e76616c696420617070726f76616044820152616c7360f01b6064820152608401610458565b6105eb8661131b565b6040516001600160a01b038716907f4e45ce20b541734cacacd85093c8944b3d3560e9c9d5cf333a51d70375c1f6ba905f90a2505050505050565b5f80546001600160a01b031661064484610511610100880188611b56565b6001600160a01b03161461065a57506001610666565b61066382611324565b505f5b9392505050565b6106756113c3565b5f8281526002602052604090205460ff16156106dd5760405162461bcd60e51b815260206004820152602160248201527f456e68616e6365644163636f756e743a204f545020616c7265616479207573656044820152601960fa1b6064820152608401610458565b5f828152600260209081526040808320805460ff19166001179055516107219161070d9186910190815260200190565b6040516020818303038152906040526113ef565b90505f61072e82846112f1565b6001549091506001600160a01b038083169116146107a35760405162461bcd60e51b815260206004820152602c60248201527f456e68616e6365644163636f756e743a20496e76616c6964207365636f6e646160448201526b7279207369676e617475726560a01b6064820152608401610458565b5f886001600160a01b03168888886040516107bf929190611bc5565b5f6040518083038185875af1925050503d805f81146107f9576040519150601f19603f3d011682016040523d82523d5f602084013e6107fe565b606091505b505090508061085f5760405162461bcd60e51b815260206004820152602760248201527f456e68616e6365644163636f756e743a204d4641207472616e73616374696f6e6044820152660819985a5b195960ca1b6064820152608401610458565b60405185907fb6adfc3ed84cdb84695dac48371389711c3d82bcafc30b3381d239b69819c1d9905f90a2505050505050505050565b61089c6113c3565b6001600160a01b0381165f81815260076020526040808220805460ff19166001179055517fdaf49ab9345b6cb75bcb5a7f726bff9183c34dcf5c098c385730f9fd893765f69190a250565b6108ef6113c3565b505050505050565b6108ff6113c3565b6004546005546109128162015180611bd4565b42111561091f57505f9050425b6001600160a01b0386165f9081526007602052604090205460ff16156109975760405162461bcd60e51b815260206004820152602760248201527f456e68616e6365644163636f756e743a204164647265737320697320626c61636044820152661adb1a5cdd195960ca1b6064820152608401610458565b6001600160a01b0386165f9081526006602052604090205460ff16610a1d576003546109c38684611bd4565b1115610a1d5760405162461bcd60e51b8152602060048201526024808201527f456e68616e6365644163636f756e743a2045786365656473206461696c79206c6044820152631a5b5a5d60e21b6064820152608401610458565b610a278583611bd4565b91505f866001600160a01b0316868686604051610a45929190611bc5565b5f6040518083038185875af1925050503d805f8114610a7f576040519150601f19603f3d011682016040523d82523d5f602084013e610a84565b606091505b50506040805188815282151560208201529192506001600160a01b038916917ffb04f5456ba4dadf3b50c2335860f8832b49b85d0f6c23a86c79d640d6ea3c5e910160405180910390a280610b365760405162461bcd60e51b815260206004820152603260248201527f456e68616e6365644163636f756e743a205370656e64696e67206c696d6974206044820152711d1c985b9cd858dd1a5bdb8819985a5b195960721b6064820152608401610458565b5060049190915560055550505050565b610b4e6113c3565b6001600160a01b0381165f908152600a602052604090205460ff16610bb55760405162461bcd60e51b815260206004820152601f60248201527f456e68616e6365644163636f756e743a204e6f74206120677561726469616e006044820152606401610458565b6001600160a01b0381165f908152600a60205260408120805460ff191690555b600854811015610cc957816001600160a01b031660088281548110610bfc57610bfc611b42565b5f918252602090912001546001600160a01b031603610cc15760088054610c2590600190611be7565b81548110610c3557610c35611b42565b5f91825260209091200154600880546001600160a01b039092169183908110610c6057610c60611b42565b905f5260205f20015f6101000a8154816001600160a01b0302191690836001600160a01b031602179055506008805480610c9c57610c9c611bfa565b5f8281526020902081015f1990810180546001600160a01b0319169055019055610cc9565b600101610bd5565b506040516001600160a01b038216907fb8107d0c6b40be480ce3172ee66ba6d64b71f6b1685a851340036e6e2e3e3c52905f90a250565b610d086113c3565b610d115f61131b565b565b610d1b6113c3565b8483148015610d2957508481145b610d755760405162461bcd60e51b815260206004820181905260248201527f456e68616e6365644163636f756e743a204c656e677468206d69736d617463686044820152606401610458565b5f805b84811015610dae57858582818110610d9257610d92611b42565b9050602002013582610da49190611bd4565b9150600101610d78565b5080471015610e0d5760405162461bcd60e51b815260206004820152602560248201527f456e68616e6365644163636f756e743a20496e73756666696369656e742062616044820152646c616e636560d81b6064820152608401610458565b5f5b86811015610fae575f888883818110610e2a57610e2a611b42565b9050602002016020810190610e3f91906117c3565b6001600160a01b0316878784818110610e5a57610e5a611b42565b90506020020135868685818110610e7357610e73611b42565b9050602002810190610e859190611b56565b604051610e93929190611bc5565b5f6040518083038185875af1925050503d805f8114610ecd576040519150601f19603f3d011682016040523d82523d5f602084013e610ed2565b606091505b505090507f2a8fb2944ab820a1e4aa0019d2b2ec2a0ea06bd3a0f4b6038834865ba8b00e23828a8a85818110610f0a57610f0a611b42565b9050602002016020810190610f1f91906117c3565b604080519283526001600160a01b0390911660208301528315159082015260600160405180910390a180610fa55760405162461bcd60e51b815260206004820152602760248201527f456e68616e6365644163636f756e743a204261746368206f7065726174696f6e6044820152660819985a5b195960ca1b6064820152608401610458565b50600101610e0f565b50336001600160a01b03167fbd6d81b0cf4294fef8585ccd17470c3b73d95138b513dffac9526511a92b7118888888888888604051602001610ff596959493929190611cc8565b60408051601f198184030181529082905261100f91611d7e565b60405180910390a250505050505050565b6110286113c3565b6001600160a01b0381165f908152600a602052604090205460ff161561109c5760405162461bcd60e51b815260206004820152602360248201527f456e68616e6365644163636f756e743a20416c7265616479206120677561726460448201526234b0b760e91b6064820152608401610458565b6001600160a01b0381165f818152600a6020526040808220805460ff1916600190811790915560088054918201815583527ff3f7a9fe364faab93b216da50a3214154f22a0a2b415b23a84c8169e8b636ee30180546001600160a01b03191684179055517f038596bb31e2e7d3d9f184d4c98b310103f6d7f5830e5eec32bffe6f1728f9699190a250565b61112f6113c3565b60405163095ea7b360e01b81526001600160a01b0383811660048301526024820183905284169063095ea7b3906044016020604051808303815f875af115801561117b573d5f803e3d5ffd5b505050506040513d601f19601f8201168201806040525081019061119f9190611db0565b50505050565b6111ad6113c3565b60038190556040518181527fea70a31e4e5eb24c9509aa5d26266f5837aaa56d74f4f815ca7f23aaaf296d6a9060200160405180910390a150565b6111f06113c3565b600180546001600160a01b0319166001600160a01b0383169081179091556040517fad80876e08e61c6cf6b575b9c4a7dc63ec6f94d16c486fd520d409f4c1564891905f90a250565b6112416113c3565b6001600160a01b0381165f81815260066020526040808220805460ff19166001179055517f4f783c179409b4127238bc9c990bc99b9a651666a0d20b51d6c42849eb88466d9190a250565b6112946113c3565b6001600160a01b0381166112bd57604051631e4fbdf760e01b81525f6004820152602401610458565b6112c68161131b565b50565b600881815481106112d8575f80fd5b5f918252602090912001546001600160a01b0316905081565b5f805f806112ff8686611429565b92509250925061130f8282611472565b50909150505b92915050565b6112c68161152a565b80156112c6576040515f90339083908381818185875af1925050503d805f8114611369576040519150601f19603f3d011682016040523d82523d5f602084013e61136e565b606091505b50509050806113bf5760405162461bcd60e51b815260206004820152601f60248201527f456e68616e6365644163636f756e743a2050726566756e64206661696c6564006044820152606401610458565b5050565b5f546001600160a01b03163314610d115760405163118cdaa760e01b8152336004820152602401610458565b5f6113fa8251611579565b8260405160200161140c929190611dcf565b604051602081830303815290604052805190602001209050919050565b5f805f8351604103611460576020840151604085015160608601515f1a61145288828585611609565b95509550955050505061146b565b505081515f91506002905b9250925092565b5f82600381111561148557611485611e29565b0361148e575050565b60018260038111156114a2576114a2611e29565b036114c05760405163f645eedf60e01b815260040160405180910390fd5b60028260038111156114d4576114d4611e29565b036114f55760405163fce698f760e01b815260048101829052602401610458565b600382600381111561150957611509611e29565b036113bf576040516335e2f38360e21b815260048101829052602401610458565b5f80546001600160a01b038381166001600160a01b0319831681178455604051919092169283917f8be0079c531659141344cd1fd0a4f28419497f9722a3daafe3b4186f6b6457e09190a35050565b60605f611585836116d1565b60010190505f8167ffffffffffffffff8111156115a4576115a4611900565b6040519080825280601f01601f1916602001820160405280156115ce576020820181803683370190505b5090508181016020015b5f19016f181899199a1a9b1b9c1cb0b131b232b360811b600a86061a8153600a85049450846115d857509392505050565b5f80807f7fffffffffffffffffffffffffffffff5d576e7357a4501ddfe92f46681b20a084111561164257505f915060039050826116c7565b604080515f808252602082018084528a905260ff891692820192909252606081018790526080810186905260019060a0016020604051602081039080840390855afa158015611693573d5f803e3d5ffd5b5050604051601f1901519150506001600160a01b0381166116be57505f9250600191508290506116c7565b92505f91508190505b9450945094915050565b5f8072184f03e93ff9f4daa797ed6e38ed64bf6a1f0160401b831061170f5772184f03e93ff9f4daa797ed6e38ed64bf6a1f0160401b830492506040015b6d04ee2d6d415b85acef8100000000831061173b576d04ee2d6d415b85acef8100000000830492506020015b662386f26fc10000831061175957662386f26fc10000830492506010015b6305f5e1008310611771576305f5e100830492506008015b612710831061178557612710830492506004015b60648310611797576064830492506002015b600a83106113155760010192915050565b80356001600160a01b03811681146117be575f80fd5b919050565b5f602082840312156117d3575f80fd5b610666826117a8565b5f8083601f8401126117ec575f80fd5b50813567ffffffffffffffff811115611803575f80fd5b6020830191508360208260051b850101111561181d575f80fd5b9250929050565b5f805f60408486031215611836575f80fd5b61183f846117a8565b9250602084013567ffffffffffffffff81111561185a575f80fd5b611866868287016117dc565b9497909650939450505050565b5f805f60608486031215611885575f80fd5b833567ffffffffffffffff81111561189b575f80fd5b840161012081870312156118ad575f80fd5b95602085013595506040909401359392505050565b5f8083601f8401126118d2575f80fd5b50813567ffffffffffffffff8111156118e9575f80fd5b60208301915083602082850101111561181d575f80fd5b634e487b7160e01b5f52604160045260245ffd5b5f805f805f8060a08789031215611929575f80fd5b611932876117a8565b955060208701359450604087013567ffffffffffffffff80821115611955575f80fd5b6119618a838b016118c2565b9096509450606089013593506080890135915080821115611980575f80fd5b818901915089601f830112611993575f80fd5b8135818111156119a5576119a5611900565b604051601f8201601f19908116603f011681019083821181831017156119cd576119cd611900565b816040528281528c60208487010111156119e5575f80fd5b826020860160208301375f6020848301015280955050505050509295509295509295565b5f805f805f8060608789031215611a1e575f80fd5b863567ffffffffffffffff80821115611a35575f80fd5b611a418a838b016117dc565b90985096506020890135915080821115611a59575f80fd5b611a658a838b016117dc565b90965094506040890135915080821115611a7d575f80fd5b50611a8a89828a016117dc565b979a9699509497509295939492505050565b5f805f8060608587031215611aaf575f80fd5b611ab8856117a8565b935060208501359250604085013567ffffffffffffffff811115611ada575f80fd5b611ae6878288016118c2565b95989497509550505050565b5f60208284031215611b02575f80fd5b5035919050565b5f805f60608486031215611b1b575f80fd5b611b24846117a8565b9250611b32602085016117a8565b9150604084013590509250925092565b634e487b7160e01b5f52603260045260245ffd5b5f808335601e19843603018112611b6b575f80fd5b83018035915067ffffffffffffffff821115611b85575f80fd5b60200191503681900382131561181d575f80fd5b634e487b7160e01b5f52601160045260245ffd5b5f60018201611bbe57611bbe611b99565b5060010190565b818382375f9101908152919050565b8082018082111561131557611315611b99565b8181038181111561131557611315611b99565b634e487b7160e01b5f52603160045260245ffd5b81835281816020850137505f828201602090810191909152601f909101601f19169091010190565b5f838385526020808601955060208560051b830101845f5b87811015611cbb57848303601f19018952813536889003601e19018112611c73575f80fd5b8701848101903567ffffffffffffffff811115611c8e575f80fd5b803603821315611c9c575f80fd5b611ca7858284611c0e565b9a86019a9450505090830190600101611c4e565b5090979650505050505050565b606080825281018690525f8760808301825b89811015611d08576001600160a01b03611cf3846117a8565b16825260209283019290910190600101611cda565b5083810360208501528681526001600160fb1b03871115611d27575f80fd5b8660051b9150818860208301370182810360209081016040850152611d4f9082018587611c36565b9998505050505050505050565b5f5b83811015611d76578181015183820152602001611d5e565b50505f910152565b602081525f8251806020840152611d9c816040850160208701611d5c565b601f01601f19169190910160400192915050565b5f60208284031215611dc0575f80fd5b81518015158114610666575f80fd5b7f19457468657265756d205369676e6564204d6573736167653a0a00000000000081525f8351611e0681601a850160208801611d5c565b835190830190611e1d81601a840160208801611d5c565b01601a01949350505050565b634e487b7160e01b5f52602160045260245ffdfea26469706673582212201f2ab467f65df3030ecc565ef02bc7827557324c4f01cdd6b212c5f64eb559c364736f6c63430008180033","linkReferences":{}},"methodIdentifiers":{"addGuardian(address)":"a526d83b","addToBlacklist(address)":"44337ea1","addToWhitelist(address)":"e43252d7","approveERC20(address,address,uint256)":"a8e5e4aa","blacklist(address)":"f9f92be4","dailyLimit()":"67eeba0c","dailySpent()":"0bc6b89c","executeBatch(address[],uint256[],bytes[])":"47e1da2a","executeBatchWithTransient(address[],uint256[],bytes[])":"86ddbfdc","executeWithLimitTransient(address,uint256,bytes)":"61f60361","executeWithMFA(address,uint256,bytes,bytes32,bytes)":"2c720484","getEntryPoint()":"44ab613f","guardians(uint256)":"f560c734","isGuardian(address)":"0c68ba21","lastSpendReset()":"cd73389d","owner()":"8da5cb5b","recoveryThreshold()":"1c8123d6","removeGuardian(address)":"71404156","renounceOwnership()":"715018a6","secondaryKey()":"0b0bdaac","setDailyLimit(uint256)":"b20d30a9","setSecondaryKey(address)":"e3c7bd1d","transferOwnership(address)":"f2fde38b","triggerRecovery(address,bytes[])":"142a2431","usedOtps(bytes32)":"6c118c74","validateUserOp((address,uint256,bytes,bytes,bytes32,uint256,bytes32,bytes,bytes),bytes32,uint256)":"19822f7c","whitelist(address)":"9b19251a"},"id":48}