{"abi":[{"type":"constructor","inputs":[{"name":"initialOwner","type":"address","internalType":"address"},{"name":"entryPoint","type":"address","internalType":"contract IEntryPoint"}],"stateMutability":"nonpayable"},{"type":"receive","stateMutability":"payable"},{"type":"function","name":"addGuardian","inputs":[{"name":"guardian","type":"address","internalType":"address"}],"outputs":[],"stateMutability":"nonpayable"},{"type":"function","name":"addToBlacklist","inputs":[{"name":"addr","type":"address","internalType":"address"}],"outputs":[],"stateMutability":"nonpayable"},{"type":"function","name":"addToWhitelist","inputs":[{"name":"addr","type":"address","internalType":"address"}],"outputs":[],"stateMutability":"nonpayable"},{"type":"function","name":"approveERC20","inputs":[{"name":"token","type":"address","internalType":"address"},{"name":"spender","type":"address","internalType":"address"},{"name":"amount","type":"uint256","internalType":"uint256"}],"outputs":[],"stateMutability":"nonpayable"},{"type":"function","name":"blacklist","inputs":[{"name":"","type":"address","internalType":"address"}],"outputs":[{"name":"","type":"bool","internalType":"bool"}],"stateMutability":"view"},{"type":"function","name":"dailyLimit","inputs":[],"outputs":[{"name":"","type":"uint256","internalType":"uint256"}],"stateMutability":"view"},{"type":"function","name":"dailySpent","inputs":[],"outputs":[{"name":"","type":"uint256","internalType":"uint256"}],"stateMutability":"view"},{"type":"function","name":"executeBatch","inputs":[{"name":"dests","type":"address[]","internalType":"address[]"},{"name":"values","type":"uint256[]","internalType":"uint256[]"},{"name":"data","type":"bytes[]","internalType":"bytes[]"}],"outputs":[],"stateMutability":"nonpayable"},{"type":"function","name":"executeBatchWithTransient","inputs":[{"name":"dests","type":"address[]","internalType":"address[]"},{"name":"values","type":"uint256[]","internalType":"uint256[]"},{"name":"data","type":"bytes[]","internalType":"bytes[]"}],"outputs":[],"stateMutability":"nonpayable"},{"type":"function","name":"executeWithLimitTransient","inputs":[{"name":"dest","type":"address","internalType":"address"},{"name":"value","type":"uint256","internalType":"uint256"},{"name":"data","type":"bytes","internalType":"bytes"}],"outputs":[],"stateMutability":"nonpayable"},{"type":"function","name":"executeWithMFA","inputs":[{"name":"dest","type":"address","internalType":"address"},{"name":"value","type":"uint256","internalType":"uint256"},{"name":"data","type":"bytes","internalType":"bytes"},{"name":"otp","type":"bytes32","internalType":"bytes32"},{"name":"secondarySignature","type":"bytes","internalType":"bytes"}],"outputs":[],"stateMutability":"nonpayable"},{"type":"function","name":"executeWithPermission","inputs":[{"name":"dest","type":"address","internalType":"address"},{"name":"value","type":"uint256","internalType":"uint256"},{"name":"data","type":"bytes","internalType":"bytes"}],"outputs":[],"stateMutability":"nonpayable"},{"type":"function","name":"getEntryPoint","inputs":[],"outputs":[{"name":"","type":"address","internalType":"address"}],"stateMutability":"view"},{"type":"function","name":"grantPermission","inputs":[{"name":"account","type":"address","internalType":"address"},{"name":"permission","type":"uint8","internalType":"enum EnhancedAccount.PermissionType"}],"outputs":[],"stateMutability":"nonpayable"},{"type":"function","name":"guardians","inputs":[{"name":"","type":"uint256","internalType":"uint256"}],"outputs":[{"name":"","type":"address","internalType":"address"}],"stateMutability":"view"},{"type":"function","name":"isGuardian","inputs":[{"name":"","type":"address","internalType":"address"}],"outputs":[{"name":"","type":"bool","internalType":"bool"}],"stateMutability":"view"},{"type":"function","name":"lastSpendReset","inputs":[],"outputs":[{"name":"","type":"uint256","internalType":"uint256"}],"stateMutability":"view"},{"type":"function","name":"owner","inputs":[],"outputs":[{"name":"","type":"address","internalType":"address"}],"stateMutability":"view"},{"type":"function","name":"permissions","inputs":[{"name":"","type":"address","internalType":"address"},{"name":"","type":"uint8","internalType":"enum EnhancedAccount.PermissionType"}],"outputs":[{"name":"","type":"bool","internalType":"bool"}],"stateMutability":"view"},{"type":"function","name":"recoveryThreshold","inputs":[],"outputs":[{"name":"","type":"uint256","internalType":"uint256"}],"stateMutability":"view"},{"type":"function","name":"removeGuardian","inputs":[{"name":"guardian","type":"address","internalType":"address"}],"outputs":[],"stateMutability":"nonpayable"},{"type":"function","name":"renounceOwnership","inputs":[],"outputs":[],"stateMutability":"nonpayable"},{"type":"function","name":"revokePermission","inputs":[{"name":"account","type":"address","internalType":"address"},{"name":"permission","type":"uint8","internalType":"enum EnhancedAccount.PermissionType"}],"outputs":[],"stateMutability":"nonpayable"},{"type":"function","name":"secondaryKey","inputs":[],"outputs":[{"name":"","type":"address","internalType":"address"}],"stateMutability":"view"},{"type":"function","name":"sendFundsWithPermission","inputs":[{"name":"to","type":"address","internalType":"address payable"},{"name":"amount","type":"uint256","internalType":"uint256"}],"outputs":[],"stateMutability":"nonpayable"},{"type":"function","name":"setDailyLimit","inputs":[{"name":"limit","type":"uint256","internalType":"uint256"}],"outputs":[],"stateMutability":"nonpayable"},{"type":"function","name":"setSecondaryKey","inputs":[{"name":"newKey","type":"address","internalType":"address"}],"outputs":[],"stateMutability":"nonpayable"},{"type":"function","name":"signMessageWithPermission","inputs":[{"name":"hash","type":"bytes32","internalType":"bytes32"},{"name":"signature","type":"bytes","internalType":"bytes"}],"outputs":[{"name":"","type":"bool","internalType":"bool"}],"stateMutability":"view"},{"type":"function","name":"transferOwnership","inputs":[{"name":"newOwner","type":"address","internalType":"address"}],"outputs":[],"stateMutability":"nonpayable"},{"type":"function","name":"triggerRecovery","inputs":[{"name":"newOwner","type":"address","internalType":"address"},{"name":"guardianSignatures","type":"bytes[]","internalType":"bytes[]"}],"outputs":[],"stateMutability":"nonpayable"},{"type":"function","name":"usedOtps","inputs":[{"name":"","type":"bytes32","internalType":"bytes32"}],"outputs":[{"name":"","type":"bool","internalType":"bool"}],"stateMutability":"view"},{"type":"function","name":"validateUserOp","inputs":[{"name":"userOp","type":"tuple","internalType":"struct PackedUserOperation","components":[{"name":"sender","type":"address","internalType":"address"},{"name":"nonce","type":"uint256","internalType":"uint256"},{"name":"initCode","type":"bytes","internalType":"bytes"},{"name":"callData","type":"bytes","internalType":"bytes"},{"name":"accountGasLimits","type":"bytes32","internalType":"bytes32"},{"name":"preVerificationGas","type":"uint256","internalType":"uint256"},{"name":"gasFees","type":"bytes32","internalType":"bytes32"},{"name":"paymasterAndData","type":"bytes","internalType":"bytes"},{"name":"signature","type":"bytes","internalType":"bytes"}]},{"name":"userOpHash","type":"bytes32","internalType":"bytes32"},{"name":"missingAccountFunds","type":"uint256","internalType":"uint256"}],"outputs":[{"name":"validationData","type":"uint256","internalType":"uint256"}],"stateMutability":"nonpayable"},{"type":"function","name":"whitelist","inputs":[{"name":"","type":"address","internalType":"address"}],"outputs":[{"name":"","type":"bool","internalType":"bool"}],"stateMutability":"view"},{"type":"event","name":"AddressBlacklisted","inputs":[{"name":"addr","type":"address","indexed":true,"internalType":"address"}],"anonymous":false},{"type":"event","name":"AddressWhitelisted","inputs":[{"name":"addr","type":"address","indexed":true,"internalType":"address"}],"anonymous":false},{"type":"event","name":"BatchApproved","inputs":[{"name":"operator","type":"address","indexed":true,"internalType":"address"},{"name":"data","type":"bytes","indexed":false,"internalType":"bytes"}],"anonymous":false},{"type":"event","name":"BatchOperationResult","inputs":[{"name":"index","type":"uint256","indexed":false,"internalType":"uint256"},{"name":"dest","type":"address","indexed":false,"internalType":"address"},{"name":"success","type":"bool","indexed":false,"internalType":"bool"}],"anonymous":false},{"type":"event","name":"DailyLimitSet","inputs":[{"name":"newLimit","type":"uint256","indexed":false,"internalType":"uint256"}],"anonymous":false},{"type":"event","name":"GuardianAdded","inputs":[{"name":"guardian","type":"address","indexed":true,"internalType":"address"}],"anonymous":false},{"type":"event","name":"GuardianRemoved","inputs":[{"name":"guardian","type":"address","indexed":true,"internalType":"address"}],"anonymous":false},{"type":"event","name":"OTPUsed","inputs":[{"name":"otp","type":"bytes32","indexed":true,"internalType":"bytes32"}],"anonymous":false},{"type":"event","name":"OwnershipTransferred","inputs":[{"name":"previousOwner","type":"address","indexed":true,"internalType":"address"},{"name":"newOwner","type":"address","indexed":true,"internalType":"address"}],"anonymous":false},{"type":"event","name":"PermissionGranted","inputs":[{"name":"account","type":"address","indexed":true,"internalType":"address"},{"name":"permission","type":"uint8","indexed":false,"internalType":"enum EnhancedAccount.PermissionType"}],"anonymous":false},{"type":"event","name":"PermissionRevoked","inputs":[{"name":"account","type":"address","indexed":true,"internalType":"address"},{"name":"permission","type":"uint8","indexed":false,"internalType":"enum EnhancedAccount.PermissionType"}],"anonymous":false},{"type":"event","name":"RecoveryTriggered","inputs":[{"name":"newOwner","type":"address","indexed":true,"internalType":"address"}],"anonymous":false},{"type":"event","name":"SecondaryKeySet","inputs":[{"name":"newKey","type":"address","indexed":true,"internalType":"address"}],"anonymous":false},{"type":"event","name":"TransactionExecuted","inputs":[{"name":"dest","type":"address","indexed":true,"internalType":"address"},{"name":"value","type":"uint256","indexed":false,"internalType":"uint256"},{"name":"success","type":"bool","indexed":false,"internalType":"bool"}],"anonymous":false},{"type":"error","name":"ECDSAInvalidSignature","inputs":[]},{"type":"error","name":"ECDSAInvalidSignatureLength","inputs":[{"name":"length","type":"uint256","internalType":"uint256"}]},{"type":"error","name":"ECDSAInvalidSignatureS","inputs":[{"name":"s","type":"bytes32","internalType":"bytes32"}]},{"type":"error","name":"OwnableInvalidOwner","inputs":[{"name":"owner","type":"address","internalType":"address"}]},{"type":"error","name":"OwnableUnauthorizedAccount","inputs":[{"name":"account","type":"address","internalType":"address"}]}],"bytecode":{"object":"0x60a060405234801562000010575f80fd5b50604051620026ea380380620026ea83398101604081905262000033916200015b565b816001600160a01b0381166200006357604051631e4fbdf760e01b81525f60048201526024015b60405180910390fd5b6200006e81620000e9565b506001600160a01b038216620000d65760405162461bcd60e51b815260206004820152602660248201527f456e68616e6365644163636f756e743a20496e76616c6964206f776e6572206160448201526564647265737360d01b60648201526084016200005a565b6001600160a01b03166080525062000198565b620000f481620000f7565b50565b5f80546001600160a01b038381166001600160a01b0319831681178455604051919092169283917f8be0079c531659141344cd1fd0a4f28419497f9722a3daafe3b4186f6b6457e09190a35050565b6001600160a01b0381168114620000f4575f80fd5b5f80604083850312156200016d575f80fd5b82516200017a8162000146565b60208401519092506200018d8162000146565b809150509250929050565b608051612539620001b15f395f6103a901526125395ff3fe6080604052600436106101e9575f3560e01c80637140415611610108578063c3c59e6d1161009d578063e3c7bd1d1161006d578063e3c7bd1d146105b9578063e43252d7146105d8578063f2fde38b146105f7578063f560c73414610616578063f9f92be414610635575f80fd5b8063c3c59e6d14610547578063cd73389d14610566578063cff82d071461057b578063dd8a8a051461059a575f80fd5b80639b19251a116100d85780639b19251a146104bc578063a526d83b146104ea578063a8e5e4aa14610509578063b20d30a914610528575f80fd5b8063714041561461044e578063715018a61461046d57806386ddbfdc146104815780638da5cb5b146104a0575f80fd5b8063301da8701161017e57806347e1da2a1161014e57806347e1da2a146103cd57806361f60361146103ec57806367eeba0c1461040b5780636c118c7414610420575f80fd5b8063301da8701461033e578063377a60981461035d57806344337ea11461037c57806344ab613f1461039b575f80fd5b8063142a2431116101b9578063142a2431146102ca57806319822f7c146102eb5780631c8123d61461030a5780632c7204841461031f575f80fd5b80630a108d5e146101f45780630b0bdaac146102425780630bc6b89c146102795780630c68ba211461029c575f80fd5b366101f057005b5f80fd5b3480156101ff575f80fd5b5061022d61020e366004611d6b565b600b60209081525f928352604080842090915290825290205460ff1681565b60405190151581526020015b60405180910390f35b34801561024d575f80fd5b50600154610261906001600160a01b031681565b6040516001600160a01b039091168152602001610239565b348015610284575f80fd5b5061028e60045481565b604051908152602001610239565b3480156102a7575f80fd5b5061022d6102b6366004611da5565b600a6020525f908152604090205460ff1681565b3480156102d5575f80fd5b506102e96102e4366004611e08565b610663565b005b3480156102f6575f80fd5b5061028e610305366004611e59565b61088d565b348015610315575f80fd5b5061028e60095481565b34801561032a575f80fd5b506102e9610339366004611f83565b6108d4565b348015610349575f80fd5b506102e9610358366004611d6b565b610afb565b348015610368575f80fd5b5061022d61037736600461200b565b610ba8565b348015610387575f80fd5b506102e9610396366004611da5565b610c09565b3480156103a6575f80fd5b507f0000000000000000000000000000000000000000000000000000000000000000610261565b3480156103d8575f80fd5b506102e96103e736600461204f565b610c5c565b3480156103f7575f80fd5b506102e96104063660046120e2565b610c6c565b348015610416575f80fd5b5061028e60035481565b34801561042b575f80fd5b5061022d61043a36600461213a565b60026020525f908152604090205460ff1681565b348015610459575f80fd5b506102e9610468366004611da5565b610ec3565b348015610478575f80fd5b506102e961107d565b34801561048c575f80fd5b506102e961049b36600461204f565b611090565b3480156104ab575f80fd5b505f546001600160a01b0316610261565b3480156104c7575f80fd5b5061022d6104d6366004611da5565b60066020525f908152604090205460ff1681565b3480156104f5575f80fd5b506102e9610504366004611da5565b6113a3565b348015610514575f80fd5b506102e9610523366004612151565b6114aa565b348015610533575f80fd5b506102e961054236600461213a565b611528565b348015610552575f80fd5b506102e961056136600461218f565b61156b565b348015610571575f80fd5b5061028e60055481565b348015610586575f80fd5b506102e96105953660046120e2565b61161e565b3480156105a5575f80fd5b506102e96105b4366004611d6b565b6116f8565b3480156105c4575f80fd5b506102e96105d3366004611da5565b611797565b3480156105e3575f80fd5b506102e96105f2366004611da5565b6117e8565b348015610602575f80fd5b506102e9610611366004611da5565b61183b565b348015610621575f80fd5b5061026161063036600461213a565b611878565b348015610640575f80fd5b5061022d61064f366004611da5565b60076020525f908152604090205460ff1681565b6009548110156106c85760405162461bcd60e51b815260206004820152602560248201527f456e68616e6365644163636f756e743a204e6f7420656e6f75676820617070726044820152646f76616c7360d81b60648201526084015b60405180910390fd5b6040516bffffffffffffffffffffffff19606085811b8216602084015230901b1660348201525f906048016040516020818303038152906040528051906020012090505f610742827f19457468657265756d205369676e6564204d6573736167653a0a3332000000005f908152601c91909152603c902090565b90505f805b848110156107eb575f6107b184888885818110610766576107666121b9565b905060200281019061077891906121cd565b8080601f0160208091040260200160405190810160405280939291908181526020018383808284375f920191909152506118a092505050565b6001600160a01b0381165f908152600a602052604090205490915060ff16156107e257826107de81612224565b9350505b50600101610747565b506009548110156108495760405162461bcd60e51b815260206004820152602260248201527f456e68616e6365644163636f756e743a20496e76616c696420617070726f76616044820152616c7360f01b60648201526084016106bf565b610852866118ca565b6040516001600160a01b038716907f4e45ce20b541734cacacd85093c8944b3d3560e9c9d5cf333a51d70375c1f6ba905f90a2505050505050565b5f80546001600160a01b03166108ab846107786101008801886121cd565b6001600160a01b0316146108c1575060016108cd565b6108ca826118d3565b505f5b9392505050565b6108dc611972565b5f8281526002602052604090205460ff16156109445760405162461bcd60e51b815260206004820152602160248201527f456e68616e6365644163636f756e743a204f545020616c7265616479207573656044820152601960fa1b60648201526084016106bf565b5f828152600260209081526040808320805460ff1916600117905551610988916109749186910190815260200190565b60405160208183030381529060405261199e565b90505f61099582846118a0565b6001549091506001600160a01b03808316911614610a0a5760405162461bcd60e51b815260206004820152602c60248201527f456e68616e6365644163636f756e743a20496e76616c6964207365636f6e646160448201526b7279207369676e617475726560a01b60648201526084016106bf565b5f886001600160a01b0316888888604051610a2692919061223c565b5f6040518083038185875af1925050503d805f8114610a60576040519150601f19603f3d011682016040523d82523d5f602084013e610a65565b606091505b5050905080610ac65760405162461bcd60e51b815260206004820152602760248201527f456e68616e6365644163636f756e743a204d4641207472616e73616374696f6e6044820152660819985a5b195960ca1b60648201526084016106bf565b60405185907fb6adfc3ed84cdb84695dac48371389711c3d82bcafc30b3381d239b69819c1d9905f90a2505050505050505050565b610b03611972565b6001600160a01b0382165f908152600b60205260408120600191836002811115610b2f57610b2f61224b565b6002811115610b4057610b4061224b565b81526020019081526020015f205f6101000a81548160ff021916908315150217905550816001600160a01b03167f4bb8f5497a4d4a4036670dab8c94b028b3fedc11ce7fbf55f3f57b3a4d355dc782604051610b9c919061225f565b60405180910390a25050565b335f908152600b602090815260408083206001808552925282205460ff16610be25760405162461bcd60e51b81526004016106bf90612285565b5f546001600160a01b0316610bf785856118a0565b6001600160a01b031614949350505050565b610c11611972565b6001600160a01b0381165f81815260076020526040808220805460ff19166001179055517fdaf49ab9345b6cb75bcb5a7f726bff9183c34dcf5c098c385730f9fd893765f69190a250565b610c64611972565b505050505050565b610c74611972565b60015c60025c610c8781620151806122ac565b421115610c9457505f9050425b6001600160a01b0386165f9081526007602052604090205460ff1615610d0c5760405162461bcd60e51b815260206004820152602760248201527f456e68616e6365644163636f756e743a204164647265737320697320626c61636044820152661adb1a5cdd195960ca1b60648201526084016106bf565b6001600160a01b0386165f9081526006602052604090205460ff16610d9257600354610d3886846122ac565b1115610d925760405162461bcd60e51b8152602060048201526024808201527f456e68616e6365644163636f756e743a2045786365656473206461696c79206c6044820152631a5b5a5d60e21b60648201526084016106bf565b610d9c85836122ac565b91505f866001600160a01b0316868686604051610dba92919061223c565b5f6040518083038185875af1925050503d805f8114610df4576040519150601f19603f3d011682016040523d82523d5f602084013e610df9565b606091505b50506040805188815282151560208201529192506001600160a01b038916917ffb04f5456ba4dadf3b50c2335860f8832b49b85d0f6c23a86c79d640d6ea3c5e910160405180910390a280610eab5760405162461bcd60e51b815260206004820152603260248201527f456e68616e6365644163636f756e743a205370656e64696e67206c696d6974206044820152711d1c985b9cd858dd1a5bdb8819985a5b195960721b60648201526084016106bf565b8260015d8160025d5060049190915560055550505050565b610ecb611972565b6001600160a01b0381165f908152600a602052604090205460ff16610f325760405162461bcd60e51b815260206004820152601f60248201527f456e68616e6365644163636f756e743a204e6f74206120677561726469616e0060448201526064016106bf565b6001600160a01b0381165f908152600a60205260408120805460ff191690555b60085481101561104657816001600160a01b031660088281548110610f7957610f796121b9565b5f918252602090912001546001600160a01b03160361103e5760088054610fa2906001906122bf565b81548110610fb257610fb26121b9565b5f91825260209091200154600880546001600160a01b039092169183908110610fdd57610fdd6121b9565b905f5260205f20015f6101000a8154816001600160a01b0302191690836001600160a01b031602179055506008805480611019576110196122d2565b5f8281526020902081015f1990810180546001600160a01b0319169055019055611046565b600101610f52565b506040516001600160a01b038216907fb8107d0c6b40be480ce3172ee66ba6d64b71f6b1685a851340036e6e2e3e3c52905f90a250565b611085611972565b61108e5f6118ca565b565b611098611972565b84831480156110a657508481145b6110f25760405162461bcd60e51b815260206004820181905260248201527f456e68616e6365644163636f756e743a204c656e677468206d69736d6174636860448201526064016106bf565b5f805b8481101561112b5785858281811061110f5761110f6121b9565b905060200201358261112191906122ac565b91506001016110f5565b50805f5d5f5c4781111561118f5760405162461bcd60e51b815260206004820152602560248201527f456e68616e6365644163636f756e743a20496e73756666696369656e742062616044820152646c616e636560d81b60648201526084016106bf565b5f5b87811015611330575f8989838181106111ac576111ac6121b9565b90506020020160208101906111c19190611da5565b6001600160a01b03168888848181106111dc576111dc6121b9565b905060200201358787858181106111f5576111f56121b9565b905060200281019061120791906121cd565b60405161121592919061223c565b5f6040518083038185875af1925050503d805f811461124f576040519150601f19603f3d011682016040523d82523d5f602084013e611254565b606091505b505090507f2a8fb2944ab820a1e4aa0019d2b2ec2a0ea06bd3a0f4b6038834865ba8b00e23828b8b8581811061128c5761128c6121b9565b90506020020160208101906112a19190611da5565b604080519283526001600160a01b0390911660208301528315159082015260600160405180910390a1806113275760405162461bcd60e51b815260206004820152602760248201527f456e68616e6365644163636f756e743a204261746368206f7065726174696f6e6044820152660819985a5b195960ca1b60648201526084016106bf565b50600101611191565b50336001600160a01b03167fbd6d81b0cf4294fef8585ccd17470c3b73d95138b513dffac9526511a92b7118898989898989604051602001611377969594939291906123a0565b60408051601f198184030181529082905261139191612458565b60405180910390a25050505050505050565b6113ab611972565b6001600160a01b0381165f908152600a602052604090205460ff161561141f5760405162461bcd60e51b815260206004820152602360248201527f456e68616e6365644163636f756e743a20416c7265616479206120677561726460448201526234b0b760e91b60648201526084016106bf565b6001600160a01b0381165f818152600a6020526040808220805460ff1916600190811790915560088054918201815583527ff3f7a9fe364faab93b216da50a3214154f22a0a2b415b23a84c8169e8b636ee30180546001600160a01b03191684179055517f038596bb31e2e7d3d9f184d4c98b310103f6d7f5830e5eec32bffe6f1728f9699190a250565b6114b2611972565b60405163095ea7b360e01b81526001600160a01b0383811660048301526024820183905284169063095ea7b3906044016020604051808303815f875af11580156114fe573d5f803e3d5ffd5b505050506040513d601f19601f82011682018060405250810190611522919061248a565b50505050565b611530611972565b60038190556040518181527fea70a31e4e5eb24c9509aa5d26266f5837aaa56d74f4f815ca7f23aaaf296d6a9060200160405180910390a150565b335f908152600b6020908152604080832083805290915281205460ff166115a45760405162461bcd60e51b81526004016106bf90612285565b814710156115eb5760405162461bcd60e51b8152602060048201526014602482015273496e73756666696369656e742062616c616e636560601b60448201526064016106bf565b6040516001600160a01b0384169083156108fc029084905f818181858888f19350505050158015611522573d5f803e3d5ffd5b335f908152600b60209081526040808320600280855292529091205460ff166116595760405162461bcd60e51b81526004016106bf90612285565b5f856001600160a01b031685858560405161167592919061223c565b5f6040518083038185875af1925050503d805f81146116af576040519150601f19603f3d011682016040523d82523d5f602084013e6116b4565b606091505b5050905080610c645760405162461bcd60e51b815260206004820152601060248201526f115e1958dd5d1a5bdb8819985a5b195960821b60448201526064016106bf565b611700611972565b6001600160a01b0382165f908152600b602052604081208183600281111561172a5761172a61224b565b600281111561173b5761173b61224b565b81526020019081526020015f205f6101000a81548160ff021916908315150217905550816001600160a01b03167fd3575ea02a180eaf90d5cdc241b627d0113361828dbdf71f6dab4875873201c882604051610b9c919061225f565b61179f611972565b600180546001600160a01b0319166001600160a01b0383169081179091556040517fad80876e08e61c6cf6b575b9c4a7dc63ec6f94d16c486fd520d409f4c1564891905f90a250565b6117f0611972565b6001600160a01b0381165f81815260066020526040808220805460ff19166001179055517f4f783c179409b4127238bc9c990bc99b9a651666a0d20b51d6c42849eb88466d9190a250565b611843611972565b6001600160a01b03811661186c57604051631e4fbdf760e01b81525f60048201526024016106bf565b611875816118ca565b50565b60088181548110611887575f80fd5b5f918252602090912001546001600160a01b0316905081565b5f805f806118ae86866119d8565b9250925092506118be8282611a21565b50909150505b92915050565b61187581611ad9565b8015611875576040515f90339083908381818185875af1925050503d805f8114611918576040519150601f19603f3d011682016040523d82523d5f602084013e61191d565b606091505b505090508061196e5760405162461bcd60e51b815260206004820152601f60248201527f456e68616e6365644163636f756e743a2050726566756e64206661696c65640060448201526064016106bf565b5050565b5f546001600160a01b0316331461108e5760405163118cdaa760e01b81523360048201526024016106bf565b5f6119a98251611b28565b826040516020016119bb9291906124a9565b604051602081830303815290604052805190602001209050919050565b5f805f8351604103611a0f576020840151604085015160608601515f1a611a0188828585611bb8565b955095509550505050611a1a565b505081515f91506002905b9250925092565b5f826003811115611a3457611a3461224b565b03611a3d575050565b6001826003811115611a5157611a5161224b565b03611a6f5760405163f645eedf60e01b815260040160405180910390fd5b6002826003811115611a8357611a8361224b565b03611aa45760405163fce698f760e01b8152600481018290526024016106bf565b6003826003811115611ab857611ab861224b565b0361196e576040516335e2f38360e21b8152600481018290526024016106bf565b5f80546001600160a01b038381166001600160a01b0319831681178455604051919092169283917f8be0079c531659141344cd1fd0a4f28419497f9722a3daafe3b4186f6b6457e09190a35050565b60605f611b3483611c80565b60010190505f8167ffffffffffffffff811115611b5357611b53611ee6565b6040519080825280601f01601f191660200182016040528015611b7d576020820181803683370190505b5090508181016020015b5f19016f181899199a1a9b1b9c1cb0b131b232b360811b600a86061a8153600a8504945084611b8757509392505050565b5f80807f7fffffffffffffffffffffffffffffff5d576e7357a4501ddfe92f46681b20a0841115611bf157505f91506003905082611c76565b604080515f808252602082018084528a905260ff891692820192909252606081018790526080810186905260019060a0016020604051602081039080840390855afa158015611c42573d5f803e3d5ffd5b5050604051601f1901519150506001600160a01b038116611c6d57505f925060019150829050611c76565b92505f91508190505b9450945094915050565b5f8072184f03e93ff9f4daa797ed6e38ed64bf6a1f0160401b8310611cbe5772184f03e93ff9f4daa797ed6e38ed64bf6a1f0160401b830492506040015b6d04ee2d6d415b85acef81000000008310611cea576d04ee2d6d415b85acef8100000000830492506020015b662386f26fc100008310611d0857662386f26fc10000830492506010015b6305f5e1008310611d20576305f5e100830492506008015b6127108310611d3457612710830492506004015b60648310611d46576064830492506002015b600a83106118c45760010192915050565b6001600160a01b0381168114611875575f80fd5b5f8060408385031215611d7c575f80fd5b8235611d8781611d57565b9150602083013560038110611d9a575f80fd5b809150509250929050565b5f60208284031215611db5575f80fd5b81356108cd81611d57565b5f8083601f840112611dd0575f80fd5b50813567ffffffffffffffff811115611de7575f80fd5b6020830191508360208260051b8501011115611e01575f80fd5b9250929050565b5f805f60408486031215611e1a575f80fd5b8335611e2581611d57565b9250602084013567ffffffffffffffff811115611e40575f80fd5b611e4c86828701611dc0565b9497909650939450505050565b5f805f60608486031215611e6b575f80fd5b833567ffffffffffffffff811115611e81575f80fd5b84016101208187031215611e93575f80fd5b95602085013595506040909401359392505050565b5f8083601f840112611eb8575f80fd5b50813567ffffffffffffffff811115611ecf575f80fd5b602083019150836020828501011115611e01575f80fd5b634e487b7160e01b5f52604160045260245ffd5b5f82601f830112611f09575f80fd5b813567ffffffffffffffff80821115611f2457611f24611ee6565b604051601f8301601f19908116603f01168101908282118183101715611f4c57611f4c611ee6565b81604052838152866020858801011115611f64575f80fd5b836020870160208301375f602085830101528094505050505092915050565b5f805f805f8060a08789031215611f98575f80fd5b8635611fa381611d57565b955060208701359450604087013567ffffffffffffffff80821115611fc6575f80fd5b611fd28a838b01611ea8565b9096509450606089013593506080890135915080821115611ff1575f80fd5b50611ffe89828a01611efa565b9150509295509295509295565b5f806040838503121561201c575f80fd5b82359150602083013567ffffffffffffffff811115612039575f80fd5b61204585828601611efa565b9150509250929050565b5f805f805f8060608789031215612064575f80fd5b863567ffffffffffffffff8082111561207b575f80fd5b6120878a838b01611dc0565b9098509650602089013591508082111561209f575f80fd5b6120ab8a838b01611dc0565b909650945060408901359150808211156120c3575f80fd5b506120d089828a01611dc0565b979a9699509497509295939492505050565b5f805f80606085870312156120f5575f80fd5b843561210081611d57565b935060208501359250604085013567ffffffffffffffff811115612122575f80fd5b61212e87828801611ea8565b95989497509550505050565b5f6020828403121561214a575f80fd5b5035919050565b5f805f60608486031215612163575f80fd5b833561216e81611d57565b9250602084013561217e81611d57565b929592945050506040919091013590565b5f80604083850312156121a0575f80fd5b82356121ab81611d57565b946020939093013593505050565b634e487b7160e01b5f52603260045260245ffd5b5f808335601e198436030181126121e2575f80fd5b83018035915067ffffffffffffffff8211156121fc575f80fd5b602001915036819003821315611e01575f80fd5b634e487b7160e01b5f52601160045260245ffd5b5f6001820161223557612235612210565b5060010190565b818382375f9101908152919050565b634e487b7160e01b5f52602160045260245ffd5b602081016003831061227f57634e487b7160e01b5f52602160045260245ffd5b91905290565b6020808252600d908201526c2737903832b936b4b9b9b4b7b760991b604082015260600190565b808201808211156118c4576118c4612210565b818103818111156118c4576118c4612210565b634e487b7160e01b5f52603160045260245ffd5b81835281816020850137505f828201602090810191909152601f909101601f19169091010190565b5f838385526020808601955060208560051b830101845f5b8781101561239357848303601f19018952813536889003601e1901811261234b575f80fd5b8701848101903567ffffffffffffffff811115612366575f80fd5b803603821315612374575f80fd5b61237f8582846122e6565b9a86019a9450505090830190600101612326565b5090979650505050505050565b606080825281018690525f8760808301825b898110156123e25782356123c581611d57565b6001600160a01b03168252602092830192909101906001016123b2565b5083810360208501528681526001600160fb1b03871115612401575f80fd5b8660051b9150818860208301370182810360209081016040850152612429908201858761230e565b9998505050505050505050565b5f5b83811015612450578181015183820152602001612438565b50505f910152565b602081525f8251806020840152612476816040850160208701612436565b601f01601f19169190910160400192915050565b5f6020828403121561249a575f80fd5b815180151581146108cd575f80fd5b7f19457468657265756d205369676e6564204d6573736167653a0a00000000000081525f83516124e081601a850160208801612436565b8351908301906124f781601a840160208801612436565b01601a0194935050505056fea2646970667358221220ad4711555b70225ab082e40299f40120240c6c0595b916b87492122b49a75b5264736f6c63430008180033","linkReferences":{}},"methodIdentifiers":{"addGuardian(address)":"a526d83b","addToBlacklist(address)":"44337ea1","addToWhitelist(address)":"e43252d7","approveERC20(address,address,uint256)":"a8e5e4aa","blacklist(address)":"f9f92be4","dailyLimit()":"67eeba0c","dailySpent()":"0bc6b89c","executeBatch(address[],uint256[],bytes[])":"47e1da2a","executeBatchWithTransient(address[],uint256[],bytes[])":"86ddbfdc","executeWithLimitTransient(address,uint256,bytes)":"61f60361","executeWithMFA(address,uint256,bytes,bytes32,bytes)":"2c720484","executeWithPermission(address,uint256,bytes)":"cff82d07","getEntryPoint()":"44ab613f","grantPermission(address,uint8)":"301da870","guardians(uint256)":"f560c734","isGuardian(address)":"0c68ba21","lastSpendReset()":"cd73389d","owner()":"8da5cb5b","permissions(address,uint8)":"0a108d5e","recoveryThreshold()":"1c8123d6","removeGuardian(address)":"71404156","renounceOwnership()":"715018a6","revokePermission(address,uint8)":"dd8a8a05","secondaryKey()":"0b0bdaac","sendFundsWithPermission(address,uint256)":"c3c59e6d","setDailyLimit(uint256)":"b20d30a9","setSecondaryKey(address)":"e3c7bd1d","signMessageWithPermission(bytes32,bytes)":"377a6098","transferOwnership(address)":"f2fde38b","triggerRecovery(address,bytes[])":"142a2431","usedOtps(bytes32)":"6c118c74","validateUserOp((address,uint256,bytes,bytes,bytes32,uint256,bytes32,bytes,bytes),bytes32,uint256)":"19822f7c","whitelist(address)":"9b19251a"},"id":48}