{"abi":[{"type":"constructor","inputs":[{"name":"initialOwner","type":"address","internalType":"address"},{"name":"entryPoint","type":"address","internalType":"contract IEntryPoint"}],"stateMutability":"nonpayable"},{"type":"function","name":"addGuardian","inputs":[{"name":"guardian","type":"address","internalType":"address"}],"outputs":[],"stateMutability":"nonpayable"},{"type":"function","name":"approveERC20","inputs":[{"name":"token","type":"address","internalType":"address"},{"name":"spender","type":"address","internalType":"address"},{"name":"amount","type":"uint256","internalType":"uint256"}],"outputs":[],"stateMutability":"nonpayable"},{"type":"function","name":"dailyLimit","inputs":[],"outputs":[{"name":"","type":"uint256","internalType":"uint256"}],"stateMutability":"view"},{"type":"function","name":"dailySpent","inputs":[],"outputs":[{"name":"","type":"uint256","internalType":"uint256"}],"stateMutability":"view"},{"type":"function","name":"executeBatch","inputs":[{"name":"dests","type":"address[]","internalType":"address[]"},{"name":"values","type":"uint256[]","internalType":"uint256[]"},{"name":"data","type":"bytes[]","internalType":"bytes[]"}],"outputs":[],"stateMutability":"nonpayable"},{"type":"function","name":"executeWithLimit","inputs":[{"name":"dest","type":"address","internalType":"address"},{"name":"value","type":"uint256","internalType":"uint256"},{"name":"data","type":"bytes","internalType":"bytes"}],"outputs":[],"stateMutability":"nonpayable"},{"type":"function","name":"executeWithMFA","inputs":[{"name":"dest","type":"address","internalType":"address"},{"name":"value","type":"uint256","internalType":"uint256"},{"name":"data","type":"bytes","internalType":"bytes"},{"name":"otp","type":"bytes32","internalType":"bytes32"},{"name":"secondarySignature","type":"bytes","internalType":"bytes"}],"outputs":[],"stateMutability":"nonpayable"},{"type":"function","name":"getEntryPoint","inputs":[],"outputs":[{"name":"","type":"address","internalType":"address"}],"stateMutability":"view"},{"type":"function","name":"guardians","inputs":[{"name":"","type":"uint256","internalType":"uint256"}],"outputs":[{"name":"","type":"address","internalType":"address"}],"stateMutability":"view"},{"type":"function","name":"isGuardian","inputs":[{"name":"","type":"address","internalType":"address"}],"outputs":[{"name":"","type":"bool","internalType":"bool"}],"stateMutability":"view"},{"type":"function","name":"lastSpendReset","inputs":[],"outputs":[{"name":"","type":"uint256","internalType":"uint256"}],"stateMutability":"view"},{"type":"function","name":"owner","inputs":[],"outputs":[{"name":"","type":"address","internalType":"address"}],"stateMutability":"view"},{"type":"function","name":"recoveryThreshold","inputs":[],"outputs":[{"name":"","type":"uint256","internalType":"uint256"}],"stateMutability":"view"},{"type":"function","name":"removeGuardian","inputs":[{"name":"guardian","type":"address","internalType":"address"}],"outputs":[],"stateMutability":"nonpayable"},{"type":"function","name":"renounceOwnership","inputs":[],"outputs":[],"stateMutability":"nonpayable"},{"type":"function","name":"secondaryKey","inputs":[],"outputs":[{"name":"","type":"address","internalType":"address"}],"stateMutability":"view"},{"type":"function","name":"setDailyLimit","inputs":[{"name":"limit","type":"uint256","internalType":"uint256"}],"outputs":[],"stateMutability":"nonpayable"},{"type":"function","name":"setSecondaryKey","inputs":[{"name":"newKey","type":"address","internalType":"address"}],"outputs":[],"stateMutability":"nonpayable"},{"type":"function","name":"transferOwnership","inputs":[{"name":"newOwner","type":"address","internalType":"address"}],"outputs":[],"stateMutability":"nonpayable"},{"type":"function","name":"triggerRecovery","inputs":[{"name":"newOwner","type":"address","internalType":"address"},{"name":"guardianSignatures","type":"bytes[]","internalType":"bytes[]"}],"outputs":[],"stateMutability":"nonpayable"},{"type":"function","name":"usedOtps","inputs":[{"name":"","type":"bytes32","internalType":"bytes32"}],"outputs":[{"name":"","type":"bool","internalType":"bool"}],"stateMutability":"view"},{"type":"function","name":"validateUserOp","inputs":[{"name":"userOp","type":"tuple","internalType":"struct PackedUserOperation","components":[{"name":"sender","type":"address","internalType":"address"},{"name":"nonce","type":"uint256","internalType":"uint256"},{"name":"initCode","type":"bytes","internalType":"bytes"},{"name":"callData","type":"bytes","internalType":"bytes"},{"name":"accountGasLimits","type":"bytes32","internalType":"bytes32"},{"name":"preVerificationGas","type":"uint256","internalType":"uint256"},{"name":"gasFees","type":"bytes32","internalType":"bytes32"},{"name":"paymasterAndData","type":"bytes","internalType":"bytes"},{"name":"signature","type":"bytes","internalType":"bytes"}]},{"name":"userOpHash","type":"bytes32","internalType":"bytes32"},{"name":"missingAccountFunds","type":"uint256","internalType":"uint256"}],"outputs":[{"name":"validationData","type":"uint256","internalType":"uint256"}],"stateMutability":"nonpayable"},{"type":"event","name":"BatchApproved","inputs":[{"name":"operator","type":"address","indexed":true,"internalType":"address"},{"name":"data","type":"bytes","indexed":false,"internalType":"bytes"}],"anonymous":false},{"type":"event","name":"BatchOperationResult","inputs":[{"name":"index","type":"uint256","indexed":false,"internalType":"uint256"},{"name":"dest","type":"address","indexed":false,"internalType":"address"},{"name":"success","type":"bool","indexed":false,"internalType":"bool"}],"anonymous":false},{"type":"event","name":"GuardianAdded","inputs":[{"name":"guardian","type":"address","indexed":true,"internalType":"address"}],"anonymous":false},{"type":"event","name":"GuardianRemoved","inputs":[{"name":"guardian","type":"address","indexed":true,"internalType":"address"}],"anonymous":false},{"type":"event","name":"OTPUsed","inputs":[{"name":"otp","type":"bytes32","indexed":true,"internalType":"bytes32"}],"anonymous":false},{"type":"event","name":"OwnershipTransferred","inputs":[{"name":"previousOwner","type":"address","indexed":true,"internalType":"address"},{"name":"newOwner","type":"address","indexed":true,"internalType":"address"}],"anonymous":false},{"type":"event","name":"RecoveryTriggered","inputs":[{"name":"newOwner","type":"address","indexed":true,"internalType":"address"}],"anonymous":false},{"type":"event","name":"SecondaryKeySet","inputs":[{"name":"newKey","type":"address","indexed":true,"internalType":"address"}],"anonymous":false},{"type":"error","name":"ECDSAInvalidSignature","inputs":[]},{"type":"error","name":"ECDSAInvalidSignatureLength","inputs":[{"name":"length","type":"uint256","internalType":"uint256"}]},{"type":"error","name":"ECDSAInvalidSignatureS","inputs":[{"name":"s","type":"bytes32","internalType":"bytes32"}]},{"type":"error","name":"OwnableInvalidOwner","inputs":[{"name":"owner","type":"address","internalType":"address"}]},{"type":"error","name":"OwnableUnauthorizedAccount","inputs":[{"name":"account","type":"address","internalType":"address"}]}],"bytecode":{"object":"0x60a060405234801562000010575f80fd5b5060405162001d8138038062001d8183398101604081905262000033916200015b565b816001600160a01b0381166200006357604051631e4fbdf760e01b81525f60048201526024015b60405180910390fd5b6200006e81620000e9565b506001600160a01b038216620000d65760405162461bcd60e51b815260206004820152602660248201527f456e68616e6365644163636f756e743a20496e76616c6964206f776e6572206160448201526564647265737360d01b60648201526084016200005a565b6001600160a01b03166080525062000198565b620000f481620000f7565b50565b5f80546001600160a01b038381166001600160a01b0319831681178455604051919092169283917f8be0079c531659141344cd1fd0a4f28419497f9722a3daafe3b4186f6b6457e09190a35050565b6001600160a01b0381168114620000f4575f80fd5b5f80604083850312156200016d575f80fd5b82516200017a8162000146565b60208401519092506200018d8162000146565b809150509250929050565b608051611bd0620001b15f395f6102000152611bd05ff3fe608060405234801561000f575f80fd5b506004361061013d575f3560e01c806371404156116100b4578063a8e5e4aa11610079578063a8e5e4aa146102b3578063b20d30a9146102c6578063cd73389d146102d9578063e3c7bd1d146102e2578063f2fde38b146102f5578063f560c73414610308575f80fd5b80637140415614610262578063715018a6146102755780638da5cb5b1461027d5780639ea15e0c1461028d578063a526d83b146102a0575f80fd5b80631c8123d6116101055780631c8123d6146101e25780632c720484146101eb57806344ab613f146101fe57806347e1da2a1461022457806367eeba0c146102375780636c118c7414610240575f80fd5b80630b0bdaac146101415780630bc6b89c146101715780630c68ba2114610188578063142a2431146101ba57806319822f7c146101cf575b5f80fd5b600154610154906001600160a01b031681565b6040516001600160a01b0390911681526020015b60405180910390f35b61017a60045481565b604051908152602001610168565b6101aa610196366004611520565b60086020525f908152604090205460ff1681565b6040519015158152602001610168565b6101cd6101c8366004611581565b61031b565b005b61017a6101dd3660046115d0565b610545565b61017a60075481565b6101cd6101f9366004611671565b61058c565b7f0000000000000000000000000000000000000000000000000000000000000000610154565b6101cd610232366004611766565b6107b3565b61017a60035481565b6101aa61024e3660046117f9565b60026020525f908152604090205460ff1681565b6101cd610270366004611520565b610ac0565b6101cd610c7a565b5f546001600160a01b0316610154565b6101cd61029b366004611810565b610c8d565b6101cd6102ae366004611520565b610e06565b6101cd6102c1366004611866565b610f0d565b6101cd6102d43660046117f9565b610f8b565b61017a60055481565b6101cd6102f0366004611520565b610f98565b6101cd610303366004611520565b610fe9565b6101546103163660046117f9565b611026565b6007548110156103805760405162461bcd60e51b815260206004820152602560248201527f456e68616e6365644163636f756e743a204e6f7420656e6f75676820617070726044820152646f76616c7360d81b60648201526084015b60405180910390fd5b6040516bffffffffffffffffffffffff19606085811b8216602084015230901b1660348201525f906048016040516020818303038152906040528051906020012090505f6103fa827f19457468657265756d205369676e6564204d6573736167653a0a3332000000005f908152601c91909152603c902090565b90505f805b848110156104a3575f6104698488888581811061041e5761041e61189f565b905060200281019061043091906118b3565b8080601f0160208091040260200160405190810160405280939291908181526020018383808284375f9201919091525061104e92505050565b6001600160a01b0381165f9081526008602052604090205490915060ff161561049a57826104968161190a565b9350505b506001016103ff565b506007548110156105015760405162461bcd60e51b815260206004820152602260248201527f456e68616e6365644163636f756e743a20496e76616c696420617070726f76616044820152616c7360f01b6064820152608401610377565b61050a86611078565b6040516001600160a01b038716907f4e45ce20b541734cacacd85093c8944b3d3560e9c9d5cf333a51d70375c1f6ba905f90a2505050505050565b5f80546001600160a01b0316610563846104306101008801886118b3565b6001600160a01b03161461057957506001610585565b61058282611081565b505f5b9392505050565b610594611120565b5f8281526002602052604090205460ff16156105fc5760405162461bcd60e51b815260206004820152602160248201527f456e68616e6365644163636f756e743a204f545020616c7265616479207573656044820152601960fa1b6064820152608401610377565b5f828152600260209081526040808320805460ff19166001179055516106409161062c9186910190815260200190565b60405160208183030381529060405261114c565b90505f61064d828461104e565b6001549091506001600160a01b038083169116146106c25760405162461bcd60e51b815260206004820152602c60248201527f456e68616e6365644163636f756e743a20496e76616c6964207365636f6e646160448201526b7279207369676e617475726560a01b6064820152608401610377565b5f886001600160a01b03168888886040516106de929190611922565b5f6040518083038185875af1925050503d805f8114610718576040519150601f19603f3d011682016040523d82523d5f602084013e61071d565b606091505b505090508061077e5760405162461bcd60e51b815260206004820152602760248201527f456e68616e6365644163636f756e743a204d4641207472616e73616374696f6e6044820152660819985a5b195960ca1b6064820152608401610377565b60405185907fb6adfc3ed84cdb84695dac48371389711c3d82bcafc30b3381d239b69819c1d9905f90a2505050505050505050565b6107bb611120565b84831480156107c957508481145b6108155760405162461bcd60e51b815260206004820181905260248201527f456e68616e6365644163636f756e743a204c656e677468206d69736d617463686044820152606401610377565b5f805b8481101561084e578585828181106108325761083261189f565b90506020020135826108449190611931565b9150600101610818565b50804710156108ad5760405162461bcd60e51b815260206004820152602560248201527f456e68616e6365644163636f756e743a20496e73756666696369656e742062616044820152646c616e636560d81b6064820152608401610377565b5f5b86811015610a4e575f8888838181106108ca576108ca61189f565b90506020020160208101906108df9190611520565b6001600160a01b03168787848181106108fa576108fa61189f565b905060200201358686858181106109135761091361189f565b905060200281019061092591906118b3565b604051610933929190611922565b5f6040518083038185875af1925050503d805f811461096d576040519150601f19603f3d011682016040523d82523d5f602084013e610972565b606091505b505090507f2a8fb2944ab820a1e4aa0019d2b2ec2a0ea06bd3a0f4b6038834865ba8b00e23828a8a858181106109aa576109aa61189f565b90506020020160208101906109bf9190611520565b604080519283526001600160a01b0390911660208301528315159082015260600160405180910390a180610a455760405162461bcd60e51b815260206004820152602760248201527f456e68616e6365644163636f756e743a204261746368206f7065726174696f6e6044820152660819985a5b195960ca1b6064820152608401610377565b506001016108af565b50336001600160a01b03167fbd6d81b0cf4294fef8585ccd17470c3b73d95138b513dffac9526511a92b7118888888888888604051602001610a95969594939291906119fe565b60408051601f1981840301815290829052610aaf91611ab4565b60405180910390a250505050505050565b610ac8611120565b6001600160a01b0381165f9081526008602052604090205460ff16610b2f5760405162461bcd60e51b815260206004820152601f60248201527f456e68616e6365644163636f756e743a204e6f74206120677561726469616e006044820152606401610377565b6001600160a01b0381165f908152600860205260408120805460ff191690555b600654811015610c4357816001600160a01b031660068281548110610b7657610b7661189f565b5f918252602090912001546001600160a01b031603610c3b5760068054610b9f90600190611ae6565b81548110610baf57610baf61189f565b5f91825260209091200154600680546001600160a01b039092169183908110610bda57610bda61189f565b905f5260205f20015f6101000a8154816001600160a01b0302191690836001600160a01b031602179055506006805480610c1657610c16611af9565b5f8281526020902081015f1990810180546001600160a01b0319169055019055610c43565b600101610b4f565b506040516001600160a01b038216907fb8107d0c6b40be480ce3172ee66ba6d64b71f6b1685a851340036e6e2e3e3c52905f90a250565b610c82611120565b610c8b5f611078565b565b610c95611120565b600554610ca59062015180611931565b421115610cb5575f600455426005555b60035483600454610cc69190611931565b1115610d205760405162461bcd60e51b8152602060048201526024808201527f456e68616e6365644163636f756e743a2045786365656473206461696c79206c6044820152631a5b5a5d60e21b6064820152608401610377565b8260045f828254610d319190611931565b925050819055505f846001600160a01b0316848484604051610d54929190611922565b5f6040518083038185875af1925050503d805f8114610d8e576040519150601f19603f3d011682016040523d82523d5f602084013e610d93565b606091505b5050905080610dff5760405162461bcd60e51b815260206004820152603260248201527f456e68616e6365644163636f756e743a205370656e64696e67206c696d6974206044820152711d1c985b9cd858dd1a5bdb8819985a5b195960721b6064820152608401610377565b5050505050565b610e0e611120565b6001600160a01b0381165f9081526008602052604090205460ff1615610e825760405162461bcd60e51b815260206004820152602360248201527f456e68616e6365644163636f756e743a20416c7265616479206120677561726460448201526234b0b760e91b6064820152608401610377565b6001600160a01b0381165f81815260086020526040808220805460ff1916600190811790915560068054918201815583527ff652222313e28459528d920b65115c16c04f3efc82aaedc97be59f3f377c0d3f0180546001600160a01b03191684179055517f038596bb31e2e7d3d9f184d4c98b310103f6d7f5830e5eec32bffe6f1728f9699190a250565b610f15611120565b60405163095ea7b360e01b81526001600160a01b0383811660048301526024820183905284169063095ea7b3906044016020604051808303815f875af1158015610f61573d5f803e3d5ffd5b505050506040513d601f19601f82011682018060405250810190610f859190611b0d565b50505050565b610f93611120565b600355565b610fa0611120565b600180546001600160a01b0319166001600160a01b0383169081179091556040517fad80876e08e61c6cf6b575b9c4a7dc63ec6f94d16c486fd520d409f4c1564891905f90a250565b610ff1611120565b6001600160a01b03811661101a57604051631e4fbdf760e01b81525f6004820152602401610377565b61102381611078565b50565b60068181548110611035575f80fd5b5f918252602090912001546001600160a01b0316905081565b5f805f8061105c8686611186565b92509250925061106c82826111cf565b50909150505b92915050565b61102381611287565b8015611023576040515f90339083908381818185875af1925050503d805f81146110c6576040519150601f19603f3d011682016040523d82523d5f602084013e6110cb565b606091505b505090508061111c5760405162461bcd60e51b815260206004820152601f60248201527f456e68616e6365644163636f756e743a2050726566756e64206661696c6564006044820152606401610377565b5050565b5f546001600160a01b03163314610c8b5760405163118cdaa760e01b8152336004820152602401610377565b5f61115782516112d6565b82604051602001611169929190611b2c565b604051602081830303815290604052805190602001209050919050565b5f805f83516041036111bd576020840151604085015160608601515f1a6111af88828585611366565b9550955095505050506111c8565b505081515f91506002905b9250925092565b5f8260038111156111e2576111e2611b86565b036111eb575050565b60018260038111156111ff576111ff611b86565b0361121d5760405163f645eedf60e01b815260040160405180910390fd5b600282600381111561123157611231611b86565b036112525760405163fce698f760e01b815260048101829052602401610377565b600382600381111561126657611266611b86565b0361111c576040516335e2f38360e21b815260048101829052602401610377565b5f80546001600160a01b038381166001600160a01b0319831681178455604051919092169283917f8be0079c531659141344cd1fd0a4f28419497f9722a3daafe3b4186f6b6457e09190a35050565b60605f6112e28361142e565b60010190505f8167ffffffffffffffff8111156113015761130161165d565b6040519080825280601f01601f19166020018201604052801561132b576020820181803683370190505b5090508181016020015b5f19016f181899199a1a9b1b9c1cb0b131b232b360811b600a86061a8153600a850494508461133557509392505050565b5f80807f7fffffffffffffffffffffffffffffff5d576e7357a4501ddfe92f46681b20a084111561139f57505f91506003905082611424565b604080515f808252602082018084528a905260ff891692820192909252606081018790526080810186905260019060a0016020604051602081039080840390855afa1580156113f0573d5f803e3d5ffd5b5050604051601f1901519150506001600160a01b03811661141b57505f925060019150829050611424565b92505f91508190505b9450945094915050565b5f8072184f03e93ff9f4daa797ed6e38ed64bf6a1f0160401b831061146c5772184f03e93ff9f4daa797ed6e38ed64bf6a1f0160401b830492506040015b6d04ee2d6d415b85acef81000000008310611498576d04ee2d6d415b85acef8100000000830492506020015b662386f26fc1000083106114b657662386f26fc10000830492506010015b6305f5e10083106114ce576305f5e100830492506008015b61271083106114e257612710830492506004015b606483106114f4576064830492506002015b600a83106110725760010192915050565b80356001600160a01b038116811461151b575f80fd5b919050565b5f60208284031215611530575f80fd5b61058582611505565b5f8083601f840112611549575f80fd5b50813567ffffffffffffffff811115611560575f80fd5b6020830191508360208260051b850101111561157a575f80fd5b9250929050565b5f805f60408486031215611593575f80fd5b61159c84611505565b9250602084013567ffffffffffffffff8111156115b7575f80fd5b6115c386828701611539565b9497909650939450505050565b5f805f606084860312156115e2575f80fd5b833567ffffffffffffffff8111156115f8575f80fd5b8401610120818703121561160a575f80fd5b95602085013595506040909401359392505050565b5f8083601f84011261162f575f80fd5b50813567ffffffffffffffff811115611646575f80fd5b60208301915083602082850101111561157a575f80fd5b634e487b7160e01b5f52604160045260245ffd5b5f805f805f8060a08789031215611686575f80fd5b61168f87611505565b955060208701359450604087013567ffffffffffffffff808211156116b2575f80fd5b6116be8a838b0161161f565b90965094506060890135935060808901359150808211156116dd575f80fd5b818901915089601f8301126116f0575f80fd5b8135818111156117025761170261165d565b604051601f8201601f19908116603f0116810190838211818310171561172a5761172a61165d565b816040528281528c6020848701011115611742575f80fd5b826020860160208301375f6020848301015280955050505050509295509295509295565b5f805f805f806060878903121561177b575f80fd5b863567ffffffffffffffff80821115611792575f80fd5b61179e8a838b01611539565b909850965060208901359150808211156117b6575f80fd5b6117c28a838b01611539565b909650945060408901359150808211156117da575f80fd5b506117e789828a01611539565b979a9699509497509295939492505050565b5f60208284031215611809575f80fd5b5035919050565b5f805f8060608587031215611823575f80fd5b61182c85611505565b935060208501359250604085013567ffffffffffffffff81111561184e575f80fd5b61185a8782880161161f565b95989497509550505050565b5f805f60608486031215611878575f80fd5b61188184611505565b925061188f60208501611505565b9150604084013590509250925092565b634e487b7160e01b5f52603260045260245ffd5b5f808335601e198436030181126118c8575f80fd5b83018035915067ffffffffffffffff8211156118e2575f80fd5b60200191503681900382131561157a575f80fd5b634e487b7160e01b5f52601160045260245ffd5b5f6001820161191b5761191b6118f6565b5060010190565b818382375f9101908152919050565b80820180821115611072576110726118f6565b81835281816020850137505f828201602090810191909152601f909101601f19169091010190565b5f838385526020808601955060208560051b830101845f5b878110156119f157848303601f19018952813536889003601e190181126119a9575f80fd5b8701848101903567ffffffffffffffff8111156119c4575f80fd5b8036038213156119d2575f80fd5b6119dd858284611944565b9a86019a9450505090830190600101611984565b5090979650505050505050565b606080825281018690525f8760808301825b89811015611a3e576001600160a01b03611a2984611505565b16825260209283019290910190600101611a10565b5083810360208501528681526001600160fb1b03871115611a5d575f80fd5b8660051b9150818860208301370182810360209081016040850152611a85908201858761196c565b9998505050505050505050565b5f5b83811015611aac578181015183820152602001611a94565b50505f910152565b602081525f8251806020840152611ad2816040850160208701611a92565b601f01601f19169190910160400192915050565b81810381811115611072576110726118f6565b634e487b7160e01b5f52603160045260245ffd5b5f60208284031215611b1d575f80fd5b81518015158114610585575f80fd5b7f19457468657265756d205369676e6564204d6573736167653a0a00000000000081525f8351611b6381601a850160208801611a92565b835190830190611b7a81601a840160208801611a92565b01601a01949350505050565b634e487b7160e01b5f52602160045260245ffdfea26469706673582212201b9f34fda41651ffcd1010d4c28cd0c9ae30b6deade3ec1f2473ffd8f2e9b11764736f6c63430008180033","linkReferences":{}},"methodIdentifiers":{"addGuardian(address)":"a526d83b","approveERC20(address,address,uint256)":"a8e5e4aa","dailyLimit()":"67eeba0c","dailySpent()":"0bc6b89c","executeBatch(address[],uint256[],bytes[])":"47e1da2a","executeWithLimit(address,uint256,bytes)":"9ea15e0c","executeWithMFA(address,uint256,bytes,bytes32,bytes)":"2c720484","getEntryPoint()":"44ab613f","guardians(uint256)":"f560c734","isGuardian(address)":"0c68ba21","lastSpendReset()":"cd73389d","owner()":"8da5cb5b","recoveryThreshold()":"1c8123d6","removeGuardian(address)":"71404156","renounceOwnership()":"715018a6","secondaryKey()":"0b0bdaac","setDailyLimit(uint256)":"b20d30a9","setSecondaryKey(address)":"e3c7bd1d","transferOwnership(address)":"f2fde38b","triggerRecovery(address,bytes[])":"142a2431","usedOtps(bytes32)":"6c118c74","validateUserOp((address,uint256,bytes,bytes,bytes32,uint256,bytes32,bytes,bytes),bytes32,uint256)":"19822f7c"},"id":48}